
Interrupts_Luis-Rodriguez_20220526.elf:     file format elf32-littlearm

Sections:
Idx Name          Size      VMA       LMA       File off  Algn
  0 .isr_vector   000001ac  08000000  08000000  00010000  2**0
                  CONTENTS, ALLOC, LOAD, READONLY, DATA
  1 .text         000034d0  080001ac  080001ac  000101ac  2**2
                  CONTENTS, ALLOC, LOAD, READONLY, CODE
  2 .rodata       0000008c  0800367c  0800367c  0001367c  2**2
                  CONTENTS, ALLOC, LOAD, READONLY, DATA
  3 .ARM.extab    00000000  08003708  08003708  00020070  2**0
                  CONTENTS
  4 .ARM          00000008  08003708  08003708  00013708  2**2
                  CONTENTS, ALLOC, LOAD, READONLY, DATA
  5 .preinit_array 00000000  08003710  08003710  00020070  2**0
                  CONTENTS, ALLOC, LOAD, DATA
  6 .init_array   00000004  08003710  08003710  00013710  2**2
                  CONTENTS, ALLOC, LOAD, DATA
  7 .fini_array   00000004  08003714  08003714  00013714  2**2
                  CONTENTS, ALLOC, LOAD, DATA
  8 .data         00000070  20000000  08003718  00020000  2**2
                  CONTENTS, ALLOC, LOAD, DATA
  9 .ccmram       00000000  10000000  10000000  00020070  2**0
                  CONTENTS
 10 .bss          00000078  20000070  20000070  00020070  2**2
                  ALLOC
 11 ._user_heap_stack 00000600  200000e8  200000e8  00020070  2**0
                  ALLOC
 12 .ARM.attributes 00000030  00000000  00000000  00020070  2**0
                  CONTENTS, READONLY
 13 .debug_info   00009406  00000000  00000000  000200a0  2**0
                  CONTENTS, READONLY, DEBUGGING, OCTETS
 14 .debug_abbrev 00001843  00000000  00000000  000294a6  2**0
                  CONTENTS, READONLY, DEBUGGING, OCTETS
 15 .debug_aranges 00000788  00000000  00000000  0002acf0  2**3
                  CONTENTS, READONLY, DEBUGGING, OCTETS
 16 .debug_ranges 000006f0  00000000  00000000  0002b478  2**3
                  CONTENTS, READONLY, DEBUGGING, OCTETS
 17 .debug_macro  00023572  00000000  00000000  0002bb68  2**0
                  CONTENTS, READONLY, DEBUGGING, OCTETS
 18 .debug_line   000092d7  00000000  00000000  0004f0da  2**0
                  CONTENTS, READONLY, DEBUGGING, OCTETS
 19 .debug_str    000d2f73  00000000  00000000  000583b1  2**0
                  CONTENTS, READONLY, DEBUGGING, OCTETS
 20 .comment      00000050  00000000  00000000  0012b324  2**0
                  CONTENTS, READONLY
 21 .debug_frame  0000240c  00000000  00000000  0012b374  2**2
                  CONTENTS, READONLY, DEBUGGING, OCTETS

Disassembly of section .text:

080001ac <__do_global_dtors_aux>:
 80001ac:	b510      	push	{r4, lr}
 80001ae:	4c05      	ldr	r4, [pc, #20]	; (80001c4 <__do_global_dtors_aux+0x18>)
 80001b0:	7823      	ldrb	r3, [r4, #0]
 80001b2:	b933      	cbnz	r3, 80001c2 <__do_global_dtors_aux+0x16>
 80001b4:	4b04      	ldr	r3, [pc, #16]	; (80001c8 <__do_global_dtors_aux+0x1c>)
 80001b6:	b113      	cbz	r3, 80001be <__do_global_dtors_aux+0x12>
 80001b8:	4804      	ldr	r0, [pc, #16]	; (80001cc <__do_global_dtors_aux+0x20>)
 80001ba:	f3af 8000 	nop.w
 80001be:	2301      	movs	r3, #1
 80001c0:	7023      	strb	r3, [r4, #0]
 80001c2:	bd10      	pop	{r4, pc}
 80001c4:	20000070 	.word	0x20000070
 80001c8:	00000000 	.word	0x00000000
 80001cc:	08003664 	.word	0x08003664

080001d0 <frame_dummy>:
 80001d0:	b508      	push	{r3, lr}
 80001d2:	4b03      	ldr	r3, [pc, #12]	; (80001e0 <frame_dummy+0x10>)
 80001d4:	b11b      	cbz	r3, 80001de <frame_dummy+0xe>
 80001d6:	4903      	ldr	r1, [pc, #12]	; (80001e4 <frame_dummy+0x14>)
 80001d8:	4803      	ldr	r0, [pc, #12]	; (80001e8 <frame_dummy+0x18>)
 80001da:	f3af 8000 	nop.w
 80001de:	bd08      	pop	{r3, pc}
 80001e0:	00000000 	.word	0x00000000
 80001e4:	20000074 	.word	0x20000074
 80001e8:	08003664 	.word	0x08003664

080001ec <__aeabi_uldivmod>:
 80001ec:	b953      	cbnz	r3, 8000204 <__aeabi_uldivmod+0x18>
 80001ee:	b94a      	cbnz	r2, 8000204 <__aeabi_uldivmod+0x18>
 80001f0:	2900      	cmp	r1, #0
 80001f2:	bf08      	it	eq
 80001f4:	2800      	cmpeq	r0, #0
 80001f6:	bf1c      	itt	ne
 80001f8:	f04f 31ff 	movne.w	r1, #4294967295
 80001fc:	f04f 30ff 	movne.w	r0, #4294967295
 8000200:	f000 b974 	b.w	80004ec <__aeabi_idiv0>
 8000204:	f1ad 0c08 	sub.w	ip, sp, #8
 8000208:	e96d ce04 	strd	ip, lr, [sp, #-16]!
 800020c:	f000 f806 	bl	800021c <__udivmoddi4>
 8000210:	f8dd e004 	ldr.w	lr, [sp, #4]
 8000214:	e9dd 2302 	ldrd	r2, r3, [sp, #8]
 8000218:	b004      	add	sp, #16
 800021a:	4770      	bx	lr

0800021c <__udivmoddi4>:
 800021c:	e92d 47f0 	stmdb	sp!, {r4, r5, r6, r7, r8, r9, sl, lr}
 8000220:	9d08      	ldr	r5, [sp, #32]
 8000222:	4604      	mov	r4, r0
 8000224:	468e      	mov	lr, r1
 8000226:	2b00      	cmp	r3, #0
 8000228:	d14d      	bne.n	80002c6 <__udivmoddi4+0xaa>
 800022a:	428a      	cmp	r2, r1
 800022c:	4694      	mov	ip, r2
 800022e:	d969      	bls.n	8000304 <__udivmoddi4+0xe8>
 8000230:	fab2 f282 	clz	r2, r2
 8000234:	b152      	cbz	r2, 800024c <__udivmoddi4+0x30>
 8000236:	fa01 f302 	lsl.w	r3, r1, r2
 800023a:	f1c2 0120 	rsb	r1, r2, #32
 800023e:	fa20 f101 	lsr.w	r1, r0, r1
 8000242:	fa0c fc02 	lsl.w	ip, ip, r2
 8000246:	ea41 0e03 	orr.w	lr, r1, r3
 800024a:	4094      	lsls	r4, r2
 800024c:	ea4f 481c 	mov.w	r8, ip, lsr #16
 8000250:	0c21      	lsrs	r1, r4, #16
 8000252:	fbbe f6f8 	udiv	r6, lr, r8
 8000256:	fa1f f78c 	uxth.w	r7, ip
 800025a:	fb08 e316 	mls	r3, r8, r6, lr
 800025e:	ea41 4303 	orr.w	r3, r1, r3, lsl #16
 8000262:	fb06 f107 	mul.w	r1, r6, r7
 8000266:	4299      	cmp	r1, r3
 8000268:	d90a      	bls.n	8000280 <__udivmoddi4+0x64>
 800026a:	eb1c 0303 	adds.w	r3, ip, r3
 800026e:	f106 30ff 	add.w	r0, r6, #4294967295
 8000272:	f080 811f 	bcs.w	80004b4 <__udivmoddi4+0x298>
 8000276:	4299      	cmp	r1, r3
 8000278:	f240 811c 	bls.w	80004b4 <__udivmoddi4+0x298>
 800027c:	3e02      	subs	r6, #2
 800027e:	4463      	add	r3, ip
 8000280:	1a5b      	subs	r3, r3, r1
 8000282:	b2a4      	uxth	r4, r4
 8000284:	fbb3 f0f8 	udiv	r0, r3, r8
 8000288:	fb08 3310 	mls	r3, r8, r0, r3
 800028c:	ea44 4403 	orr.w	r4, r4, r3, lsl #16
 8000290:	fb00 f707 	mul.w	r7, r0, r7
 8000294:	42a7      	cmp	r7, r4
 8000296:	d90a      	bls.n	80002ae <__udivmoddi4+0x92>
 8000298:	eb1c 0404 	adds.w	r4, ip, r4
 800029c:	f100 33ff 	add.w	r3, r0, #4294967295
 80002a0:	f080 810a 	bcs.w	80004b8 <__udivmoddi4+0x29c>
 80002a4:	42a7      	cmp	r7, r4
 80002a6:	f240 8107 	bls.w	80004b8 <__udivmoddi4+0x29c>
 80002aa:	4464      	add	r4, ip
 80002ac:	3802      	subs	r0, #2
 80002ae:	ea40 4006 	orr.w	r0, r0, r6, lsl #16
 80002b2:	1be4      	subs	r4, r4, r7
 80002b4:	2600      	movs	r6, #0
 80002b6:	b11d      	cbz	r5, 80002c0 <__udivmoddi4+0xa4>
 80002b8:	40d4      	lsrs	r4, r2
 80002ba:	2300      	movs	r3, #0
 80002bc:	e9c5 4300 	strd	r4, r3, [r5]
 80002c0:	4631      	mov	r1, r6
 80002c2:	e8bd 87f0 	ldmia.w	sp!, {r4, r5, r6, r7, r8, r9, sl, pc}
 80002c6:	428b      	cmp	r3, r1
 80002c8:	d909      	bls.n	80002de <__udivmoddi4+0xc2>
 80002ca:	2d00      	cmp	r5, #0
 80002cc:	f000 80ef 	beq.w	80004ae <__udivmoddi4+0x292>
 80002d0:	2600      	movs	r6, #0
 80002d2:	e9c5 0100 	strd	r0, r1, [r5]
 80002d6:	4630      	mov	r0, r6
 80002d8:	4631      	mov	r1, r6
 80002da:	e8bd 87f0 	ldmia.w	sp!, {r4, r5, r6, r7, r8, r9, sl, pc}
 80002de:	fab3 f683 	clz	r6, r3
 80002e2:	2e00      	cmp	r6, #0
 80002e4:	d14a      	bne.n	800037c <__udivmoddi4+0x160>
 80002e6:	428b      	cmp	r3, r1
 80002e8:	d302      	bcc.n	80002f0 <__udivmoddi4+0xd4>
 80002ea:	4282      	cmp	r2, r0
 80002ec:	f200 80f9 	bhi.w	80004e2 <__udivmoddi4+0x2c6>
 80002f0:	1a84      	subs	r4, r0, r2
 80002f2:	eb61 0303 	sbc.w	r3, r1, r3
 80002f6:	2001      	movs	r0, #1
 80002f8:	469e      	mov	lr, r3
 80002fa:	2d00      	cmp	r5, #0
 80002fc:	d0e0      	beq.n	80002c0 <__udivmoddi4+0xa4>
 80002fe:	e9c5 4e00 	strd	r4, lr, [r5]
 8000302:	e7dd      	b.n	80002c0 <__udivmoddi4+0xa4>
 8000304:	b902      	cbnz	r2, 8000308 <__udivmoddi4+0xec>
 8000306:	deff      	udf	#255	; 0xff
 8000308:	fab2 f282 	clz	r2, r2
 800030c:	2a00      	cmp	r2, #0
 800030e:	f040 8092 	bne.w	8000436 <__udivmoddi4+0x21a>
 8000312:	eba1 010c 	sub.w	r1, r1, ip
 8000316:	ea4f 471c 	mov.w	r7, ip, lsr #16
 800031a:	fa1f fe8c 	uxth.w	lr, ip
 800031e:	2601      	movs	r6, #1
 8000320:	0c20      	lsrs	r0, r4, #16
 8000322:	fbb1 f3f7 	udiv	r3, r1, r7
 8000326:	fb07 1113 	mls	r1, r7, r3, r1
 800032a:	ea40 4101 	orr.w	r1, r0, r1, lsl #16
 800032e:	fb0e f003 	mul.w	r0, lr, r3
 8000332:	4288      	cmp	r0, r1
 8000334:	d908      	bls.n	8000348 <__udivmoddi4+0x12c>
 8000336:	eb1c 0101 	adds.w	r1, ip, r1
 800033a:	f103 38ff 	add.w	r8, r3, #4294967295
 800033e:	d202      	bcs.n	8000346 <__udivmoddi4+0x12a>
 8000340:	4288      	cmp	r0, r1
 8000342:	f200 80cb 	bhi.w	80004dc <__udivmoddi4+0x2c0>
 8000346:	4643      	mov	r3, r8
 8000348:	1a09      	subs	r1, r1, r0
 800034a:	b2a4      	uxth	r4, r4
 800034c:	fbb1 f0f7 	udiv	r0, r1, r7
 8000350:	fb07 1110 	mls	r1, r7, r0, r1
 8000354:	ea44 4401 	orr.w	r4, r4, r1, lsl #16
 8000358:	fb0e fe00 	mul.w	lr, lr, r0
 800035c:	45a6      	cmp	lr, r4
 800035e:	d908      	bls.n	8000372 <__udivmoddi4+0x156>
 8000360:	eb1c 0404 	adds.w	r4, ip, r4
 8000364:	f100 31ff 	add.w	r1, r0, #4294967295
 8000368:	d202      	bcs.n	8000370 <__udivmoddi4+0x154>
 800036a:	45a6      	cmp	lr, r4
 800036c:	f200 80bb 	bhi.w	80004e6 <__udivmoddi4+0x2ca>
 8000370:	4608      	mov	r0, r1
 8000372:	eba4 040e 	sub.w	r4, r4, lr
 8000376:	ea40 4003 	orr.w	r0, r0, r3, lsl #16
 800037a:	e79c      	b.n	80002b6 <__udivmoddi4+0x9a>
 800037c:	f1c6 0720 	rsb	r7, r6, #32
 8000380:	40b3      	lsls	r3, r6
 8000382:	fa22 fc07 	lsr.w	ip, r2, r7
 8000386:	ea4c 0c03 	orr.w	ip, ip, r3
 800038a:	fa20 f407 	lsr.w	r4, r0, r7
 800038e:	fa01 f306 	lsl.w	r3, r1, r6
 8000392:	431c      	orrs	r4, r3
 8000394:	40f9      	lsrs	r1, r7
 8000396:	ea4f 491c 	mov.w	r9, ip, lsr #16
 800039a:	fa00 f306 	lsl.w	r3, r0, r6
 800039e:	fbb1 f8f9 	udiv	r8, r1, r9
 80003a2:	0c20      	lsrs	r0, r4, #16
 80003a4:	fa1f fe8c 	uxth.w	lr, ip
 80003a8:	fb09 1118 	mls	r1, r9, r8, r1
 80003ac:	ea40 4101 	orr.w	r1, r0, r1, lsl #16
 80003b0:	fb08 f00e 	mul.w	r0, r8, lr
 80003b4:	4288      	cmp	r0, r1
 80003b6:	fa02 f206 	lsl.w	r2, r2, r6
 80003ba:	d90b      	bls.n	80003d4 <__udivmoddi4+0x1b8>
 80003bc:	eb1c 0101 	adds.w	r1, ip, r1
 80003c0:	f108 3aff 	add.w	sl, r8, #4294967295
 80003c4:	f080 8088 	bcs.w	80004d8 <__udivmoddi4+0x2bc>
 80003c8:	4288      	cmp	r0, r1
 80003ca:	f240 8085 	bls.w	80004d8 <__udivmoddi4+0x2bc>
 80003ce:	f1a8 0802 	sub.w	r8, r8, #2
 80003d2:	4461      	add	r1, ip
 80003d4:	1a09      	subs	r1, r1, r0
 80003d6:	b2a4      	uxth	r4, r4
 80003d8:	fbb1 f0f9 	udiv	r0, r1, r9
 80003dc:	fb09 1110 	mls	r1, r9, r0, r1
 80003e0:	ea44 4101 	orr.w	r1, r4, r1, lsl #16
 80003e4:	fb00 fe0e 	mul.w	lr, r0, lr
 80003e8:	458e      	cmp	lr, r1
 80003ea:	d908      	bls.n	80003fe <__udivmoddi4+0x1e2>
 80003ec:	eb1c 0101 	adds.w	r1, ip, r1
 80003f0:	f100 34ff 	add.w	r4, r0, #4294967295
 80003f4:	d26c      	bcs.n	80004d0 <__udivmoddi4+0x2b4>
 80003f6:	458e      	cmp	lr, r1
 80003f8:	d96a      	bls.n	80004d0 <__udivmoddi4+0x2b4>
 80003fa:	3802      	subs	r0, #2
 80003fc:	4461      	add	r1, ip
 80003fe:	ea40 4008 	orr.w	r0, r0, r8, lsl #16
 8000402:	fba0 9402 	umull	r9, r4, r0, r2
 8000406:	eba1 010e 	sub.w	r1, r1, lr
 800040a:	42a1      	cmp	r1, r4
 800040c:	46c8      	mov	r8, r9
 800040e:	46a6      	mov	lr, r4
 8000410:	d356      	bcc.n	80004c0 <__udivmoddi4+0x2a4>
 8000412:	d053      	beq.n	80004bc <__udivmoddi4+0x2a0>
 8000414:	b15d      	cbz	r5, 800042e <__udivmoddi4+0x212>
 8000416:	ebb3 0208 	subs.w	r2, r3, r8
 800041a:	eb61 010e 	sbc.w	r1, r1, lr
 800041e:	fa01 f707 	lsl.w	r7, r1, r7
 8000422:	fa22 f306 	lsr.w	r3, r2, r6
 8000426:	40f1      	lsrs	r1, r6
 8000428:	431f      	orrs	r7, r3
 800042a:	e9c5 7100 	strd	r7, r1, [r5]
 800042e:	2600      	movs	r6, #0
 8000430:	4631      	mov	r1, r6
 8000432:	e8bd 87f0 	ldmia.w	sp!, {r4, r5, r6, r7, r8, r9, sl, pc}
 8000436:	f1c2 0320 	rsb	r3, r2, #32
 800043a:	40d8      	lsrs	r0, r3
 800043c:	fa0c fc02 	lsl.w	ip, ip, r2
 8000440:	fa21 f303 	lsr.w	r3, r1, r3
 8000444:	4091      	lsls	r1, r2
 8000446:	4301      	orrs	r1, r0
 8000448:	ea4f 471c 	mov.w	r7, ip, lsr #16
 800044c:	fa1f fe8c 	uxth.w	lr, ip
 8000450:	fbb3 f0f7 	udiv	r0, r3, r7
 8000454:	fb07 3610 	mls	r6, r7, r0, r3
 8000458:	0c0b      	lsrs	r3, r1, #16
 800045a:	ea43 4306 	orr.w	r3, r3, r6, lsl #16
 800045e:	fb00 f60e 	mul.w	r6, r0, lr
 8000462:	429e      	cmp	r6, r3
 8000464:	fa04 f402 	lsl.w	r4, r4, r2
 8000468:	d908      	bls.n	800047c <__udivmoddi4+0x260>
 800046a:	eb1c 0303 	adds.w	r3, ip, r3
 800046e:	f100 38ff 	add.w	r8, r0, #4294967295
 8000472:	d22f      	bcs.n	80004d4 <__udivmoddi4+0x2b8>
 8000474:	429e      	cmp	r6, r3
 8000476:	d92d      	bls.n	80004d4 <__udivmoddi4+0x2b8>
 8000478:	3802      	subs	r0, #2
 800047a:	4463      	add	r3, ip
 800047c:	1b9b      	subs	r3, r3, r6
 800047e:	b289      	uxth	r1, r1
 8000480:	fbb3 f6f7 	udiv	r6, r3, r7
 8000484:	fb07 3316 	mls	r3, r7, r6, r3
 8000488:	ea41 4103 	orr.w	r1, r1, r3, lsl #16
 800048c:	fb06 f30e 	mul.w	r3, r6, lr
 8000490:	428b      	cmp	r3, r1
 8000492:	d908      	bls.n	80004a6 <__udivmoddi4+0x28a>
 8000494:	eb1c 0101 	adds.w	r1, ip, r1
 8000498:	f106 38ff 	add.w	r8, r6, #4294967295
 800049c:	d216      	bcs.n	80004cc <__udivmoddi4+0x2b0>
 800049e:	428b      	cmp	r3, r1
 80004a0:	d914      	bls.n	80004cc <__udivmoddi4+0x2b0>
 80004a2:	3e02      	subs	r6, #2
 80004a4:	4461      	add	r1, ip
 80004a6:	1ac9      	subs	r1, r1, r3
 80004a8:	ea46 4600 	orr.w	r6, r6, r0, lsl #16
 80004ac:	e738      	b.n	8000320 <__udivmoddi4+0x104>
 80004ae:	462e      	mov	r6, r5
 80004b0:	4628      	mov	r0, r5
 80004b2:	e705      	b.n	80002c0 <__udivmoddi4+0xa4>
 80004b4:	4606      	mov	r6, r0
 80004b6:	e6e3      	b.n	8000280 <__udivmoddi4+0x64>
 80004b8:	4618      	mov	r0, r3
 80004ba:	e6f8      	b.n	80002ae <__udivmoddi4+0x92>
 80004bc:	454b      	cmp	r3, r9
 80004be:	d2a9      	bcs.n	8000414 <__udivmoddi4+0x1f8>
 80004c0:	ebb9 0802 	subs.w	r8, r9, r2
 80004c4:	eb64 0e0c 	sbc.w	lr, r4, ip
 80004c8:	3801      	subs	r0, #1
 80004ca:	e7a3      	b.n	8000414 <__udivmoddi4+0x1f8>
 80004cc:	4646      	mov	r6, r8
 80004ce:	e7ea      	b.n	80004a6 <__udivmoddi4+0x28a>
 80004d0:	4620      	mov	r0, r4
 80004d2:	e794      	b.n	80003fe <__udivmoddi4+0x1e2>
 80004d4:	4640      	mov	r0, r8
 80004d6:	e7d1      	b.n	800047c <__udivmoddi4+0x260>
 80004d8:	46d0      	mov	r8, sl
 80004da:	e77b      	b.n	80003d4 <__udivmoddi4+0x1b8>
 80004dc:	3b02      	subs	r3, #2
 80004de:	4461      	add	r1, ip
 80004e0:	e732      	b.n	8000348 <__udivmoddi4+0x12c>
 80004e2:	4630      	mov	r0, r6
 80004e4:	e709      	b.n	80002fa <__udivmoddi4+0xde>
 80004e6:	4464      	add	r4, ip
 80004e8:	3802      	subs	r0, #2
 80004ea:	e742      	b.n	8000372 <__udivmoddi4+0x156>

080004ec <__aeabi_idiv0>:
 80004ec:	4770      	bx	lr
 80004ee:	bf00      	nop

080004f0 <_write>:
/* USER CODE END PFP */

/* Private user code ---------------------------------------------------------*/
/* USER CODE BEGIN 0 */
int _write(int file, char *ptr, int len)
{
 80004f0:	b580      	push	{r7, lr}
 80004f2:	b084      	sub	sp, #16
 80004f4:	af00      	add	r7, sp, #0
 80004f6:	60f8      	str	r0, [r7, #12]
 80004f8:	60b9      	str	r1, [r7, #8]
 80004fa:	607a      	str	r2, [r7, #4]
	HAL_UART_Transmit(&huart1, ptr, len, 10);
 80004fc:	687b      	ldr	r3, [r7, #4]
 80004fe:	b29a      	uxth	r2, r3
 8000500:	230a      	movs	r3, #10
 8000502:	68b9      	ldr	r1, [r7, #8]
 8000504:	4803      	ldr	r0, [pc, #12]	; (8000514 <_write+0x24>)
 8000506:	f001 fbb6 	bl	8001c76 <HAL_UART_Transmit>
	return len;
 800050a:	687b      	ldr	r3, [r7, #4]
}
 800050c:	4618      	mov	r0, r3
 800050e:	3710      	adds	r7, #16
 8000510:	46bd      	mov	sp, r7
 8000512:	bd80      	pop	{r7, pc}
 8000514:	2000008c 	.word	0x2000008c

08000518 <main>:
/**
  * @brief  The application entry point.
  * @retval int
  */
int main(void)
{
 8000518:	b580      	push	{r7, lr}
 800051a:	af00      	add	r7, sp, #0
  /* USER CODE END 1 */

  /* MCU Configuration--------------------------------------------------------*/

  /* Reset of all peripherals, Initializes the Flash interface and the Systick. */
  HAL_Init();
 800051c:	f000 faa2 	bl	8000a64 <HAL_Init>
  /* USER CODE BEGIN Init */

  /* USER CODE END Init */

  /* Configure the system clock */
  SystemClock_Config();
 8000520:	f000 f80e 	bl	8000540 <SystemClock_Config>
  /* USER CODE BEGIN SysInit */

  /* USER CODE END SysInit */

  /* Initialize all configured peripherals */
  MX_GPIO_Init();
 8000524:	f000 f8a2 	bl	800066c <MX_GPIO_Init>
  MX_USART1_UART_Init();
 8000528:	f000 f876 	bl	8000618 <MX_USART1_UART_Init>

  /* USER CODE END 2 */

  /* Infinite loop */
  /* USER CODE BEGIN WHILE */
  printf("LED ANIMATION \r\n");
 800052c:	4803      	ldr	r0, [pc, #12]	; (800053c <main+0x24>)
 800052e:	f002 fc09 	bl	8002d44 <puts>
  HAL_Delay(200);
 8000532:	20c8      	movs	r0, #200	; 0xc8
 8000534:	f000 fb08 	bl	8000b48 <HAL_Delay>
  while (1)
 8000538:	e7fe      	b.n	8000538 <main+0x20>
 800053a:	bf00      	nop
 800053c:	0800367c 	.word	0x0800367c

08000540 <SystemClock_Config>:
/**
  * @brief System Clock Configuration
  * @retval None
  */
void SystemClock_Config(void)
{
 8000540:	b580      	push	{r7, lr}
 8000542:	b094      	sub	sp, #80	; 0x50
 8000544:	af00      	add	r7, sp, #0
  RCC_OscInitTypeDef RCC_OscInitStruct = {0};
 8000546:	f107 0320 	add.w	r3, r7, #32
 800054a:	2230      	movs	r2, #48	; 0x30
 800054c:	2100      	movs	r1, #0
 800054e:	4618      	mov	r0, r3
 8000550:	f002 fb82 	bl	8002c58 <memset>
  RCC_ClkInitTypeDef RCC_ClkInitStruct = {0};
 8000554:	f107 030c 	add.w	r3, r7, #12
 8000558:	2200      	movs	r2, #0
 800055a:	601a      	str	r2, [r3, #0]
 800055c:	605a      	str	r2, [r3, #4]
 800055e:	609a      	str	r2, [r3, #8]
 8000560:	60da      	str	r2, [r3, #12]
 8000562:	611a      	str	r2, [r3, #16]

  /** Configure the main internal regulator output voltage
  */
  __HAL_RCC_PWR_CLK_ENABLE();
 8000564:	2300      	movs	r3, #0
 8000566:	60bb      	str	r3, [r7, #8]
 8000568:	4b29      	ldr	r3, [pc, #164]	; (8000610 <SystemClock_Config+0xd0>)
 800056a:	6c1b      	ldr	r3, [r3, #64]	; 0x40
 800056c:	4a28      	ldr	r2, [pc, #160]	; (8000610 <SystemClock_Config+0xd0>)
 800056e:	f043 5380 	orr.w	r3, r3, #268435456	; 0x10000000
 8000572:	6413      	str	r3, [r2, #64]	; 0x40
 8000574:	4b26      	ldr	r3, [pc, #152]	; (8000610 <SystemClock_Config+0xd0>)
 8000576:	6c1b      	ldr	r3, [r3, #64]	; 0x40
 8000578:	f003 5380 	and.w	r3, r3, #268435456	; 0x10000000
 800057c:	60bb      	str	r3, [r7, #8]
 800057e:	68bb      	ldr	r3, [r7, #8]
  __HAL_PWR_VOLTAGESCALING_CONFIG(PWR_REGULATOR_VOLTAGE_SCALE3);
 8000580:	2300      	movs	r3, #0
 8000582:	607b      	str	r3, [r7, #4]
 8000584:	4b23      	ldr	r3, [pc, #140]	; (8000614 <SystemClock_Config+0xd4>)
 8000586:	681b      	ldr	r3, [r3, #0]
 8000588:	f423 4340 	bic.w	r3, r3, #49152	; 0xc000
 800058c:	4a21      	ldr	r2, [pc, #132]	; (8000614 <SystemClock_Config+0xd4>)
 800058e:	f443 4380 	orr.w	r3, r3, #16384	; 0x4000
 8000592:	6013      	str	r3, [r2, #0]
 8000594:	4b1f      	ldr	r3, [pc, #124]	; (8000614 <SystemClock_Config+0xd4>)
 8000596:	681b      	ldr	r3, [r3, #0]
 8000598:	f403 4340 	and.w	r3, r3, #49152	; 0xc000
 800059c:	607b      	str	r3, [r7, #4]
 800059e:	687b      	ldr	r3, [r7, #4]

  /** Initializes the RCC Oscillators according to the specified parameters
  * in the RCC_OscInitTypeDef structure.
  */
  RCC_OscInitStruct.OscillatorType = RCC_OSCILLATORTYPE_HSI;
 80005a0:	2302      	movs	r3, #2
 80005a2:	623b      	str	r3, [r7, #32]
  RCC_OscInitStruct.HSIState = RCC_HSI_ON;
 80005a4:	2301      	movs	r3, #1
 80005a6:	62fb      	str	r3, [r7, #44]	; 0x2c
  RCC_OscInitStruct.HSICalibrationValue = RCC_HSICALIBRATION_DEFAULT;
 80005a8:	2310      	movs	r3, #16
 80005aa:	633b      	str	r3, [r7, #48]	; 0x30
  RCC_OscInitStruct.PLL.PLLState = RCC_PLL_ON;
 80005ac:	2302      	movs	r3, #2
 80005ae:	63bb      	str	r3, [r7, #56]	; 0x38
  RCC_OscInitStruct.PLL.PLLSource = RCC_PLLSOURCE_HSI;
 80005b0:	2300      	movs	r3, #0
 80005b2:	63fb      	str	r3, [r7, #60]	; 0x3c
  RCC_OscInitStruct.PLL.PLLM = 8;
 80005b4:	2308      	movs	r3, #8
 80005b6:	643b      	str	r3, [r7, #64]	; 0x40
  RCC_OscInitStruct.PLL.PLLN = 50;
 80005b8:	2332      	movs	r3, #50	; 0x32
 80005ba:	647b      	str	r3, [r7, #68]	; 0x44
  RCC_OscInitStruct.PLL.PLLP = RCC_PLLP_DIV4;
 80005bc:	2304      	movs	r3, #4
 80005be:	64bb      	str	r3, [r7, #72]	; 0x48
  RCC_OscInitStruct.PLL.PLLQ = 7;
 80005c0:	2307      	movs	r3, #7
 80005c2:	64fb      	str	r3, [r7, #76]	; 0x4c
  if (HAL_RCC_OscConfig(&RCC_OscInitStruct) != HAL_OK)
 80005c4:	f107 0320 	add.w	r3, r7, #32
 80005c8:	4618      	mov	r0, r3
 80005ca:	f000 fe6f 	bl	80012ac <HAL_RCC_OscConfig>
 80005ce:	4603      	mov	r3, r0
 80005d0:	2b00      	cmp	r3, #0
 80005d2:	d001      	beq.n	80005d8 <SystemClock_Config+0x98>
  {
    Error_Handler();
 80005d4:	f000 f8c8 	bl	8000768 <Error_Handler>
  }

  /** Initializes the CPU, AHB and APB buses clocks
  */
  RCC_ClkInitStruct.ClockType = RCC_CLOCKTYPE_HCLK|RCC_CLOCKTYPE_SYSCLK
 80005d8:	230f      	movs	r3, #15
 80005da:	60fb      	str	r3, [r7, #12]
                              |RCC_CLOCKTYPE_PCLK1|RCC_CLOCKTYPE_PCLK2;
  RCC_ClkInitStruct.SYSCLKSource = RCC_SYSCLKSOURCE_PLLCLK;
 80005dc:	2302      	movs	r3, #2
 80005de:	613b      	str	r3, [r7, #16]
  RCC_ClkInitStruct.AHBCLKDivider = RCC_SYSCLK_DIV1;
 80005e0:	2300      	movs	r3, #0
 80005e2:	617b      	str	r3, [r7, #20]
  RCC_ClkInitStruct.APB1CLKDivider = RCC_HCLK_DIV8;
 80005e4:	f44f 53c0 	mov.w	r3, #6144	; 0x1800
 80005e8:	61bb      	str	r3, [r7, #24]
  RCC_ClkInitStruct.APB2CLKDivider = RCC_HCLK_DIV4;
 80005ea:	f44f 53a0 	mov.w	r3, #5120	; 0x1400
 80005ee:	61fb      	str	r3, [r7, #28]

  if (HAL_RCC_ClockConfig(&RCC_ClkInitStruct, FLASH_LATENCY_0) != HAL_OK)
 80005f0:	f107 030c 	add.w	r3, r7, #12
 80005f4:	2100      	movs	r1, #0
 80005f6:	4618      	mov	r0, r3
 80005f8:	f001 f8d0 	bl	800179c <HAL_RCC_ClockConfig>
 80005fc:	4603      	mov	r3, r0
 80005fe:	2b00      	cmp	r3, #0
 8000600:	d001      	beq.n	8000606 <SystemClock_Config+0xc6>
  {
    Error_Handler();
 8000602:	f000 f8b1 	bl	8000768 <Error_Handler>
  }
}
 8000606:	bf00      	nop
 8000608:	3750      	adds	r7, #80	; 0x50
 800060a:	46bd      	mov	sp, r7
 800060c:	bd80      	pop	{r7, pc}
 800060e:	bf00      	nop
 8000610:	40023800 	.word	0x40023800
 8000614:	40007000 	.word	0x40007000

08000618 <MX_USART1_UART_Init>:
  * @brief USART1 Initialization Function
  * @param None
  * @retval None
  */
static void MX_USART1_UART_Init(void)
{
 8000618:	b580      	push	{r7, lr}
 800061a:	af00      	add	r7, sp, #0
  /* USER CODE END USART1_Init 0 */

  /* USER CODE BEGIN USART1_Init 1 */

  /* USER CODE END USART1_Init 1 */
  huart1.Instance = USART1;
 800061c:	4b11      	ldr	r3, [pc, #68]	; (8000664 <MX_USART1_UART_Init+0x4c>)
 800061e:	4a12      	ldr	r2, [pc, #72]	; (8000668 <MX_USART1_UART_Init+0x50>)
 8000620:	601a      	str	r2, [r3, #0]
  huart1.Init.BaudRate = 115200;
 8000622:	4b10      	ldr	r3, [pc, #64]	; (8000664 <MX_USART1_UART_Init+0x4c>)
 8000624:	f44f 32e1 	mov.w	r2, #115200	; 0x1c200
 8000628:	605a      	str	r2, [r3, #4]
  huart1.Init.WordLength = UART_WORDLENGTH_8B;
 800062a:	4b0e      	ldr	r3, [pc, #56]	; (8000664 <MX_USART1_UART_Init+0x4c>)
 800062c:	2200      	movs	r2, #0
 800062e:	609a      	str	r2, [r3, #8]
  huart1.Init.StopBits = UART_STOPBITS_1;
 8000630:	4b0c      	ldr	r3, [pc, #48]	; (8000664 <MX_USART1_UART_Init+0x4c>)
 8000632:	2200      	movs	r2, #0
 8000634:	60da      	str	r2, [r3, #12]
  huart1.Init.Parity = UART_PARITY_NONE;
 8000636:	4b0b      	ldr	r3, [pc, #44]	; (8000664 <MX_USART1_UART_Init+0x4c>)
 8000638:	2200      	movs	r2, #0
 800063a:	611a      	str	r2, [r3, #16]
  huart1.Init.Mode = UART_MODE_TX_RX;
 800063c:	4b09      	ldr	r3, [pc, #36]	; (8000664 <MX_USART1_UART_Init+0x4c>)
 800063e:	220c      	movs	r2, #12
 8000640:	615a      	str	r2, [r3, #20]
  huart1.Init.HwFlowCtl = UART_HWCONTROL_NONE;
 8000642:	4b08      	ldr	r3, [pc, #32]	; (8000664 <MX_USART1_UART_Init+0x4c>)
 8000644:	2200      	movs	r2, #0
 8000646:	619a      	str	r2, [r3, #24]
  huart1.Init.OverSampling = UART_OVERSAMPLING_16;
 8000648:	4b06      	ldr	r3, [pc, #24]	; (8000664 <MX_USART1_UART_Init+0x4c>)
 800064a:	2200      	movs	r2, #0
 800064c:	61da      	str	r2, [r3, #28]
  if (HAL_UART_Init(&huart1) != HAL_OK)
 800064e:	4805      	ldr	r0, [pc, #20]	; (8000664 <MX_USART1_UART_Init+0x4c>)
 8000650:	f001 fac4 	bl	8001bdc <HAL_UART_Init>
 8000654:	4603      	mov	r3, r0
 8000656:	2b00      	cmp	r3, #0
 8000658:	d001      	beq.n	800065e <MX_USART1_UART_Init+0x46>
  {
    Error_Handler();
 800065a:	f000 f885 	bl	8000768 <Error_Handler>
  }
  /* USER CODE BEGIN USART1_Init 2 */

  /* USER CODE END USART1_Init 2 */

}
 800065e:	bf00      	nop
 8000660:	bd80      	pop	{r7, pc}
 8000662:	bf00      	nop
 8000664:	2000008c 	.word	0x2000008c
 8000668:	40011000 	.word	0x40011000

0800066c <MX_GPIO_Init>:
  * @brief GPIO Initialization Function
  * @param None
  * @retval None
  */
static void MX_GPIO_Init(void)
{
 800066c:	b580      	push	{r7, lr}
 800066e:	b088      	sub	sp, #32
 8000670:	af00      	add	r7, sp, #0
  GPIO_InitTypeDef GPIO_InitStruct = {0};
 8000672:	f107 030c 	add.w	r3, r7, #12
 8000676:	2200      	movs	r2, #0
 8000678:	601a      	str	r2, [r3, #0]
 800067a:	605a      	str	r2, [r3, #4]
 800067c:	609a      	str	r2, [r3, #8]
 800067e:	60da      	str	r2, [r3, #12]
 8000680:	611a      	str	r2, [r3, #16]

  /* GPIO Ports Clock Enable */
  __HAL_RCC_GPIOA_CLK_ENABLE();
 8000682:	2300      	movs	r3, #0
 8000684:	60bb      	str	r3, [r7, #8]
 8000686:	4b34      	ldr	r3, [pc, #208]	; (8000758 <MX_GPIO_Init+0xec>)
 8000688:	6b1b      	ldr	r3, [r3, #48]	; 0x30
 800068a:	4a33      	ldr	r2, [pc, #204]	; (8000758 <MX_GPIO_Init+0xec>)
 800068c:	f043 0301 	orr.w	r3, r3, #1
 8000690:	6313      	str	r3, [r2, #48]	; 0x30
 8000692:	4b31      	ldr	r3, [pc, #196]	; (8000758 <MX_GPIO_Init+0xec>)
 8000694:	6b1b      	ldr	r3, [r3, #48]	; 0x30
 8000696:	f003 0301 	and.w	r3, r3, #1
 800069a:	60bb      	str	r3, [r7, #8]
 800069c:	68bb      	ldr	r3, [r7, #8]
  __HAL_RCC_GPIOD_CLK_ENABLE();
 800069e:	2300      	movs	r3, #0
 80006a0:	607b      	str	r3, [r7, #4]
 80006a2:	4b2d      	ldr	r3, [pc, #180]	; (8000758 <MX_GPIO_Init+0xec>)
 80006a4:	6b1b      	ldr	r3, [r3, #48]	; 0x30
 80006a6:	4a2c      	ldr	r2, [pc, #176]	; (8000758 <MX_GPIO_Init+0xec>)
 80006a8:	f043 0308 	orr.w	r3, r3, #8
 80006ac:	6313      	str	r3, [r2, #48]	; 0x30
 80006ae:	4b2a      	ldr	r3, [pc, #168]	; (8000758 <MX_GPIO_Init+0xec>)
 80006b0:	6b1b      	ldr	r3, [r3, #48]	; 0x30
 80006b2:	f003 0308 	and.w	r3, r3, #8
 80006b6:	607b      	str	r3, [r7, #4]
 80006b8:	687b      	ldr	r3, [r7, #4]
  __HAL_RCC_GPIOG_CLK_ENABLE();
 80006ba:	2300      	movs	r3, #0
 80006bc:	603b      	str	r3, [r7, #0]
 80006be:	4b26      	ldr	r3, [pc, #152]	; (8000758 <MX_GPIO_Init+0xec>)
 80006c0:	6b1b      	ldr	r3, [r3, #48]	; 0x30
 80006c2:	4a25      	ldr	r2, [pc, #148]	; (8000758 <MX_GPIO_Init+0xec>)
 80006c4:	f043 0340 	orr.w	r3, r3, #64	; 0x40
 80006c8:	6313      	str	r3, [r2, #48]	; 0x30
 80006ca:	4b23      	ldr	r3, [pc, #140]	; (8000758 <MX_GPIO_Init+0xec>)
 80006cc:	6b1b      	ldr	r3, [r3, #48]	; 0x30
 80006ce:	f003 0340 	and.w	r3, r3, #64	; 0x40
 80006d2:	603b      	str	r3, [r7, #0]
 80006d4:	683b      	ldr	r3, [r7, #0]

  /*Configure GPIO pin Output Level */
  HAL_GPIO_WritePin(GPIOD, LED_1_Pin|LED_2_Pin, GPIO_PIN_RESET);
 80006d6:	2200      	movs	r2, #0
 80006d8:	21a0      	movs	r1, #160	; 0xa0
 80006da:	4820      	ldr	r0, [pc, #128]	; (800075c <MX_GPIO_Init+0xf0>)
 80006dc:	f000 fda8 	bl	8001230 <HAL_GPIO_WritePin>

  /*Configure GPIO pin Output Level */
  HAL_GPIO_WritePin(GPIOG, LED_3_Pin|LED_4_Pin|LED_5_Pin|LED_6_Pin, GPIO_PIN_RESET);
 80006e0:	2200      	movs	r2, #0
 80006e2:	f44f 412a 	mov.w	r1, #43520	; 0xaa00
 80006e6:	481e      	ldr	r0, [pc, #120]	; (8000760 <MX_GPIO_Init+0xf4>)
 80006e8:	f000 fda2 	bl	8001230 <HAL_GPIO_WritePin>

  /*Configure GPIO pin : USER_BUTTON_Pin */
  GPIO_InitStruct.Pin = USER_BUTTON_Pin;
 80006ec:	2301      	movs	r3, #1
 80006ee:	60fb      	str	r3, [r7, #12]
  GPIO_InitStruct.Mode = GPIO_MODE_IT_RISING;
 80006f0:	f44f 1388 	mov.w	r3, #1114112	; 0x110000
 80006f4:	613b      	str	r3, [r7, #16]
  GPIO_InitStruct.Pull = GPIO_NOPULL;
 80006f6:	2300      	movs	r3, #0
 80006f8:	617b      	str	r3, [r7, #20]
  HAL_GPIO_Init(USER_BUTTON_GPIO_Port, &GPIO_InitStruct);
 80006fa:	f107 030c 	add.w	r3, r7, #12
 80006fe:	4619      	mov	r1, r3
 8000700:	4818      	ldr	r0, [pc, #96]	; (8000764 <MX_GPIO_Init+0xf8>)
 8000702:	f000 fbe9 	bl	8000ed8 <HAL_GPIO_Init>

  /*Configure GPIO pins : LED_1_Pin LED_2_Pin */
  GPIO_InitStruct.Pin = LED_1_Pin|LED_2_Pin;
 8000706:	23a0      	movs	r3, #160	; 0xa0
 8000708:	60fb      	str	r3, [r7, #12]
  GPIO_InitStruct.Mode = GPIO_MODE_OUTPUT_PP;
 800070a:	2301      	movs	r3, #1
 800070c:	613b      	str	r3, [r7, #16]
  GPIO_InitStruct.Pull = GPIO_NOPULL;
 800070e:	2300      	movs	r3, #0
 8000710:	617b      	str	r3, [r7, #20]
  GPIO_InitStruct.Speed = GPIO_SPEED_FREQ_LOW;
 8000712:	2300      	movs	r3, #0
 8000714:	61bb      	str	r3, [r7, #24]
  HAL_GPIO_Init(GPIOD, &GPIO_InitStruct);
 8000716:	f107 030c 	add.w	r3, r7, #12
 800071a:	4619      	mov	r1, r3
 800071c:	480f      	ldr	r0, [pc, #60]	; (800075c <MX_GPIO_Init+0xf0>)
 800071e:	f000 fbdb 	bl	8000ed8 <HAL_GPIO_Init>

  /*Configure GPIO pins : LED_3_Pin LED_4_Pin LED_5_Pin LED_6_Pin */
  GPIO_InitStruct.Pin = LED_3_Pin|LED_4_Pin|LED_5_Pin|LED_6_Pin;
 8000722:	f44f 432a 	mov.w	r3, #43520	; 0xaa00
 8000726:	60fb      	str	r3, [r7, #12]
  GPIO_InitStruct.Mode = GPIO_MODE_OUTPUT_PP;
 8000728:	2301      	movs	r3, #1
 800072a:	613b      	str	r3, [r7, #16]
  GPIO_InitStruct.Pull = GPIO_NOPULL;
 800072c:	2300      	movs	r3, #0
 800072e:	617b      	str	r3, [r7, #20]
  GPIO_InitStruct.Speed = GPIO_SPEED_FREQ_LOW;
 8000730:	2300      	movs	r3, #0
 8000732:	61bb      	str	r3, [r7, #24]
  HAL_GPIO_Init(GPIOG, &GPIO_InitStruct);
 8000734:	f107 030c 	add.w	r3, r7, #12
 8000738:	4619      	mov	r1, r3
 800073a:	4809      	ldr	r0, [pc, #36]	; (8000760 <MX_GPIO_Init+0xf4>)
 800073c:	f000 fbcc 	bl	8000ed8 <HAL_GPIO_Init>

  /* EXTI interrupt init*/
  HAL_NVIC_SetPriority(EXTI0_IRQn, 5, 0);
 8000740:	2200      	movs	r2, #0
 8000742:	2105      	movs	r1, #5
 8000744:	2006      	movs	r0, #6
 8000746:	f000 fafe 	bl	8000d46 <HAL_NVIC_SetPriority>
  HAL_NVIC_EnableIRQ(EXTI0_IRQn);
 800074a:	2006      	movs	r0, #6
 800074c:	f000 fb17 	bl	8000d7e <HAL_NVIC_EnableIRQ>

}
 8000750:	bf00      	nop
 8000752:	3720      	adds	r7, #32
 8000754:	46bd      	mov	sp, r7
 8000756:	bd80      	pop	{r7, pc}
 8000758:	40023800 	.word	0x40023800
 800075c:	40020c00 	.word	0x40020c00
 8000760:	40021800 	.word	0x40021800
 8000764:	40020000 	.word	0x40020000

08000768 <Error_Handler>:
/**
  * @brief  This function is executed in case of error occurrence.
  * @retval None
  */
void Error_Handler(void)
{
 8000768:	b480      	push	{r7}
 800076a:	af00      	add	r7, sp, #0
  \details Disables IRQ interrupts by setting the I-bit in the CPSR.
           Can only be executed in Privileged modes.
 */
__STATIC_FORCEINLINE void __disable_irq(void)
{
  __ASM volatile ("cpsid i" : : : "memory");
 800076c:	b672      	cpsid	i
}
 800076e:	bf00      	nop
  /* USER CODE BEGIN Error_Handler_Debug */
  /* User can add his own implementation to report the HAL error return state */
  __disable_irq();
  while (1)
 8000770:	e7fe      	b.n	8000770 <Error_Handler+0x8>
	...

08000774 <HAL_MspInit>:
/* USER CODE END 0 */
/**
  * Initializes the Global MSP.
  */
void HAL_MspInit(void)
{
 8000774:	b480      	push	{r7}
 8000776:	b083      	sub	sp, #12
 8000778:	af00      	add	r7, sp, #0
  /* USER CODE BEGIN MspInit 0 */

  /* USER CODE END MspInit 0 */

  __HAL_RCC_SYSCFG_CLK_ENABLE();
 800077a:	2300      	movs	r3, #0
 800077c:	607b      	str	r3, [r7, #4]
 800077e:	4b10      	ldr	r3, [pc, #64]	; (80007c0 <HAL_MspInit+0x4c>)
 8000780:	6c5b      	ldr	r3, [r3, #68]	; 0x44
 8000782:	4a0f      	ldr	r2, [pc, #60]	; (80007c0 <HAL_MspInit+0x4c>)
 8000784:	f443 4380 	orr.w	r3, r3, #16384	; 0x4000
 8000788:	6453      	str	r3, [r2, #68]	; 0x44
 800078a:	4b0d      	ldr	r3, [pc, #52]	; (80007c0 <HAL_MspInit+0x4c>)
 800078c:	6c5b      	ldr	r3, [r3, #68]	; 0x44
 800078e:	f403 4380 	and.w	r3, r3, #16384	; 0x4000
 8000792:	607b      	str	r3, [r7, #4]
 8000794:	687b      	ldr	r3, [r7, #4]
  __HAL_RCC_PWR_CLK_ENABLE();
 8000796:	2300      	movs	r3, #0
 8000798:	603b      	str	r3, [r7, #0]
 800079a:	4b09      	ldr	r3, [pc, #36]	; (80007c0 <HAL_MspInit+0x4c>)
 800079c:	6c1b      	ldr	r3, [r3, #64]	; 0x40
 800079e:	4a08      	ldr	r2, [pc, #32]	; (80007c0 <HAL_MspInit+0x4c>)
 80007a0:	f043 5380 	orr.w	r3, r3, #268435456	; 0x10000000
 80007a4:	6413      	str	r3, [r2, #64]	; 0x40
 80007a6:	4b06      	ldr	r3, [pc, #24]	; (80007c0 <HAL_MspInit+0x4c>)
 80007a8:	6c1b      	ldr	r3, [r3, #64]	; 0x40
 80007aa:	f003 5380 	and.w	r3, r3, #268435456	; 0x10000000
 80007ae:	603b      	str	r3, [r7, #0]
 80007b0:	683b      	ldr	r3, [r7, #0]
  /* System interrupt init*/

  /* USER CODE BEGIN MspInit 1 */

  /* USER CODE END MspInit 1 */
}
 80007b2:	bf00      	nop
 80007b4:	370c      	adds	r7, #12
 80007b6:	46bd      	mov	sp, r7
 80007b8:	f85d 7b04 	ldr.w	r7, [sp], #4
 80007bc:	4770      	bx	lr
 80007be:	bf00      	nop
 80007c0:	40023800 	.word	0x40023800

080007c4 <HAL_UART_MspInit>:
* This function configures the hardware resources used in this example
* @param huart: UART handle pointer
* @retval None
*/
void HAL_UART_MspInit(UART_HandleTypeDef* huart)
{
 80007c4:	b580      	push	{r7, lr}
 80007c6:	b08a      	sub	sp, #40	; 0x28
 80007c8:	af00      	add	r7, sp, #0
 80007ca:	6078      	str	r0, [r7, #4]
  GPIO_InitTypeDef GPIO_InitStruct = {0};
 80007cc:	f107 0314 	add.w	r3, r7, #20
 80007d0:	2200      	movs	r2, #0
 80007d2:	601a      	str	r2, [r3, #0]
 80007d4:	605a      	str	r2, [r3, #4]
 80007d6:	609a      	str	r2, [r3, #8]
 80007d8:	60da      	str	r2, [r3, #12]
 80007da:	611a      	str	r2, [r3, #16]
  if(huart->Instance==USART1)
 80007dc:	687b      	ldr	r3, [r7, #4]
 80007de:	681b      	ldr	r3, [r3, #0]
 80007e0:	4a1d      	ldr	r2, [pc, #116]	; (8000858 <HAL_UART_MspInit+0x94>)
 80007e2:	4293      	cmp	r3, r2
 80007e4:	d134      	bne.n	8000850 <HAL_UART_MspInit+0x8c>
  {
  /* USER CODE BEGIN USART1_MspInit 0 */

  /* USER CODE END USART1_MspInit 0 */
    /* Peripheral clock enable */
    __HAL_RCC_USART1_CLK_ENABLE();
 80007e6:	2300      	movs	r3, #0
 80007e8:	613b      	str	r3, [r7, #16]
 80007ea:	4b1c      	ldr	r3, [pc, #112]	; (800085c <HAL_UART_MspInit+0x98>)
 80007ec:	6c5b      	ldr	r3, [r3, #68]	; 0x44
 80007ee:	4a1b      	ldr	r2, [pc, #108]	; (800085c <HAL_UART_MspInit+0x98>)
 80007f0:	f043 0310 	orr.w	r3, r3, #16
 80007f4:	6453      	str	r3, [r2, #68]	; 0x44
 80007f6:	4b19      	ldr	r3, [pc, #100]	; (800085c <HAL_UART_MspInit+0x98>)
 80007f8:	6c5b      	ldr	r3, [r3, #68]	; 0x44
 80007fa:	f003 0310 	and.w	r3, r3, #16
 80007fe:	613b      	str	r3, [r7, #16]
 8000800:	693b      	ldr	r3, [r7, #16]

    __HAL_RCC_GPIOA_CLK_ENABLE();
 8000802:	2300      	movs	r3, #0
 8000804:	60fb      	str	r3, [r7, #12]
 8000806:	4b15      	ldr	r3, [pc, #84]	; (800085c <HAL_UART_MspInit+0x98>)
 8000808:	6b1b      	ldr	r3, [r3, #48]	; 0x30
 800080a:	4a14      	ldr	r2, [pc, #80]	; (800085c <HAL_UART_MspInit+0x98>)
 800080c:	f043 0301 	orr.w	r3, r3, #1
 8000810:	6313      	str	r3, [r2, #48]	; 0x30
 8000812:	4b12      	ldr	r3, [pc, #72]	; (800085c <HAL_UART_MspInit+0x98>)
 8000814:	6b1b      	ldr	r3, [r3, #48]	; 0x30
 8000816:	f003 0301 	and.w	r3, r3, #1
 800081a:	60fb      	str	r3, [r7, #12]
 800081c:	68fb      	ldr	r3, [r7, #12]
    /**USART1 GPIO Configuration
    PA9     ------> USART1_TX
    PA10     ------> USART1_RX
    */
    GPIO_InitStruct.Pin = GPIO_PIN_9|GPIO_PIN_10;
 800081e:	f44f 63c0 	mov.w	r3, #1536	; 0x600
 8000822:	617b      	str	r3, [r7, #20]
    GPIO_InitStruct.Mode = GPIO_MODE_AF_PP;
 8000824:	2302      	movs	r3, #2
 8000826:	61bb      	str	r3, [r7, #24]
    GPIO_InitStruct.Pull = GPIO_NOPULL;
 8000828:	2300      	movs	r3, #0
 800082a:	61fb      	str	r3, [r7, #28]
    GPIO_InitStruct.Speed = GPIO_SPEED_FREQ_VERY_HIGH;
 800082c:	2303      	movs	r3, #3
 800082e:	623b      	str	r3, [r7, #32]
    GPIO_InitStruct.Alternate = GPIO_AF7_USART1;
 8000830:	2307      	movs	r3, #7
 8000832:	627b      	str	r3, [r7, #36]	; 0x24
    HAL_GPIO_Init(GPIOA, &GPIO_InitStruct);
 8000834:	f107 0314 	add.w	r3, r7, #20
 8000838:	4619      	mov	r1, r3
 800083a:	4809      	ldr	r0, [pc, #36]	; (8000860 <HAL_UART_MspInit+0x9c>)
 800083c:	f000 fb4c 	bl	8000ed8 <HAL_GPIO_Init>

    /* USART1 interrupt Init */
    HAL_NVIC_SetPriority(USART1_IRQn, 3, 0);
 8000840:	2200      	movs	r2, #0
 8000842:	2103      	movs	r1, #3
 8000844:	2025      	movs	r0, #37	; 0x25
 8000846:	f000 fa7e 	bl	8000d46 <HAL_NVIC_SetPriority>
    HAL_NVIC_EnableIRQ(USART1_IRQn);
 800084a:	2025      	movs	r0, #37	; 0x25
 800084c:	f000 fa97 	bl	8000d7e <HAL_NVIC_EnableIRQ>
  /* USER CODE BEGIN USART1_MspInit 1 */

  /* USER CODE END USART1_MspInit 1 */
  }

}
 8000850:	bf00      	nop
 8000852:	3728      	adds	r7, #40	; 0x28
 8000854:	46bd      	mov	sp, r7
 8000856:	bd80      	pop	{r7, pc}
 8000858:	40011000 	.word	0x40011000
 800085c:	40023800 	.word	0x40023800
 8000860:	40020000 	.word	0x40020000

08000864 <NMI_Handler>:
/******************************************************************************/
/**
  * @brief This function handles Non maskable interrupt.
  */
void NMI_Handler(void)
{
 8000864:	b480      	push	{r7}
 8000866:	af00      	add	r7, sp, #0
  /* USER CODE BEGIN NonMaskableInt_IRQn 0 */

  /* USER CODE END NonMaskableInt_IRQn 0 */
  /* USER CODE BEGIN NonMaskableInt_IRQn 1 */
  while (1)
 8000868:	e7fe      	b.n	8000868 <NMI_Handler+0x4>

0800086a <HardFault_Handler>:

/**
  * @brief This function handles Hard fault interrupt.
  */
void HardFault_Handler(void)
{
 800086a:	b480      	push	{r7}
 800086c:	af00      	add	r7, sp, #0
  /* USER CODE BEGIN HardFault_IRQn 0 */

  /* USER CODE END HardFault_IRQn 0 */
  while (1)
 800086e:	e7fe      	b.n	800086e <HardFault_Handler+0x4>

08000870 <MemManage_Handler>:

/**
  * @brief This function handles Memory management fault.
  */
void MemManage_Handler(void)
{
 8000870:	b480      	push	{r7}
 8000872:	af00      	add	r7, sp, #0
  /* USER CODE BEGIN MemoryManagement_IRQn 0 */

  /* USER CODE END MemoryManagement_IRQn 0 */
  while (1)
 8000874:	e7fe      	b.n	8000874 <MemManage_Handler+0x4>

08000876 <BusFault_Handler>:

/**
  * @brief This function handles Pre-fetch fault, memory access fault.
  */
void BusFault_Handler(void)
{
 8000876:	b480      	push	{r7}
 8000878:	af00      	add	r7, sp, #0
  /* USER CODE BEGIN BusFault_IRQn 0 */

  /* USER CODE END BusFault_IRQn 0 */
  while (1)
 800087a:	e7fe      	b.n	800087a <BusFault_Handler+0x4>

0800087c <UsageFault_Handler>:

/**
  * @brief This function handles Undefined instruction or illegal state.
  */
void UsageFault_Handler(void)
{
 800087c:	b480      	push	{r7}
 800087e:	af00      	add	r7, sp, #0
  /* USER CODE BEGIN UsageFault_IRQn 0 */

  /* USER CODE END UsageFault_IRQn 0 */
  while (1)
 8000880:	e7fe      	b.n	8000880 <UsageFault_Handler+0x4>

08000882 <SVC_Handler>:

/**
  * @brief This function handles System service call via SWI instruction.
  */
void SVC_Handler(void)
{
 8000882:	b480      	push	{r7}
 8000884:	af00      	add	r7, sp, #0

  /* USER CODE END SVCall_IRQn 0 */
  /* USER CODE BEGIN SVCall_IRQn 1 */

  /* USER CODE END SVCall_IRQn 1 */
}
 8000886:	bf00      	nop
 8000888:	46bd      	mov	sp, r7
 800088a:	f85d 7b04 	ldr.w	r7, [sp], #4
 800088e:	4770      	bx	lr

08000890 <DebugMon_Handler>:

/**
  * @brief This function handles Debug monitor.
  */
void DebugMon_Handler(void)
{
 8000890:	b480      	push	{r7}
 8000892:	af00      	add	r7, sp, #0

  /* USER CODE END DebugMonitor_IRQn 0 */
  /* USER CODE BEGIN DebugMonitor_IRQn 1 */

  /* USER CODE END DebugMonitor_IRQn 1 */
}
 8000894:	bf00      	nop
 8000896:	46bd      	mov	sp, r7
 8000898:	f85d 7b04 	ldr.w	r7, [sp], #4
 800089c:	4770      	bx	lr

0800089e <PendSV_Handler>:

/**
  * @brief This function handles Pendable request for system service.
  */
void PendSV_Handler(void)
{
 800089e:	b480      	push	{r7}
 80008a0:	af00      	add	r7, sp, #0

  /* USER CODE END PendSV_IRQn 0 */
  /* USER CODE BEGIN PendSV_IRQn 1 */

  /* USER CODE END PendSV_IRQn 1 */
}
 80008a2:	bf00      	nop
 80008a4:	46bd      	mov	sp, r7
 80008a6:	f85d 7b04 	ldr.w	r7, [sp], #4
 80008aa:	4770      	bx	lr

080008ac <SysTick_Handler>:

/**
  * @brief This function handles System tick timer.
  */
void SysTick_Handler(void)
{
 80008ac:	b580      	push	{r7, lr}
 80008ae:	af00      	add	r7, sp, #0
  /* USER CODE BEGIN SysTick_IRQn 0 */

  /* USER CODE END SysTick_IRQn 0 */
  HAL_IncTick();
 80008b0:	f000 f92a 	bl	8000b08 <HAL_IncTick>
  /* USER CODE BEGIN SysTick_IRQn 1 */

  /* USER CODE END SysTick_IRQn 1 */
}
 80008b4:	bf00      	nop
 80008b6:	bd80      	pop	{r7, pc}

080008b8 <EXTI0_IRQHandler>:

/**
  * @brief This function handles EXTI line0 interrupt.
  */
void EXTI0_IRQHandler(void)
{
 80008b8:	b580      	push	{r7, lr}
 80008ba:	af00      	add	r7, sp, #0
  /* USER CODE BEGIN EXTI0_IRQn 0 */

  /* USER CODE END EXTI0_IRQn 0 */
  HAL_GPIO_EXTI_IRQHandler(USER_BUTTON_Pin);
 80008bc:	2001      	movs	r0, #1
 80008be:	f000 fcd1 	bl	8001264 <HAL_GPIO_EXTI_IRQHandler>
  /* USER CODE BEGIN EXTI0_IRQn 1 */

  /* USER CODE END EXTI0_IRQn 1 */
}
 80008c2:	bf00      	nop
 80008c4:	bd80      	pop	{r7, pc}
	...

080008c8 <USART1_IRQHandler>:

/**
  * @brief This function handles USART1 global interrupt.
  */
void USART1_IRQHandler(void)
{
 80008c8:	b580      	push	{r7, lr}
 80008ca:	af00      	add	r7, sp, #0
  /* USER CODE BEGIN USART1_IRQn 0 */

  /* USER CODE END USART1_IRQn 0 */
  HAL_UART_IRQHandler(&huart1);
 80008cc:	4802      	ldr	r0, [pc, #8]	; (80008d8 <USART1_IRQHandler+0x10>)
 80008ce:	f001 fa65 	bl	8001d9c <HAL_UART_IRQHandler>
  /* USER CODE BEGIN USART1_IRQn 1 */

  /* USER CODE END USART1_IRQn 1 */
}
 80008d2:	bf00      	nop
 80008d4:	bd80      	pop	{r7, pc}
 80008d6:	bf00      	nop
 80008d8:	2000008c 	.word	0x2000008c

080008dc <_read>:
	_kill(status, -1);
	while (1) {}		/* Make sure we hang here */
}

__attribute__((weak)) int _read(int file, char *ptr, int len)
{
 80008dc:	b580      	push	{r7, lr}
 80008de:	b086      	sub	sp, #24
 80008e0:	af00      	add	r7, sp, #0
 80008e2:	60f8      	str	r0, [r7, #12]
 80008e4:	60b9      	str	r1, [r7, #8]
 80008e6:	607a      	str	r2, [r7, #4]
	int DataIdx;

	for (DataIdx = 0; DataIdx < len; DataIdx++)
 80008e8:	2300      	movs	r3, #0
 80008ea:	617b      	str	r3, [r7, #20]
 80008ec:	e00a      	b.n	8000904 <_read+0x28>
	{
		*ptr++ = __io_getchar();
 80008ee:	f3af 8000 	nop.w
 80008f2:	4601      	mov	r1, r0
 80008f4:	68bb      	ldr	r3, [r7, #8]
 80008f6:	1c5a      	adds	r2, r3, #1
 80008f8:	60ba      	str	r2, [r7, #8]
 80008fa:	b2ca      	uxtb	r2, r1
 80008fc:	701a      	strb	r2, [r3, #0]
	for (DataIdx = 0; DataIdx < len; DataIdx++)
 80008fe:	697b      	ldr	r3, [r7, #20]
 8000900:	3301      	adds	r3, #1
 8000902:	617b      	str	r3, [r7, #20]
 8000904:	697a      	ldr	r2, [r7, #20]
 8000906:	687b      	ldr	r3, [r7, #4]
 8000908:	429a      	cmp	r2, r3
 800090a:	dbf0      	blt.n	80008ee <_read+0x12>
	}

return len;
 800090c:	687b      	ldr	r3, [r7, #4]
}
 800090e:	4618      	mov	r0, r3
 8000910:	3718      	adds	r7, #24
 8000912:	46bd      	mov	sp, r7
 8000914:	bd80      	pop	{r7, pc}

08000916 <_close>:
	}
	return len;
}

int _close(int file)
{
 8000916:	b480      	push	{r7}
 8000918:	b083      	sub	sp, #12
 800091a:	af00      	add	r7, sp, #0
 800091c:	6078      	str	r0, [r7, #4]
	return -1;
 800091e:	f04f 33ff 	mov.w	r3, #4294967295
}
 8000922:	4618      	mov	r0, r3
 8000924:	370c      	adds	r7, #12
 8000926:	46bd      	mov	sp, r7
 8000928:	f85d 7b04 	ldr.w	r7, [sp], #4
 800092c:	4770      	bx	lr

0800092e <_fstat>:


int _fstat(int file, struct stat *st)
{
 800092e:	b480      	push	{r7}
 8000930:	b083      	sub	sp, #12
 8000932:	af00      	add	r7, sp, #0
 8000934:	6078      	str	r0, [r7, #4]
 8000936:	6039      	str	r1, [r7, #0]
	st->st_mode = S_IFCHR;
 8000938:	683b      	ldr	r3, [r7, #0]
 800093a:	f44f 5200 	mov.w	r2, #8192	; 0x2000
 800093e:	605a      	str	r2, [r3, #4]
	return 0;
 8000940:	2300      	movs	r3, #0
}
 8000942:	4618      	mov	r0, r3
 8000944:	370c      	adds	r7, #12
 8000946:	46bd      	mov	sp, r7
 8000948:	f85d 7b04 	ldr.w	r7, [sp], #4
 800094c:	4770      	bx	lr

0800094e <_isatty>:

int _isatty(int file)
{
 800094e:	b480      	push	{r7}
 8000950:	b083      	sub	sp, #12
 8000952:	af00      	add	r7, sp, #0
 8000954:	6078      	str	r0, [r7, #4]
	return 1;
 8000956:	2301      	movs	r3, #1
}
 8000958:	4618      	mov	r0, r3
 800095a:	370c      	adds	r7, #12
 800095c:	46bd      	mov	sp, r7
 800095e:	f85d 7b04 	ldr.w	r7, [sp], #4
 8000962:	4770      	bx	lr

08000964 <_lseek>:

int _lseek(int file, int ptr, int dir)
{
 8000964:	b480      	push	{r7}
 8000966:	b085      	sub	sp, #20
 8000968:	af00      	add	r7, sp, #0
 800096a:	60f8      	str	r0, [r7, #12]
 800096c:	60b9      	str	r1, [r7, #8]
 800096e:	607a      	str	r2, [r7, #4]
	return 0;
 8000970:	2300      	movs	r3, #0
}
 8000972:	4618      	mov	r0, r3
 8000974:	3714      	adds	r7, #20
 8000976:	46bd      	mov	sp, r7
 8000978:	f85d 7b04 	ldr.w	r7, [sp], #4
 800097c:	4770      	bx	lr
	...

08000980 <_sbrk>:
 *
 * @param incr Memory size
 * @return Pointer to allocated memory
 */
void *_sbrk(ptrdiff_t incr)
{
 8000980:	b580      	push	{r7, lr}
 8000982:	b086      	sub	sp, #24
 8000984:	af00      	add	r7, sp, #0
 8000986:	6078      	str	r0, [r7, #4]
  extern uint8_t _end; /* Symbol defined in the linker script */
  extern uint8_t _estack; /* Symbol defined in the linker script */
  extern uint32_t _Min_Stack_Size; /* Symbol defined in the linker script */
  const uint32_t stack_limit = (uint32_t)&_estack - (uint32_t)&_Min_Stack_Size;
 8000988:	4a14      	ldr	r2, [pc, #80]	; (80009dc <_sbrk+0x5c>)
 800098a:	4b15      	ldr	r3, [pc, #84]	; (80009e0 <_sbrk+0x60>)
 800098c:	1ad3      	subs	r3, r2, r3
 800098e:	617b      	str	r3, [r7, #20]
  const uint8_t *max_heap = (uint8_t *)stack_limit;
 8000990:	697b      	ldr	r3, [r7, #20]
 8000992:	613b      	str	r3, [r7, #16]
  uint8_t *prev_heap_end;

  /* Initialize heap end at first call */
  if (NULL == __sbrk_heap_end)
 8000994:	4b13      	ldr	r3, [pc, #76]	; (80009e4 <_sbrk+0x64>)
 8000996:	681b      	ldr	r3, [r3, #0]
 8000998:	2b00      	cmp	r3, #0
 800099a:	d102      	bne.n	80009a2 <_sbrk+0x22>
  {
    __sbrk_heap_end = &_end;
 800099c:	4b11      	ldr	r3, [pc, #68]	; (80009e4 <_sbrk+0x64>)
 800099e:	4a12      	ldr	r2, [pc, #72]	; (80009e8 <_sbrk+0x68>)
 80009a0:	601a      	str	r2, [r3, #0]
  }

  /* Protect heap from growing into the reserved MSP stack */
  if (__sbrk_heap_end + incr > max_heap)
 80009a2:	4b10      	ldr	r3, [pc, #64]	; (80009e4 <_sbrk+0x64>)
 80009a4:	681a      	ldr	r2, [r3, #0]
 80009a6:	687b      	ldr	r3, [r7, #4]
 80009a8:	4413      	add	r3, r2
 80009aa:	693a      	ldr	r2, [r7, #16]
 80009ac:	429a      	cmp	r2, r3
 80009ae:	d207      	bcs.n	80009c0 <_sbrk+0x40>
  {
    errno = ENOMEM;
 80009b0:	f002 f928 	bl	8002c04 <__errno>
 80009b4:	4603      	mov	r3, r0
 80009b6:	220c      	movs	r2, #12
 80009b8:	601a      	str	r2, [r3, #0]
    return (void *)-1;
 80009ba:	f04f 33ff 	mov.w	r3, #4294967295
 80009be:	e009      	b.n	80009d4 <_sbrk+0x54>
  }

  prev_heap_end = __sbrk_heap_end;
 80009c0:	4b08      	ldr	r3, [pc, #32]	; (80009e4 <_sbrk+0x64>)
 80009c2:	681b      	ldr	r3, [r3, #0]
 80009c4:	60fb      	str	r3, [r7, #12]
  __sbrk_heap_end += incr;
 80009c6:	4b07      	ldr	r3, [pc, #28]	; (80009e4 <_sbrk+0x64>)
 80009c8:	681a      	ldr	r2, [r3, #0]
 80009ca:	687b      	ldr	r3, [r7, #4]
 80009cc:	4413      	add	r3, r2
 80009ce:	4a05      	ldr	r2, [pc, #20]	; (80009e4 <_sbrk+0x64>)
 80009d0:	6013      	str	r3, [r2, #0]

  return (void *)prev_heap_end;
 80009d2:	68fb      	ldr	r3, [r7, #12]
}
 80009d4:	4618      	mov	r0, r3
 80009d6:	3718      	adds	r7, #24
 80009d8:	46bd      	mov	sp, r7
 80009da:	bd80      	pop	{r7, pc}
 80009dc:	20030000 	.word	0x20030000
 80009e0:	00000400 	.word	0x00000400
 80009e4:	200000d0 	.word	0x200000d0
 80009e8:	200000e8 	.word	0x200000e8

080009ec <SystemInit>:
  *         configuration.
  * @param  None
  * @retval None
  */
void SystemInit(void)
{
 80009ec:	b480      	push	{r7}
 80009ee:	af00      	add	r7, sp, #0
  /* FPU settings ------------------------------------------------------------*/
  #if (__FPU_PRESENT == 1) && (__FPU_USED == 1)
    SCB->CPACR |= ((3UL << 10*2)|(3UL << 11*2));  /* set CP10 and CP11 Full Access */
 80009f0:	4b06      	ldr	r3, [pc, #24]	; (8000a0c <SystemInit+0x20>)
 80009f2:	f8d3 3088 	ldr.w	r3, [r3, #136]	; 0x88
 80009f6:	4a05      	ldr	r2, [pc, #20]	; (8000a0c <SystemInit+0x20>)
 80009f8:	f443 0370 	orr.w	r3, r3, #15728640	; 0xf00000
 80009fc:	f8c2 3088 	str.w	r3, [r2, #136]	; 0x88

  /* Configure the Vector Table location -------------------------------------*/
#if defined(USER_VECT_TAB_ADDRESS)
  SCB->VTOR = VECT_TAB_BASE_ADDRESS | VECT_TAB_OFFSET; /* Vector Table Relocation in Internal SRAM */
#endif /* USER_VECT_TAB_ADDRESS */
}
 8000a00:	bf00      	nop
 8000a02:	46bd      	mov	sp, r7
 8000a04:	f85d 7b04 	ldr.w	r7, [sp], #4
 8000a08:	4770      	bx	lr
 8000a0a:	bf00      	nop
 8000a0c:	e000ed00 	.word	0xe000ed00

08000a10 <Reset_Handler>:

    .section  .text.Reset_Handler
  .weak  Reset_Handler
  .type  Reset_Handler, %function
Reset_Handler: 
  ldr   sp, =_estack       /* set stack pointer */
 8000a10:	f8df d034 	ldr.w	sp, [pc, #52]	; 8000a48 <LoopFillZerobss+0x12>
 
/* Copy the data segment initializers from flash to SRAM */  
  ldr r0, =_sdata
 8000a14:	480d      	ldr	r0, [pc, #52]	; (8000a4c <LoopFillZerobss+0x16>)
  ldr r1, =_edata
 8000a16:	490e      	ldr	r1, [pc, #56]	; (8000a50 <LoopFillZerobss+0x1a>)
  ldr r2, =_sidata
 8000a18:	4a0e      	ldr	r2, [pc, #56]	; (8000a54 <LoopFillZerobss+0x1e>)
  movs r3, #0
 8000a1a:	2300      	movs	r3, #0
  b LoopCopyDataInit
 8000a1c:	e002      	b.n	8000a24 <LoopCopyDataInit>

08000a1e <CopyDataInit>:

CopyDataInit:
  ldr r4, [r2, r3]
 8000a1e:	58d4      	ldr	r4, [r2, r3]
  str r4, [r0, r3]
 8000a20:	50c4      	str	r4, [r0, r3]
  adds r3, r3, #4
 8000a22:	3304      	adds	r3, #4

08000a24 <LoopCopyDataInit>:

LoopCopyDataInit:
  adds r4, r0, r3
 8000a24:	18c4      	adds	r4, r0, r3
  cmp r4, r1
 8000a26:	428c      	cmp	r4, r1
  bcc CopyDataInit
 8000a28:	d3f9      	bcc.n	8000a1e <CopyDataInit>
  
/* Zero fill the bss segment. */
  ldr r2, =_sbss
 8000a2a:	4a0b      	ldr	r2, [pc, #44]	; (8000a58 <LoopFillZerobss+0x22>)
  ldr r4, =_ebss
 8000a2c:	4c0b      	ldr	r4, [pc, #44]	; (8000a5c <LoopFillZerobss+0x26>)
  movs r3, #0
 8000a2e:	2300      	movs	r3, #0
  b LoopFillZerobss
 8000a30:	e001      	b.n	8000a36 <LoopFillZerobss>

08000a32 <FillZerobss>:

FillZerobss:
  str  r3, [r2]
 8000a32:	6013      	str	r3, [r2, #0]
  adds r2, r2, #4
 8000a34:	3204      	adds	r2, #4

08000a36 <LoopFillZerobss>:

LoopFillZerobss:
  cmp r2, r4
 8000a36:	42a2      	cmp	r2, r4
  bcc FillZerobss
 8000a38:	d3fb      	bcc.n	8000a32 <FillZerobss>

/* Call the clock system initialization function.*/
  bl  SystemInit   
 8000a3a:	f7ff ffd7 	bl	80009ec <SystemInit>
/* Call static constructors */
    bl __libc_init_array
 8000a3e:	f002 f8e7 	bl	8002c10 <__libc_init_array>
/* Call the application's entry point.*/
  bl  main
 8000a42:	f7ff fd69 	bl	8000518 <main>
  bx  lr    
 8000a46:	4770      	bx	lr
  ldr   sp, =_estack       /* set stack pointer */
 8000a48:	20030000 	.word	0x20030000
  ldr r0, =_sdata
 8000a4c:	20000000 	.word	0x20000000
  ldr r1, =_edata
 8000a50:	20000070 	.word	0x20000070
  ldr r2, =_sidata
 8000a54:	08003718 	.word	0x08003718
  ldr r2, =_sbss
 8000a58:	20000070 	.word	0x20000070
  ldr r4, =_ebss
 8000a5c:	200000e8 	.word	0x200000e8

08000a60 <ADC_IRQHandler>:
 * @retval None       
*/
    .section  .text.Default_Handler,"ax",%progbits
Default_Handler:
Infinite_Loop:
  b  Infinite_Loop
 8000a60:	e7fe      	b.n	8000a60 <ADC_IRQHandler>
	...

08000a64 <HAL_Init>:
  *         need to ensure that the SysTick time base is always set to 1 millisecond
  *         to have correct HAL operation.
  * @retval HAL status
  */
HAL_StatusTypeDef HAL_Init(void)
{
 8000a64:	b580      	push	{r7, lr}
 8000a66:	af00      	add	r7, sp, #0
  /* Configure Flash prefetch, Instruction cache, Data cache */ 
#if (INSTRUCTION_CACHE_ENABLE != 0U)
  __HAL_FLASH_INSTRUCTION_CACHE_ENABLE();
 8000a68:	4b0e      	ldr	r3, [pc, #56]	; (8000aa4 <HAL_Init+0x40>)
 8000a6a:	681b      	ldr	r3, [r3, #0]
 8000a6c:	4a0d      	ldr	r2, [pc, #52]	; (8000aa4 <HAL_Init+0x40>)
 8000a6e:	f443 7300 	orr.w	r3, r3, #512	; 0x200
 8000a72:	6013      	str	r3, [r2, #0]
#endif /* INSTRUCTION_CACHE_ENABLE */

#if (DATA_CACHE_ENABLE != 0U)
  __HAL_FLASH_DATA_CACHE_ENABLE();
 8000a74:	4b0b      	ldr	r3, [pc, #44]	; (8000aa4 <HAL_Init+0x40>)
 8000a76:	681b      	ldr	r3, [r3, #0]
 8000a78:	4a0a      	ldr	r2, [pc, #40]	; (8000aa4 <HAL_Init+0x40>)
 8000a7a:	f443 6380 	orr.w	r3, r3, #1024	; 0x400
 8000a7e:	6013      	str	r3, [r2, #0]
#endif /* DATA_CACHE_ENABLE */

#if (PREFETCH_ENABLE != 0U)
  __HAL_FLASH_PREFETCH_BUFFER_ENABLE();
 8000a80:	4b08      	ldr	r3, [pc, #32]	; (8000aa4 <HAL_Init+0x40>)
 8000a82:	681b      	ldr	r3, [r3, #0]
 8000a84:	4a07      	ldr	r2, [pc, #28]	; (8000aa4 <HAL_Init+0x40>)
 8000a86:	f443 7380 	orr.w	r3, r3, #256	; 0x100
 8000a8a:	6013      	str	r3, [r2, #0]
#endif /* PREFETCH_ENABLE */

  /* Set Interrupt Group Priority */
  HAL_NVIC_SetPriorityGrouping(NVIC_PRIORITYGROUP_4);
 8000a8c:	2003      	movs	r0, #3
 8000a8e:	f000 f94f 	bl	8000d30 <HAL_NVIC_SetPriorityGrouping>

  /* Use systick as time base source and configure 1ms tick (default clock after Reset is HSI) */
  HAL_InitTick(TICK_INT_PRIORITY);
 8000a92:	2000      	movs	r0, #0
 8000a94:	f000 f808 	bl	8000aa8 <HAL_InitTick>

  /* Init the low level hardware */
  HAL_MspInit();
 8000a98:	f7ff fe6c 	bl	8000774 <HAL_MspInit>

  /* Return function status */
  return HAL_OK;
 8000a9c:	2300      	movs	r3, #0
}
 8000a9e:	4618      	mov	r0, r3
 8000aa0:	bd80      	pop	{r7, pc}
 8000aa2:	bf00      	nop
 8000aa4:	40023c00 	.word	0x40023c00

08000aa8 <HAL_InitTick>:
  *       implementation  in user file.
  * @param TickPriority Tick interrupt priority.
  * @retval HAL status
  */
__weak HAL_StatusTypeDef HAL_InitTick(uint32_t TickPriority)
{
 8000aa8:	b580      	push	{r7, lr}
 8000aaa:	b082      	sub	sp, #8
 8000aac:	af00      	add	r7, sp, #0
 8000aae:	6078      	str	r0, [r7, #4]
  /* Configure the SysTick to have interrupt in 1ms time basis*/
  if (HAL_SYSTICK_Config(SystemCoreClock / (1000U / uwTickFreq)) > 0U)
 8000ab0:	4b12      	ldr	r3, [pc, #72]	; (8000afc <HAL_InitTick+0x54>)
 8000ab2:	681a      	ldr	r2, [r3, #0]
 8000ab4:	4b12      	ldr	r3, [pc, #72]	; (8000b00 <HAL_InitTick+0x58>)
 8000ab6:	781b      	ldrb	r3, [r3, #0]
 8000ab8:	4619      	mov	r1, r3
 8000aba:	f44f 737a 	mov.w	r3, #1000	; 0x3e8
 8000abe:	fbb3 f3f1 	udiv	r3, r3, r1
 8000ac2:	fbb2 f3f3 	udiv	r3, r2, r3
 8000ac6:	4618      	mov	r0, r3
 8000ac8:	f000 f967 	bl	8000d9a <HAL_SYSTICK_Config>
 8000acc:	4603      	mov	r3, r0
 8000ace:	2b00      	cmp	r3, #0
 8000ad0:	d001      	beq.n	8000ad6 <HAL_InitTick+0x2e>
  {
    return HAL_ERROR;
 8000ad2:	2301      	movs	r3, #1
 8000ad4:	e00e      	b.n	8000af4 <HAL_InitTick+0x4c>
  }

  /* Configure the SysTick IRQ priority */
  if (TickPriority < (1UL << __NVIC_PRIO_BITS))
 8000ad6:	687b      	ldr	r3, [r7, #4]
 8000ad8:	2b0f      	cmp	r3, #15
 8000ada:	d80a      	bhi.n	8000af2 <HAL_InitTick+0x4a>
  {
    HAL_NVIC_SetPriority(SysTick_IRQn, TickPriority, 0U);
 8000adc:	2200      	movs	r2, #0
 8000ade:	6879      	ldr	r1, [r7, #4]
 8000ae0:	f04f 30ff 	mov.w	r0, #4294967295
 8000ae4:	f000 f92f 	bl	8000d46 <HAL_NVIC_SetPriority>
    uwTickPrio = TickPriority;
 8000ae8:	4a06      	ldr	r2, [pc, #24]	; (8000b04 <HAL_InitTick+0x5c>)
 8000aea:	687b      	ldr	r3, [r7, #4]
 8000aec:	6013      	str	r3, [r2, #0]
  {
    return HAL_ERROR;
  }

  /* Return function status */
  return HAL_OK;
 8000aee:	2300      	movs	r3, #0
 8000af0:	e000      	b.n	8000af4 <HAL_InitTick+0x4c>
    return HAL_ERROR;
 8000af2:	2301      	movs	r3, #1
}
 8000af4:	4618      	mov	r0, r3
 8000af6:	3708      	adds	r7, #8
 8000af8:	46bd      	mov	sp, r7
 8000afa:	bd80      	pop	{r7, pc}
 8000afc:	20000000 	.word	0x20000000
 8000b00:	20000008 	.word	0x20000008
 8000b04:	20000004 	.word	0x20000004

08000b08 <HAL_IncTick>:
 * @note This function is declared as __weak to be overwritten in case of other 
  *      implementations in user file.
  * @retval None
  */
__weak void HAL_IncTick(void)
{
 8000b08:	b480      	push	{r7}
 8000b0a:	af00      	add	r7, sp, #0
  uwTick += uwTickFreq;
 8000b0c:	4b06      	ldr	r3, [pc, #24]	; (8000b28 <HAL_IncTick+0x20>)
 8000b0e:	781b      	ldrb	r3, [r3, #0]
 8000b10:	461a      	mov	r2, r3
 8000b12:	4b06      	ldr	r3, [pc, #24]	; (8000b2c <HAL_IncTick+0x24>)
 8000b14:	681b      	ldr	r3, [r3, #0]
 8000b16:	4413      	add	r3, r2
 8000b18:	4a04      	ldr	r2, [pc, #16]	; (8000b2c <HAL_IncTick+0x24>)
 8000b1a:	6013      	str	r3, [r2, #0]
}
 8000b1c:	bf00      	nop
 8000b1e:	46bd      	mov	sp, r7
 8000b20:	f85d 7b04 	ldr.w	r7, [sp], #4
 8000b24:	4770      	bx	lr
 8000b26:	bf00      	nop
 8000b28:	20000008 	.word	0x20000008
 8000b2c:	200000d4 	.word	0x200000d4

08000b30 <HAL_GetTick>:
  * @note This function is declared as __weak to be overwritten in case of other 
  *       implementations in user file.
  * @retval tick value
  */
__weak uint32_t HAL_GetTick(void)
{
 8000b30:	b480      	push	{r7}
 8000b32:	af00      	add	r7, sp, #0
  return uwTick;
 8000b34:	4b03      	ldr	r3, [pc, #12]	; (8000b44 <HAL_GetTick+0x14>)
 8000b36:	681b      	ldr	r3, [r3, #0]
}
 8000b38:	4618      	mov	r0, r3
 8000b3a:	46bd      	mov	sp, r7
 8000b3c:	f85d 7b04 	ldr.w	r7, [sp], #4
 8000b40:	4770      	bx	lr
 8000b42:	bf00      	nop
 8000b44:	200000d4 	.word	0x200000d4

08000b48 <HAL_Delay>:
  *       implementations in user file.
  * @param Delay specifies the delay time length, in milliseconds.
  * @retval None
  */
__weak void HAL_Delay(uint32_t Delay)
{
 8000b48:	b580      	push	{r7, lr}
 8000b4a:	b084      	sub	sp, #16
 8000b4c:	af00      	add	r7, sp, #0
 8000b4e:	6078      	str	r0, [r7, #4]
  uint32_t tickstart = HAL_GetTick();
 8000b50:	f7ff ffee 	bl	8000b30 <HAL_GetTick>
 8000b54:	60b8      	str	r0, [r7, #8]
  uint32_t wait = Delay;
 8000b56:	687b      	ldr	r3, [r7, #4]
 8000b58:	60fb      	str	r3, [r7, #12]

  /* Add a freq to guarantee minimum wait */
  if (wait < HAL_MAX_DELAY)
 8000b5a:	68fb      	ldr	r3, [r7, #12]
 8000b5c:	f1b3 3fff 	cmp.w	r3, #4294967295
 8000b60:	d005      	beq.n	8000b6e <HAL_Delay+0x26>
  {
    wait += (uint32_t)(uwTickFreq);
 8000b62:	4b0a      	ldr	r3, [pc, #40]	; (8000b8c <HAL_Delay+0x44>)
 8000b64:	781b      	ldrb	r3, [r3, #0]
 8000b66:	461a      	mov	r2, r3
 8000b68:	68fb      	ldr	r3, [r7, #12]
 8000b6a:	4413      	add	r3, r2
 8000b6c:	60fb      	str	r3, [r7, #12]
  }

  while((HAL_GetTick() - tickstart) < wait)
 8000b6e:	bf00      	nop
 8000b70:	f7ff ffde 	bl	8000b30 <HAL_GetTick>
 8000b74:	4602      	mov	r2, r0
 8000b76:	68bb      	ldr	r3, [r7, #8]
 8000b78:	1ad3      	subs	r3, r2, r3
 8000b7a:	68fa      	ldr	r2, [r7, #12]
 8000b7c:	429a      	cmp	r2, r3
 8000b7e:	d8f7      	bhi.n	8000b70 <HAL_Delay+0x28>
  {
  }
}
 8000b80:	bf00      	nop
 8000b82:	bf00      	nop
 8000b84:	3710      	adds	r7, #16
 8000b86:	46bd      	mov	sp, r7
 8000b88:	bd80      	pop	{r7, pc}
 8000b8a:	bf00      	nop
 8000b8c:	20000008 	.word	0x20000008

08000b90 <__NVIC_SetPriorityGrouping>:
           In case of a conflict between priority grouping and available
           priority bits (__NVIC_PRIO_BITS), the smallest possible priority group is set.
  \param [in]      PriorityGroup  Priority grouping field.
 */
__STATIC_INLINE void __NVIC_SetPriorityGrouping(uint32_t PriorityGroup)
{
 8000b90:	b480      	push	{r7}
 8000b92:	b085      	sub	sp, #20
 8000b94:	af00      	add	r7, sp, #0
 8000b96:	6078      	str	r0, [r7, #4]
  uint32_t reg_value;
  uint32_t PriorityGroupTmp = (PriorityGroup & (uint32_t)0x07UL);             /* only values 0..7 are used          */
 8000b98:	687b      	ldr	r3, [r7, #4]
 8000b9a:	f003 0307 	and.w	r3, r3, #7
 8000b9e:	60fb      	str	r3, [r7, #12]

  reg_value  =  SCB->AIRCR;                                                   /* read old register configuration    */
 8000ba0:	4b0c      	ldr	r3, [pc, #48]	; (8000bd4 <__NVIC_SetPriorityGrouping+0x44>)
 8000ba2:	68db      	ldr	r3, [r3, #12]
 8000ba4:	60bb      	str	r3, [r7, #8]
  reg_value &= ~((uint32_t)(SCB_AIRCR_VECTKEY_Msk | SCB_AIRCR_PRIGROUP_Msk)); /* clear bits to change               */
 8000ba6:	68ba      	ldr	r2, [r7, #8]
 8000ba8:	f64f 03ff 	movw	r3, #63743	; 0xf8ff
 8000bac:	4013      	ands	r3, r2
 8000bae:	60bb      	str	r3, [r7, #8]
  reg_value  =  (reg_value                                   |
                ((uint32_t)0x5FAUL << SCB_AIRCR_VECTKEY_Pos) |
                (PriorityGroupTmp << SCB_AIRCR_PRIGROUP_Pos)  );              /* Insert write key and priority group */
 8000bb0:	68fb      	ldr	r3, [r7, #12]
 8000bb2:	021a      	lsls	r2, r3, #8
                ((uint32_t)0x5FAUL << SCB_AIRCR_VECTKEY_Pos) |
 8000bb4:	68bb      	ldr	r3, [r7, #8]
 8000bb6:	4313      	orrs	r3, r2
  reg_value  =  (reg_value                                   |
 8000bb8:	f043 63bf 	orr.w	r3, r3, #100139008	; 0x5f80000
 8000bbc:	f443 3300 	orr.w	r3, r3, #131072	; 0x20000
 8000bc0:	60bb      	str	r3, [r7, #8]
  SCB->AIRCR =  reg_value;
 8000bc2:	4a04      	ldr	r2, [pc, #16]	; (8000bd4 <__NVIC_SetPriorityGrouping+0x44>)
 8000bc4:	68bb      	ldr	r3, [r7, #8]
 8000bc6:	60d3      	str	r3, [r2, #12]
}
 8000bc8:	bf00      	nop
 8000bca:	3714      	adds	r7, #20
 8000bcc:	46bd      	mov	sp, r7
 8000bce:	f85d 7b04 	ldr.w	r7, [sp], #4
 8000bd2:	4770      	bx	lr
 8000bd4:	e000ed00 	.word	0xe000ed00

08000bd8 <__NVIC_GetPriorityGrouping>:
  \brief   Get Priority Grouping
  \details Reads the priority grouping field from the NVIC Interrupt Controller.
  \return                Priority grouping field (SCB->AIRCR [10:8] PRIGROUP field).
 */
__STATIC_INLINE uint32_t __NVIC_GetPriorityGrouping(void)
{
 8000bd8:	b480      	push	{r7}
 8000bda:	af00      	add	r7, sp, #0
  return ((uint32_t)((SCB->AIRCR & SCB_AIRCR_PRIGROUP_Msk) >> SCB_AIRCR_PRIGROUP_Pos));
 8000bdc:	4b04      	ldr	r3, [pc, #16]	; (8000bf0 <__NVIC_GetPriorityGrouping+0x18>)
 8000bde:	68db      	ldr	r3, [r3, #12]
 8000be0:	0a1b      	lsrs	r3, r3, #8
 8000be2:	f003 0307 	and.w	r3, r3, #7
}
 8000be6:	4618      	mov	r0, r3
 8000be8:	46bd      	mov	sp, r7
 8000bea:	f85d 7b04 	ldr.w	r7, [sp], #4
 8000bee:	4770      	bx	lr
 8000bf0:	e000ed00 	.word	0xe000ed00

08000bf4 <__NVIC_EnableIRQ>:
  \details Enables a device specific interrupt in the NVIC interrupt controller.
  \param [in]      IRQn  Device specific interrupt number.
  \note    IRQn must not be negative.
 */
__STATIC_INLINE void __NVIC_EnableIRQ(IRQn_Type IRQn)
{
 8000bf4:	b480      	push	{r7}
 8000bf6:	b083      	sub	sp, #12
 8000bf8:	af00      	add	r7, sp, #0
 8000bfa:	4603      	mov	r3, r0
 8000bfc:	71fb      	strb	r3, [r7, #7]
  if ((int32_t)(IRQn) >= 0)
 8000bfe:	f997 3007 	ldrsb.w	r3, [r7, #7]
 8000c02:	2b00      	cmp	r3, #0
 8000c04:	db0b      	blt.n	8000c1e <__NVIC_EnableIRQ+0x2a>
  {
    NVIC->ISER[(((uint32_t)IRQn) >> 5UL)] = (uint32_t)(1UL << (((uint32_t)IRQn) & 0x1FUL));
 8000c06:	79fb      	ldrb	r3, [r7, #7]
 8000c08:	f003 021f 	and.w	r2, r3, #31
 8000c0c:	4907      	ldr	r1, [pc, #28]	; (8000c2c <__NVIC_EnableIRQ+0x38>)
 8000c0e:	f997 3007 	ldrsb.w	r3, [r7, #7]
 8000c12:	095b      	lsrs	r3, r3, #5
 8000c14:	2001      	movs	r0, #1
 8000c16:	fa00 f202 	lsl.w	r2, r0, r2
 8000c1a:	f841 2023 	str.w	r2, [r1, r3, lsl #2]
  }
}
 8000c1e:	bf00      	nop
 8000c20:	370c      	adds	r7, #12
 8000c22:	46bd      	mov	sp, r7
 8000c24:	f85d 7b04 	ldr.w	r7, [sp], #4
 8000c28:	4770      	bx	lr
 8000c2a:	bf00      	nop
 8000c2c:	e000e100 	.word	0xe000e100

08000c30 <__NVIC_SetPriority>:
  \param [in]      IRQn  Interrupt number.
  \param [in]  priority  Priority to set.
  \note    The priority cannot be set for every processor exception.
 */
__STATIC_INLINE void __NVIC_SetPriority(IRQn_Type IRQn, uint32_t priority)
{
 8000c30:	b480      	push	{r7}
 8000c32:	b083      	sub	sp, #12
 8000c34:	af00      	add	r7, sp, #0
 8000c36:	4603      	mov	r3, r0
 8000c38:	6039      	str	r1, [r7, #0]
 8000c3a:	71fb      	strb	r3, [r7, #7]
  if ((int32_t)(IRQn) >= 0)
 8000c3c:	f997 3007 	ldrsb.w	r3, [r7, #7]
 8000c40:	2b00      	cmp	r3, #0
 8000c42:	db0a      	blt.n	8000c5a <__NVIC_SetPriority+0x2a>
  {
    NVIC->IP[((uint32_t)IRQn)]               = (uint8_t)((priority << (8U - __NVIC_PRIO_BITS)) & (uint32_t)0xFFUL);
 8000c44:	683b      	ldr	r3, [r7, #0]
 8000c46:	b2da      	uxtb	r2, r3
 8000c48:	490c      	ldr	r1, [pc, #48]	; (8000c7c <__NVIC_SetPriority+0x4c>)
 8000c4a:	f997 3007 	ldrsb.w	r3, [r7, #7]
 8000c4e:	0112      	lsls	r2, r2, #4
 8000c50:	b2d2      	uxtb	r2, r2
 8000c52:	440b      	add	r3, r1
 8000c54:	f883 2300 	strb.w	r2, [r3, #768]	; 0x300
  }
  else
  {
    SCB->SHP[(((uint32_t)IRQn) & 0xFUL)-4UL] = (uint8_t)((priority << (8U - __NVIC_PRIO_BITS)) & (uint32_t)0xFFUL);
  }
}
 8000c58:	e00a      	b.n	8000c70 <__NVIC_SetPriority+0x40>
    SCB->SHP[(((uint32_t)IRQn) & 0xFUL)-4UL] = (uint8_t)((priority << (8U - __NVIC_PRIO_BITS)) & (uint32_t)0xFFUL);
 8000c5a:	683b      	ldr	r3, [r7, #0]
 8000c5c:	b2da      	uxtb	r2, r3
 8000c5e:	4908      	ldr	r1, [pc, #32]	; (8000c80 <__NVIC_SetPriority+0x50>)
 8000c60:	79fb      	ldrb	r3, [r7, #7]
 8000c62:	f003 030f 	and.w	r3, r3, #15
 8000c66:	3b04      	subs	r3, #4
 8000c68:	0112      	lsls	r2, r2, #4
 8000c6a:	b2d2      	uxtb	r2, r2
 8000c6c:	440b      	add	r3, r1
 8000c6e:	761a      	strb	r2, [r3, #24]
}
 8000c70:	bf00      	nop
 8000c72:	370c      	adds	r7, #12
 8000c74:	46bd      	mov	sp, r7
 8000c76:	f85d 7b04 	ldr.w	r7, [sp], #4
 8000c7a:	4770      	bx	lr
 8000c7c:	e000e100 	.word	0xe000e100
 8000c80:	e000ed00 	.word	0xe000ed00

08000c84 <NVIC_EncodePriority>:
  \param [in]   PreemptPriority  Preemptive priority value (starting from 0).
  \param [in]       SubPriority  Subpriority value (starting from 0).
  \return                        Encoded priority. Value can be used in the function \ref NVIC_SetPriority().
 */
__STATIC_INLINE uint32_t NVIC_EncodePriority (uint32_t PriorityGroup, uint32_t PreemptPriority, uint32_t SubPriority)
{
 8000c84:	b480      	push	{r7}
 8000c86:	b089      	sub	sp, #36	; 0x24
 8000c88:	af00      	add	r7, sp, #0
 8000c8a:	60f8      	str	r0, [r7, #12]
 8000c8c:	60b9      	str	r1, [r7, #8]
 8000c8e:	607a      	str	r2, [r7, #4]
  uint32_t PriorityGroupTmp = (PriorityGroup & (uint32_t)0x07UL);   /* only values 0..7 are used          */
 8000c90:	68fb      	ldr	r3, [r7, #12]
 8000c92:	f003 0307 	and.w	r3, r3, #7
 8000c96:	61fb      	str	r3, [r7, #28]
  uint32_t PreemptPriorityBits;
  uint32_t SubPriorityBits;

  PreemptPriorityBits = ((7UL - PriorityGroupTmp) > (uint32_t)(__NVIC_PRIO_BITS)) ? (uint32_t)(__NVIC_PRIO_BITS) : (uint32_t)(7UL - PriorityGroupTmp);
 8000c98:	69fb      	ldr	r3, [r7, #28]
 8000c9a:	f1c3 0307 	rsb	r3, r3, #7
 8000c9e:	2b04      	cmp	r3, #4
 8000ca0:	bf28      	it	cs
 8000ca2:	2304      	movcs	r3, #4
 8000ca4:	61bb      	str	r3, [r7, #24]
  SubPriorityBits     = ((PriorityGroupTmp + (uint32_t)(__NVIC_PRIO_BITS)) < (uint32_t)7UL) ? (uint32_t)0UL : (uint32_t)((PriorityGroupTmp - 7UL) + (uint32_t)(__NVIC_PRIO_BITS));
 8000ca6:	69fb      	ldr	r3, [r7, #28]
 8000ca8:	3304      	adds	r3, #4
 8000caa:	2b06      	cmp	r3, #6
 8000cac:	d902      	bls.n	8000cb4 <NVIC_EncodePriority+0x30>
 8000cae:	69fb      	ldr	r3, [r7, #28]
 8000cb0:	3b03      	subs	r3, #3
 8000cb2:	e000      	b.n	8000cb6 <NVIC_EncodePriority+0x32>
 8000cb4:	2300      	movs	r3, #0
 8000cb6:	617b      	str	r3, [r7, #20]

  return (
           ((PreemptPriority & (uint32_t)((1UL << (PreemptPriorityBits)) - 1UL)) << SubPriorityBits) |
 8000cb8:	f04f 32ff 	mov.w	r2, #4294967295
 8000cbc:	69bb      	ldr	r3, [r7, #24]
 8000cbe:	fa02 f303 	lsl.w	r3, r2, r3
 8000cc2:	43da      	mvns	r2, r3
 8000cc4:	68bb      	ldr	r3, [r7, #8]
 8000cc6:	401a      	ands	r2, r3
 8000cc8:	697b      	ldr	r3, [r7, #20]
 8000cca:	409a      	lsls	r2, r3
           ((SubPriority     & (uint32_t)((1UL << (SubPriorityBits    )) - 1UL)))
 8000ccc:	f04f 31ff 	mov.w	r1, #4294967295
 8000cd0:	697b      	ldr	r3, [r7, #20]
 8000cd2:	fa01 f303 	lsl.w	r3, r1, r3
 8000cd6:	43d9      	mvns	r1, r3
 8000cd8:	687b      	ldr	r3, [r7, #4]
 8000cda:	400b      	ands	r3, r1
           ((PreemptPriority & (uint32_t)((1UL << (PreemptPriorityBits)) - 1UL)) << SubPriorityBits) |
 8000cdc:	4313      	orrs	r3, r2
         );
}
 8000cde:	4618      	mov	r0, r3
 8000ce0:	3724      	adds	r7, #36	; 0x24
 8000ce2:	46bd      	mov	sp, r7
 8000ce4:	f85d 7b04 	ldr.w	r7, [sp], #4
 8000ce8:	4770      	bx	lr
	...

08000cec <SysTick_Config>:
  \note    When the variable <b>__Vendor_SysTickConfig</b> is set to 1, then the
           function <b>SysTick_Config</b> is not included. In this case, the file <b><i>device</i>.h</b>
           must contain a vendor-specific implementation of this function.
 */
__STATIC_INLINE uint32_t SysTick_Config(uint32_t ticks)
{
 8000cec:	b580      	push	{r7, lr}
 8000cee:	b082      	sub	sp, #8
 8000cf0:	af00      	add	r7, sp, #0
 8000cf2:	6078      	str	r0, [r7, #4]
  if ((ticks - 1UL) > SysTick_LOAD_RELOAD_Msk)
 8000cf4:	687b      	ldr	r3, [r7, #4]
 8000cf6:	3b01      	subs	r3, #1
 8000cf8:	f1b3 7f80 	cmp.w	r3, #16777216	; 0x1000000
 8000cfc:	d301      	bcc.n	8000d02 <SysTick_Config+0x16>
  {
    return (1UL);                                                   /* Reload value impossible */
 8000cfe:	2301      	movs	r3, #1
 8000d00:	e00f      	b.n	8000d22 <SysTick_Config+0x36>
  }

  SysTick->LOAD  = (uint32_t)(ticks - 1UL);                         /* set reload register */
 8000d02:	4a0a      	ldr	r2, [pc, #40]	; (8000d2c <SysTick_Config+0x40>)
 8000d04:	687b      	ldr	r3, [r7, #4]
 8000d06:	3b01      	subs	r3, #1
 8000d08:	6053      	str	r3, [r2, #4]
  NVIC_SetPriority (SysTick_IRQn, (1UL << __NVIC_PRIO_BITS) - 1UL); /* set Priority for Systick Interrupt */
 8000d0a:	210f      	movs	r1, #15
 8000d0c:	f04f 30ff 	mov.w	r0, #4294967295
 8000d10:	f7ff ff8e 	bl	8000c30 <__NVIC_SetPriority>
  SysTick->VAL   = 0UL;                                             /* Load the SysTick Counter Value */
 8000d14:	4b05      	ldr	r3, [pc, #20]	; (8000d2c <SysTick_Config+0x40>)
 8000d16:	2200      	movs	r2, #0
 8000d18:	609a      	str	r2, [r3, #8]
  SysTick->CTRL  = SysTick_CTRL_CLKSOURCE_Msk |
 8000d1a:	4b04      	ldr	r3, [pc, #16]	; (8000d2c <SysTick_Config+0x40>)
 8000d1c:	2207      	movs	r2, #7
 8000d1e:	601a      	str	r2, [r3, #0]
                   SysTick_CTRL_TICKINT_Msk   |
                   SysTick_CTRL_ENABLE_Msk;                         /* Enable SysTick IRQ and SysTick Timer */
  return (0UL);                                                     /* Function successful */
 8000d20:	2300      	movs	r3, #0
}
 8000d22:	4618      	mov	r0, r3
 8000d24:	3708      	adds	r7, #8
 8000d26:	46bd      	mov	sp, r7
 8000d28:	bd80      	pop	{r7, pc}
 8000d2a:	bf00      	nop
 8000d2c:	e000e010 	.word	0xe000e010

08000d30 <HAL_NVIC_SetPriorityGrouping>:
  * @note   When the NVIC_PriorityGroup_0 is selected, IRQ preemption is no more possible. 
  *         The pending IRQ priority will be managed only by the subpriority. 
  * @retval None
  */
void HAL_NVIC_SetPriorityGrouping(uint32_t PriorityGroup)
{
 8000d30:	b580      	push	{r7, lr}
 8000d32:	b082      	sub	sp, #8
 8000d34:	af00      	add	r7, sp, #0
 8000d36:	6078      	str	r0, [r7, #4]
  /* Check the parameters */
  assert_param(IS_NVIC_PRIORITY_GROUP(PriorityGroup));
  
  /* Set the PRIGROUP[10:8] bits according to the PriorityGroup parameter value */
  NVIC_SetPriorityGrouping(PriorityGroup);
 8000d38:	6878      	ldr	r0, [r7, #4]
 8000d3a:	f7ff ff29 	bl	8000b90 <__NVIC_SetPriorityGrouping>
}
 8000d3e:	bf00      	nop
 8000d40:	3708      	adds	r7, #8
 8000d42:	46bd      	mov	sp, r7
 8000d44:	bd80      	pop	{r7, pc}

08000d46 <HAL_NVIC_SetPriority>:
  *         This parameter can be a value between 0 and 15
  *         A lower priority value indicates a higher priority.          
  * @retval None
  */
void HAL_NVIC_SetPriority(IRQn_Type IRQn, uint32_t PreemptPriority, uint32_t SubPriority)
{ 
 8000d46:	b580      	push	{r7, lr}
 8000d48:	b086      	sub	sp, #24
 8000d4a:	af00      	add	r7, sp, #0
 8000d4c:	4603      	mov	r3, r0
 8000d4e:	60b9      	str	r1, [r7, #8]
 8000d50:	607a      	str	r2, [r7, #4]
 8000d52:	73fb      	strb	r3, [r7, #15]
  uint32_t prioritygroup = 0x00U;
 8000d54:	2300      	movs	r3, #0
 8000d56:	617b      	str	r3, [r7, #20]
  
  /* Check the parameters */
  assert_param(IS_NVIC_SUB_PRIORITY(SubPriority));
  assert_param(IS_NVIC_PREEMPTION_PRIORITY(PreemptPriority));
  
  prioritygroup = NVIC_GetPriorityGrouping();
 8000d58:	f7ff ff3e 	bl	8000bd8 <__NVIC_GetPriorityGrouping>
 8000d5c:	6178      	str	r0, [r7, #20]
  
  NVIC_SetPriority(IRQn, NVIC_EncodePriority(prioritygroup, PreemptPriority, SubPriority));
 8000d5e:	687a      	ldr	r2, [r7, #4]
 8000d60:	68b9      	ldr	r1, [r7, #8]
 8000d62:	6978      	ldr	r0, [r7, #20]
 8000d64:	f7ff ff8e 	bl	8000c84 <NVIC_EncodePriority>
 8000d68:	4602      	mov	r2, r0
 8000d6a:	f997 300f 	ldrsb.w	r3, [r7, #15]
 8000d6e:	4611      	mov	r1, r2
 8000d70:	4618      	mov	r0, r3
 8000d72:	f7ff ff5d 	bl	8000c30 <__NVIC_SetPriority>
}
 8000d76:	bf00      	nop
 8000d78:	3718      	adds	r7, #24
 8000d7a:	46bd      	mov	sp, r7
 8000d7c:	bd80      	pop	{r7, pc}

08000d7e <HAL_NVIC_EnableIRQ>:
  *         This parameter can be an enumerator of IRQn_Type enumeration
  *         (For the complete STM32 Devices IRQ Channels list, please refer to the appropriate CMSIS device file (stm32f4xxxx.h))
  * @retval None
  */
void HAL_NVIC_EnableIRQ(IRQn_Type IRQn)
{
 8000d7e:	b580      	push	{r7, lr}
 8000d80:	b082      	sub	sp, #8
 8000d82:	af00      	add	r7, sp, #0
 8000d84:	4603      	mov	r3, r0
 8000d86:	71fb      	strb	r3, [r7, #7]
  /* Check the parameters */
  assert_param(IS_NVIC_DEVICE_IRQ(IRQn));
  
  /* Enable interrupt */
  NVIC_EnableIRQ(IRQn);
 8000d88:	f997 3007 	ldrsb.w	r3, [r7, #7]
 8000d8c:	4618      	mov	r0, r3
 8000d8e:	f7ff ff31 	bl	8000bf4 <__NVIC_EnableIRQ>
}
 8000d92:	bf00      	nop
 8000d94:	3708      	adds	r7, #8
 8000d96:	46bd      	mov	sp, r7
 8000d98:	bd80      	pop	{r7, pc}

08000d9a <HAL_SYSTICK_Config>:
  * @param  TicksNumb Specifies the ticks Number of ticks between two interrupts.
  * @retval status:  - 0  Function succeeded.
  *                  - 1  Function failed.
  */
uint32_t HAL_SYSTICK_Config(uint32_t TicksNumb)
{
 8000d9a:	b580      	push	{r7, lr}
 8000d9c:	b082      	sub	sp, #8
 8000d9e:	af00      	add	r7, sp, #0
 8000da0:	6078      	str	r0, [r7, #4]
   return SysTick_Config(TicksNumb);
 8000da2:	6878      	ldr	r0, [r7, #4]
 8000da4:	f7ff ffa2 	bl	8000cec <SysTick_Config>
 8000da8:	4603      	mov	r3, r0
}
 8000daa:	4618      	mov	r0, r3
 8000dac:	3708      	adds	r7, #8
 8000dae:	46bd      	mov	sp, r7
 8000db0:	bd80      	pop	{r7, pc}

08000db2 <HAL_DMA_Abort>:
  *        and the Stream will be effectively disabled only after the transfer of
  *        this single data is finished.  
  * @retval HAL status
  */
HAL_StatusTypeDef HAL_DMA_Abort(DMA_HandleTypeDef *hdma)
{
 8000db2:	b580      	push	{r7, lr}
 8000db4:	b084      	sub	sp, #16
 8000db6:	af00      	add	r7, sp, #0
 8000db8:	6078      	str	r0, [r7, #4]
  /* calculate DMA base and stream number */
  DMA_Base_Registers *regs = (DMA_Base_Registers *)hdma->StreamBaseAddress;
 8000dba:	687b      	ldr	r3, [r7, #4]
 8000dbc:	6d9b      	ldr	r3, [r3, #88]	; 0x58
 8000dbe:	60fb      	str	r3, [r7, #12]
  
  uint32_t tickstart = HAL_GetTick();
 8000dc0:	f7ff feb6 	bl	8000b30 <HAL_GetTick>
 8000dc4:	60b8      	str	r0, [r7, #8]
  
  if(hdma->State != HAL_DMA_STATE_BUSY)
 8000dc6:	687b      	ldr	r3, [r7, #4]
 8000dc8:	f893 3035 	ldrb.w	r3, [r3, #53]	; 0x35
 8000dcc:	b2db      	uxtb	r3, r3
 8000dce:	2b02      	cmp	r3, #2
 8000dd0:	d008      	beq.n	8000de4 <HAL_DMA_Abort+0x32>
  {
    hdma->ErrorCode = HAL_DMA_ERROR_NO_XFER;
 8000dd2:	687b      	ldr	r3, [r7, #4]
 8000dd4:	2280      	movs	r2, #128	; 0x80
 8000dd6:	655a      	str	r2, [r3, #84]	; 0x54
    
    /* Process Unlocked */
    __HAL_UNLOCK(hdma);
 8000dd8:	687b      	ldr	r3, [r7, #4]
 8000dda:	2200      	movs	r2, #0
 8000ddc:	f883 2034 	strb.w	r2, [r3, #52]	; 0x34
    
    return HAL_ERROR;
 8000de0:	2301      	movs	r3, #1
 8000de2:	e052      	b.n	8000e8a <HAL_DMA_Abort+0xd8>
  }
  else
  {
    /* Disable all the transfer interrupts */
    hdma->Instance->CR  &= ~(DMA_IT_TC | DMA_IT_TE | DMA_IT_DME);
 8000de4:	687b      	ldr	r3, [r7, #4]
 8000de6:	681b      	ldr	r3, [r3, #0]
 8000de8:	681a      	ldr	r2, [r3, #0]
 8000dea:	687b      	ldr	r3, [r7, #4]
 8000dec:	681b      	ldr	r3, [r3, #0]
 8000dee:	f022 0216 	bic.w	r2, r2, #22
 8000df2:	601a      	str	r2, [r3, #0]
    hdma->Instance->FCR &= ~(DMA_IT_FE);
 8000df4:	687b      	ldr	r3, [r7, #4]
 8000df6:	681b      	ldr	r3, [r3, #0]
 8000df8:	695a      	ldr	r2, [r3, #20]
 8000dfa:	687b      	ldr	r3, [r7, #4]
 8000dfc:	681b      	ldr	r3, [r3, #0]
 8000dfe:	f022 0280 	bic.w	r2, r2, #128	; 0x80
 8000e02:	615a      	str	r2, [r3, #20]
    
    if((hdma->XferHalfCpltCallback != NULL) || (hdma->XferM1HalfCpltCallback != NULL))
 8000e04:	687b      	ldr	r3, [r7, #4]
 8000e06:	6c1b      	ldr	r3, [r3, #64]	; 0x40
 8000e08:	2b00      	cmp	r3, #0
 8000e0a:	d103      	bne.n	8000e14 <HAL_DMA_Abort+0x62>
 8000e0c:	687b      	ldr	r3, [r7, #4]
 8000e0e:	6c9b      	ldr	r3, [r3, #72]	; 0x48
 8000e10:	2b00      	cmp	r3, #0
 8000e12:	d007      	beq.n	8000e24 <HAL_DMA_Abort+0x72>
    {
      hdma->Instance->CR  &= ~(DMA_IT_HT);
 8000e14:	687b      	ldr	r3, [r7, #4]
 8000e16:	681b      	ldr	r3, [r3, #0]
 8000e18:	681a      	ldr	r2, [r3, #0]
 8000e1a:	687b      	ldr	r3, [r7, #4]
 8000e1c:	681b      	ldr	r3, [r3, #0]
 8000e1e:	f022 0208 	bic.w	r2, r2, #8
 8000e22:	601a      	str	r2, [r3, #0]
    }
    
    /* Disable the stream */
    __HAL_DMA_DISABLE(hdma);
 8000e24:	687b      	ldr	r3, [r7, #4]
 8000e26:	681b      	ldr	r3, [r3, #0]
 8000e28:	681a      	ldr	r2, [r3, #0]
 8000e2a:	687b      	ldr	r3, [r7, #4]
 8000e2c:	681b      	ldr	r3, [r3, #0]
 8000e2e:	f022 0201 	bic.w	r2, r2, #1
 8000e32:	601a      	str	r2, [r3, #0]
    
    /* Check if the DMA Stream is effectively disabled */
    while((hdma->Instance->CR & DMA_SxCR_EN) != RESET)
 8000e34:	e013      	b.n	8000e5e <HAL_DMA_Abort+0xac>
    {
      /* Check for the Timeout */
      if((HAL_GetTick() - tickstart ) > HAL_TIMEOUT_DMA_ABORT)
 8000e36:	f7ff fe7b 	bl	8000b30 <HAL_GetTick>
 8000e3a:	4602      	mov	r2, r0
 8000e3c:	68bb      	ldr	r3, [r7, #8]
 8000e3e:	1ad3      	subs	r3, r2, r3
 8000e40:	2b05      	cmp	r3, #5
 8000e42:	d90c      	bls.n	8000e5e <HAL_DMA_Abort+0xac>
      {
        /* Update error code */
        hdma->ErrorCode = HAL_DMA_ERROR_TIMEOUT;
 8000e44:	687b      	ldr	r3, [r7, #4]
 8000e46:	2220      	movs	r2, #32
 8000e48:	655a      	str	r2, [r3, #84]	; 0x54
        
        /* Change the DMA state */
        hdma->State = HAL_DMA_STATE_TIMEOUT;
 8000e4a:	687b      	ldr	r3, [r7, #4]
 8000e4c:	2203      	movs	r2, #3
 8000e4e:	f883 2035 	strb.w	r2, [r3, #53]	; 0x35
        
        /* Process Unlocked */
        __HAL_UNLOCK(hdma);
 8000e52:	687b      	ldr	r3, [r7, #4]
 8000e54:	2200      	movs	r2, #0
 8000e56:	f883 2034 	strb.w	r2, [r3, #52]	; 0x34
        
        return HAL_TIMEOUT;
 8000e5a:	2303      	movs	r3, #3
 8000e5c:	e015      	b.n	8000e8a <HAL_DMA_Abort+0xd8>
    while((hdma->Instance->CR & DMA_SxCR_EN) != RESET)
 8000e5e:	687b      	ldr	r3, [r7, #4]
 8000e60:	681b      	ldr	r3, [r3, #0]
 8000e62:	681b      	ldr	r3, [r3, #0]
 8000e64:	f003 0301 	and.w	r3, r3, #1
 8000e68:	2b00      	cmp	r3, #0
 8000e6a:	d1e4      	bne.n	8000e36 <HAL_DMA_Abort+0x84>
      }
    }
    
    /* Clear all interrupt flags at correct offset within the register */
    regs->IFCR = 0x3FU << hdma->StreamIndex;
 8000e6c:	687b      	ldr	r3, [r7, #4]
 8000e6e:	6ddb      	ldr	r3, [r3, #92]	; 0x5c
 8000e70:	223f      	movs	r2, #63	; 0x3f
 8000e72:	409a      	lsls	r2, r3
 8000e74:	68fb      	ldr	r3, [r7, #12]
 8000e76:	609a      	str	r2, [r3, #8]
    
    /* Change the DMA state*/
    hdma->State = HAL_DMA_STATE_READY;
 8000e78:	687b      	ldr	r3, [r7, #4]
 8000e7a:	2201      	movs	r2, #1
 8000e7c:	f883 2035 	strb.w	r2, [r3, #53]	; 0x35
    
    /* Process Unlocked */
    __HAL_UNLOCK(hdma);
 8000e80:	687b      	ldr	r3, [r7, #4]
 8000e82:	2200      	movs	r2, #0
 8000e84:	f883 2034 	strb.w	r2, [r3, #52]	; 0x34
  }
  return HAL_OK;
 8000e88:	2300      	movs	r3, #0
}
 8000e8a:	4618      	mov	r0, r3
 8000e8c:	3710      	adds	r7, #16
 8000e8e:	46bd      	mov	sp, r7
 8000e90:	bd80      	pop	{r7, pc}

08000e92 <HAL_DMA_Abort_IT>:
  * @param  hdma   pointer to a DMA_HandleTypeDef structure that contains
  *                 the configuration information for the specified DMA Stream.
  * @retval HAL status
  */
HAL_StatusTypeDef HAL_DMA_Abort_IT(DMA_HandleTypeDef *hdma)
{
 8000e92:	b480      	push	{r7}
 8000e94:	b083      	sub	sp, #12
 8000e96:	af00      	add	r7, sp, #0
 8000e98:	6078      	str	r0, [r7, #4]
  if(hdma->State != HAL_DMA_STATE_BUSY)
 8000e9a:	687b      	ldr	r3, [r7, #4]
 8000e9c:	f893 3035 	ldrb.w	r3, [r3, #53]	; 0x35
 8000ea0:	b2db      	uxtb	r3, r3
 8000ea2:	2b02      	cmp	r3, #2
 8000ea4:	d004      	beq.n	8000eb0 <HAL_DMA_Abort_IT+0x1e>
  {
    hdma->ErrorCode = HAL_DMA_ERROR_NO_XFER;
 8000ea6:	687b      	ldr	r3, [r7, #4]
 8000ea8:	2280      	movs	r2, #128	; 0x80
 8000eaa:	655a      	str	r2, [r3, #84]	; 0x54
    return HAL_ERROR;
 8000eac:	2301      	movs	r3, #1
 8000eae:	e00c      	b.n	8000eca <HAL_DMA_Abort_IT+0x38>
  }
  else
  {
    /* Set Abort State  */
    hdma->State = HAL_DMA_STATE_ABORT;
 8000eb0:	687b      	ldr	r3, [r7, #4]
 8000eb2:	2205      	movs	r2, #5
 8000eb4:	f883 2035 	strb.w	r2, [r3, #53]	; 0x35
    
    /* Disable the stream */
    __HAL_DMA_DISABLE(hdma);
 8000eb8:	687b      	ldr	r3, [r7, #4]
 8000eba:	681b      	ldr	r3, [r3, #0]
 8000ebc:	681a      	ldr	r2, [r3, #0]
 8000ebe:	687b      	ldr	r3, [r7, #4]
 8000ec0:	681b      	ldr	r3, [r3, #0]
 8000ec2:	f022 0201 	bic.w	r2, r2, #1
 8000ec6:	601a      	str	r2, [r3, #0]
  }

  return HAL_OK;
 8000ec8:	2300      	movs	r3, #0
}
 8000eca:	4618      	mov	r0, r3
 8000ecc:	370c      	adds	r7, #12
 8000ece:	46bd      	mov	sp, r7
 8000ed0:	f85d 7b04 	ldr.w	r7, [sp], #4
 8000ed4:	4770      	bx	lr
	...

08000ed8 <HAL_GPIO_Init>:
  * @param  GPIO_Init pointer to a GPIO_InitTypeDef structure that contains
  *         the configuration information for the specified GPIO peripheral.
  * @retval None
  */
void HAL_GPIO_Init(GPIO_TypeDef  *GPIOx, GPIO_InitTypeDef *GPIO_Init)
{
 8000ed8:	b480      	push	{r7}
 8000eda:	b089      	sub	sp, #36	; 0x24
 8000edc:	af00      	add	r7, sp, #0
 8000ede:	6078      	str	r0, [r7, #4]
 8000ee0:	6039      	str	r1, [r7, #0]
  uint32_t position;
  uint32_t ioposition = 0x00U;
 8000ee2:	2300      	movs	r3, #0
 8000ee4:	617b      	str	r3, [r7, #20]
  uint32_t iocurrent = 0x00U;
 8000ee6:	2300      	movs	r3, #0
 8000ee8:	613b      	str	r3, [r7, #16]
  uint32_t temp = 0x00U;
 8000eea:	2300      	movs	r3, #0
 8000eec:	61bb      	str	r3, [r7, #24]
  assert_param(IS_GPIO_ALL_INSTANCE(GPIOx));
  assert_param(IS_GPIO_PIN(GPIO_Init->Pin));
  assert_param(IS_GPIO_MODE(GPIO_Init->Mode));

  /* Configure the port pins */
  for(position = 0U; position < GPIO_NUMBER; position++)
 8000eee:	2300      	movs	r3, #0
 8000ef0:	61fb      	str	r3, [r7, #28]
 8000ef2:	e177      	b.n	80011e4 <HAL_GPIO_Init+0x30c>
  {
    /* Get the IO position */
    ioposition = 0x01U << position;
 8000ef4:	2201      	movs	r2, #1
 8000ef6:	69fb      	ldr	r3, [r7, #28]
 8000ef8:	fa02 f303 	lsl.w	r3, r2, r3
 8000efc:	617b      	str	r3, [r7, #20]
    /* Get the current IO position */
    iocurrent = (uint32_t)(GPIO_Init->Pin) & ioposition;
 8000efe:	683b      	ldr	r3, [r7, #0]
 8000f00:	681b      	ldr	r3, [r3, #0]
 8000f02:	697a      	ldr	r2, [r7, #20]
 8000f04:	4013      	ands	r3, r2
 8000f06:	613b      	str	r3, [r7, #16]

    if(iocurrent == ioposition)
 8000f08:	693a      	ldr	r2, [r7, #16]
 8000f0a:	697b      	ldr	r3, [r7, #20]
 8000f0c:	429a      	cmp	r2, r3
 8000f0e:	f040 8166 	bne.w	80011de <HAL_GPIO_Init+0x306>
    {
      /*--------------------- GPIO Mode Configuration ------------------------*/
      /* In case of Output or Alternate function mode selection */
      if(((GPIO_Init->Mode & GPIO_MODE) == MODE_OUTPUT) || \
 8000f12:	683b      	ldr	r3, [r7, #0]
 8000f14:	685b      	ldr	r3, [r3, #4]
 8000f16:	f003 0303 	and.w	r3, r3, #3
 8000f1a:	2b01      	cmp	r3, #1
 8000f1c:	d005      	beq.n	8000f2a <HAL_GPIO_Init+0x52>
          (GPIO_Init->Mode & GPIO_MODE) == MODE_AF)
 8000f1e:	683b      	ldr	r3, [r7, #0]
 8000f20:	685b      	ldr	r3, [r3, #4]
 8000f22:	f003 0303 	and.w	r3, r3, #3
      if(((GPIO_Init->Mode & GPIO_MODE) == MODE_OUTPUT) || \
 8000f26:	2b02      	cmp	r3, #2
 8000f28:	d130      	bne.n	8000f8c <HAL_GPIO_Init+0xb4>
      {
        /* Check the Speed parameter */
        assert_param(IS_GPIO_SPEED(GPIO_Init->Speed));
        /* Configure the IO Speed */
        temp = GPIOx->OSPEEDR; 
 8000f2a:	687b      	ldr	r3, [r7, #4]
 8000f2c:	689b      	ldr	r3, [r3, #8]
 8000f2e:	61bb      	str	r3, [r7, #24]
        temp &= ~(GPIO_OSPEEDER_OSPEEDR0 << (position * 2U));
 8000f30:	69fb      	ldr	r3, [r7, #28]
 8000f32:	005b      	lsls	r3, r3, #1
 8000f34:	2203      	movs	r2, #3
 8000f36:	fa02 f303 	lsl.w	r3, r2, r3
 8000f3a:	43db      	mvns	r3, r3
 8000f3c:	69ba      	ldr	r2, [r7, #24]
 8000f3e:	4013      	ands	r3, r2
 8000f40:	61bb      	str	r3, [r7, #24]
        temp |= (GPIO_Init->Speed << (position * 2U));
 8000f42:	683b      	ldr	r3, [r7, #0]
 8000f44:	68da      	ldr	r2, [r3, #12]
 8000f46:	69fb      	ldr	r3, [r7, #28]
 8000f48:	005b      	lsls	r3, r3, #1
 8000f4a:	fa02 f303 	lsl.w	r3, r2, r3
 8000f4e:	69ba      	ldr	r2, [r7, #24]
 8000f50:	4313      	orrs	r3, r2
 8000f52:	61bb      	str	r3, [r7, #24]
        GPIOx->OSPEEDR = temp;
 8000f54:	687b      	ldr	r3, [r7, #4]
 8000f56:	69ba      	ldr	r2, [r7, #24]
 8000f58:	609a      	str	r2, [r3, #8]

        /* Configure the IO Output Type */
        temp = GPIOx->OTYPER;
 8000f5a:	687b      	ldr	r3, [r7, #4]
 8000f5c:	685b      	ldr	r3, [r3, #4]
 8000f5e:	61bb      	str	r3, [r7, #24]
        temp &= ~(GPIO_OTYPER_OT_0 << position) ;
 8000f60:	2201      	movs	r2, #1
 8000f62:	69fb      	ldr	r3, [r7, #28]
 8000f64:	fa02 f303 	lsl.w	r3, r2, r3
 8000f68:	43db      	mvns	r3, r3
 8000f6a:	69ba      	ldr	r2, [r7, #24]
 8000f6c:	4013      	ands	r3, r2
 8000f6e:	61bb      	str	r3, [r7, #24]
        temp |= (((GPIO_Init->Mode & OUTPUT_TYPE) >> OUTPUT_TYPE_Pos) << position);
 8000f70:	683b      	ldr	r3, [r7, #0]
 8000f72:	685b      	ldr	r3, [r3, #4]
 8000f74:	091b      	lsrs	r3, r3, #4
 8000f76:	f003 0201 	and.w	r2, r3, #1
 8000f7a:	69fb      	ldr	r3, [r7, #28]
 8000f7c:	fa02 f303 	lsl.w	r3, r2, r3
 8000f80:	69ba      	ldr	r2, [r7, #24]
 8000f82:	4313      	orrs	r3, r2
 8000f84:	61bb      	str	r3, [r7, #24]
        GPIOx->OTYPER = temp;
 8000f86:	687b      	ldr	r3, [r7, #4]
 8000f88:	69ba      	ldr	r2, [r7, #24]
 8000f8a:	605a      	str	r2, [r3, #4]
       }

      if((GPIO_Init->Mode & GPIO_MODE) != MODE_ANALOG)
 8000f8c:	683b      	ldr	r3, [r7, #0]
 8000f8e:	685b      	ldr	r3, [r3, #4]
 8000f90:	f003 0303 	and.w	r3, r3, #3
 8000f94:	2b03      	cmp	r3, #3
 8000f96:	d017      	beq.n	8000fc8 <HAL_GPIO_Init+0xf0>
      {
        /* Check the parameters */
        assert_param(IS_GPIO_PULL(GPIO_Init->Pull));
        
        /* Activate the Pull-up or Pull down resistor for the current IO */
        temp = GPIOx->PUPDR;
 8000f98:	687b      	ldr	r3, [r7, #4]
 8000f9a:	68db      	ldr	r3, [r3, #12]
 8000f9c:	61bb      	str	r3, [r7, #24]
        temp &= ~(GPIO_PUPDR_PUPDR0 << (position * 2U));
 8000f9e:	69fb      	ldr	r3, [r7, #28]
 8000fa0:	005b      	lsls	r3, r3, #1
 8000fa2:	2203      	movs	r2, #3
 8000fa4:	fa02 f303 	lsl.w	r3, r2, r3
 8000fa8:	43db      	mvns	r3, r3
 8000faa:	69ba      	ldr	r2, [r7, #24]
 8000fac:	4013      	ands	r3, r2
 8000fae:	61bb      	str	r3, [r7, #24]
        temp |= ((GPIO_Init->Pull) << (position * 2U));
 8000fb0:	683b      	ldr	r3, [r7, #0]
 8000fb2:	689a      	ldr	r2, [r3, #8]
 8000fb4:	69fb      	ldr	r3, [r7, #28]
 8000fb6:	005b      	lsls	r3, r3, #1
 8000fb8:	fa02 f303 	lsl.w	r3, r2, r3
 8000fbc:	69ba      	ldr	r2, [r7, #24]
 8000fbe:	4313      	orrs	r3, r2
 8000fc0:	61bb      	str	r3, [r7, #24]
        GPIOx->PUPDR = temp;
 8000fc2:	687b      	ldr	r3, [r7, #4]
 8000fc4:	69ba      	ldr	r2, [r7, #24]
 8000fc6:	60da      	str	r2, [r3, #12]
      }

      /* In case of Alternate function mode selection */
      if((GPIO_Init->Mode & GPIO_MODE) == MODE_AF)
 8000fc8:	683b      	ldr	r3, [r7, #0]
 8000fca:	685b      	ldr	r3, [r3, #4]
 8000fcc:	f003 0303 	and.w	r3, r3, #3
 8000fd0:	2b02      	cmp	r3, #2
 8000fd2:	d123      	bne.n	800101c <HAL_GPIO_Init+0x144>
      {
        /* Check the Alternate function parameter */
        assert_param(IS_GPIO_AF(GPIO_Init->Alternate));
        /* Configure Alternate function mapped with the current IO */
        temp = GPIOx->AFR[position >> 3U];
 8000fd4:	69fb      	ldr	r3, [r7, #28]
 8000fd6:	08da      	lsrs	r2, r3, #3
 8000fd8:	687b      	ldr	r3, [r7, #4]
 8000fda:	3208      	adds	r2, #8
 8000fdc:	f853 3022 	ldr.w	r3, [r3, r2, lsl #2]
 8000fe0:	61bb      	str	r3, [r7, #24]
        temp &= ~(0xFU << ((uint32_t)(position & 0x07U) * 4U)) ;
 8000fe2:	69fb      	ldr	r3, [r7, #28]
 8000fe4:	f003 0307 	and.w	r3, r3, #7
 8000fe8:	009b      	lsls	r3, r3, #2
 8000fea:	220f      	movs	r2, #15
 8000fec:	fa02 f303 	lsl.w	r3, r2, r3
 8000ff0:	43db      	mvns	r3, r3
 8000ff2:	69ba      	ldr	r2, [r7, #24]
 8000ff4:	4013      	ands	r3, r2
 8000ff6:	61bb      	str	r3, [r7, #24]
        temp |= ((uint32_t)(GPIO_Init->Alternate) << (((uint32_t)position & 0x07U) * 4U));
 8000ff8:	683b      	ldr	r3, [r7, #0]
 8000ffa:	691a      	ldr	r2, [r3, #16]
 8000ffc:	69fb      	ldr	r3, [r7, #28]
 8000ffe:	f003 0307 	and.w	r3, r3, #7
 8001002:	009b      	lsls	r3, r3, #2
 8001004:	fa02 f303 	lsl.w	r3, r2, r3
 8001008:	69ba      	ldr	r2, [r7, #24]
 800100a:	4313      	orrs	r3, r2
 800100c:	61bb      	str	r3, [r7, #24]
        GPIOx->AFR[position >> 3U] = temp;
 800100e:	69fb      	ldr	r3, [r7, #28]
 8001010:	08da      	lsrs	r2, r3, #3
 8001012:	687b      	ldr	r3, [r7, #4]
 8001014:	3208      	adds	r2, #8
 8001016:	69b9      	ldr	r1, [r7, #24]
 8001018:	f843 1022 	str.w	r1, [r3, r2, lsl #2]
      }

      /* Configure IO Direction mode (Input, Output, Alternate or Analog) */
      temp = GPIOx->MODER;
 800101c:	687b      	ldr	r3, [r7, #4]
 800101e:	681b      	ldr	r3, [r3, #0]
 8001020:	61bb      	str	r3, [r7, #24]
      temp &= ~(GPIO_MODER_MODER0 << (position * 2U));
 8001022:	69fb      	ldr	r3, [r7, #28]
 8001024:	005b      	lsls	r3, r3, #1
 8001026:	2203      	movs	r2, #3
 8001028:	fa02 f303 	lsl.w	r3, r2, r3
 800102c:	43db      	mvns	r3, r3
 800102e:	69ba      	ldr	r2, [r7, #24]
 8001030:	4013      	ands	r3, r2
 8001032:	61bb      	str	r3, [r7, #24]
      temp |= ((GPIO_Init->Mode & GPIO_MODE) << (position * 2U));
 8001034:	683b      	ldr	r3, [r7, #0]
 8001036:	685b      	ldr	r3, [r3, #4]
 8001038:	f003 0203 	and.w	r2, r3, #3
 800103c:	69fb      	ldr	r3, [r7, #28]
 800103e:	005b      	lsls	r3, r3, #1
 8001040:	fa02 f303 	lsl.w	r3, r2, r3
 8001044:	69ba      	ldr	r2, [r7, #24]
 8001046:	4313      	orrs	r3, r2
 8001048:	61bb      	str	r3, [r7, #24]
      GPIOx->MODER = temp;
 800104a:	687b      	ldr	r3, [r7, #4]
 800104c:	69ba      	ldr	r2, [r7, #24]
 800104e:	601a      	str	r2, [r3, #0]

      /*--------------------- EXTI Mode Configuration ------------------------*/
      /* Configure the External Interrupt or event for the current IO */
      if((GPIO_Init->Mode & EXTI_MODE) != 0x00U)
 8001050:	683b      	ldr	r3, [r7, #0]
 8001052:	685b      	ldr	r3, [r3, #4]
 8001054:	f403 3340 	and.w	r3, r3, #196608	; 0x30000
 8001058:	2b00      	cmp	r3, #0
 800105a:	f000 80c0 	beq.w	80011de <HAL_GPIO_Init+0x306>
      {
        /* Enable SYSCFG Clock */
        __HAL_RCC_SYSCFG_CLK_ENABLE();
 800105e:	2300      	movs	r3, #0
 8001060:	60fb      	str	r3, [r7, #12]
 8001062:	4b66      	ldr	r3, [pc, #408]	; (80011fc <HAL_GPIO_Init+0x324>)
 8001064:	6c5b      	ldr	r3, [r3, #68]	; 0x44
 8001066:	4a65      	ldr	r2, [pc, #404]	; (80011fc <HAL_GPIO_Init+0x324>)
 8001068:	f443 4380 	orr.w	r3, r3, #16384	; 0x4000
 800106c:	6453      	str	r3, [r2, #68]	; 0x44
 800106e:	4b63      	ldr	r3, [pc, #396]	; (80011fc <HAL_GPIO_Init+0x324>)
 8001070:	6c5b      	ldr	r3, [r3, #68]	; 0x44
 8001072:	f403 4380 	and.w	r3, r3, #16384	; 0x4000
 8001076:	60fb      	str	r3, [r7, #12]
 8001078:	68fb      	ldr	r3, [r7, #12]

        temp = SYSCFG->EXTICR[position >> 2U];
 800107a:	4a61      	ldr	r2, [pc, #388]	; (8001200 <HAL_GPIO_Init+0x328>)
 800107c:	69fb      	ldr	r3, [r7, #28]
 800107e:	089b      	lsrs	r3, r3, #2
 8001080:	3302      	adds	r3, #2
 8001082:	f852 3023 	ldr.w	r3, [r2, r3, lsl #2]
 8001086:	61bb      	str	r3, [r7, #24]
        temp &= ~(0x0FU << (4U * (position & 0x03U)));
 8001088:	69fb      	ldr	r3, [r7, #28]
 800108a:	f003 0303 	and.w	r3, r3, #3
 800108e:	009b      	lsls	r3, r3, #2
 8001090:	220f      	movs	r2, #15
 8001092:	fa02 f303 	lsl.w	r3, r2, r3
 8001096:	43db      	mvns	r3, r3
 8001098:	69ba      	ldr	r2, [r7, #24]
 800109a:	4013      	ands	r3, r2
 800109c:	61bb      	str	r3, [r7, #24]
        temp |= ((uint32_t)(GPIO_GET_INDEX(GPIOx)) << (4U * (position & 0x03U)));
 800109e:	687b      	ldr	r3, [r7, #4]
 80010a0:	4a58      	ldr	r2, [pc, #352]	; (8001204 <HAL_GPIO_Init+0x32c>)
 80010a2:	4293      	cmp	r3, r2
 80010a4:	d037      	beq.n	8001116 <HAL_GPIO_Init+0x23e>
 80010a6:	687b      	ldr	r3, [r7, #4]
 80010a8:	4a57      	ldr	r2, [pc, #348]	; (8001208 <HAL_GPIO_Init+0x330>)
 80010aa:	4293      	cmp	r3, r2
 80010ac:	d031      	beq.n	8001112 <HAL_GPIO_Init+0x23a>
 80010ae:	687b      	ldr	r3, [r7, #4]
 80010b0:	4a56      	ldr	r2, [pc, #344]	; (800120c <HAL_GPIO_Init+0x334>)
 80010b2:	4293      	cmp	r3, r2
 80010b4:	d02b      	beq.n	800110e <HAL_GPIO_Init+0x236>
 80010b6:	687b      	ldr	r3, [r7, #4]
 80010b8:	4a55      	ldr	r2, [pc, #340]	; (8001210 <HAL_GPIO_Init+0x338>)
 80010ba:	4293      	cmp	r3, r2
 80010bc:	d025      	beq.n	800110a <HAL_GPIO_Init+0x232>
 80010be:	687b      	ldr	r3, [r7, #4]
 80010c0:	4a54      	ldr	r2, [pc, #336]	; (8001214 <HAL_GPIO_Init+0x33c>)
 80010c2:	4293      	cmp	r3, r2
 80010c4:	d01f      	beq.n	8001106 <HAL_GPIO_Init+0x22e>
 80010c6:	687b      	ldr	r3, [r7, #4]
 80010c8:	4a53      	ldr	r2, [pc, #332]	; (8001218 <HAL_GPIO_Init+0x340>)
 80010ca:	4293      	cmp	r3, r2
 80010cc:	d019      	beq.n	8001102 <HAL_GPIO_Init+0x22a>
 80010ce:	687b      	ldr	r3, [r7, #4]
 80010d0:	4a52      	ldr	r2, [pc, #328]	; (800121c <HAL_GPIO_Init+0x344>)
 80010d2:	4293      	cmp	r3, r2
 80010d4:	d013      	beq.n	80010fe <HAL_GPIO_Init+0x226>
 80010d6:	687b      	ldr	r3, [r7, #4]
 80010d8:	4a51      	ldr	r2, [pc, #324]	; (8001220 <HAL_GPIO_Init+0x348>)
 80010da:	4293      	cmp	r3, r2
 80010dc:	d00d      	beq.n	80010fa <HAL_GPIO_Init+0x222>
 80010de:	687b      	ldr	r3, [r7, #4]
 80010e0:	4a50      	ldr	r2, [pc, #320]	; (8001224 <HAL_GPIO_Init+0x34c>)
 80010e2:	4293      	cmp	r3, r2
 80010e4:	d007      	beq.n	80010f6 <HAL_GPIO_Init+0x21e>
 80010e6:	687b      	ldr	r3, [r7, #4]
 80010e8:	4a4f      	ldr	r2, [pc, #316]	; (8001228 <HAL_GPIO_Init+0x350>)
 80010ea:	4293      	cmp	r3, r2
 80010ec:	d101      	bne.n	80010f2 <HAL_GPIO_Init+0x21a>
 80010ee:	2309      	movs	r3, #9
 80010f0:	e012      	b.n	8001118 <HAL_GPIO_Init+0x240>
 80010f2:	230a      	movs	r3, #10
 80010f4:	e010      	b.n	8001118 <HAL_GPIO_Init+0x240>
 80010f6:	2308      	movs	r3, #8
 80010f8:	e00e      	b.n	8001118 <HAL_GPIO_Init+0x240>
 80010fa:	2307      	movs	r3, #7
 80010fc:	e00c      	b.n	8001118 <HAL_GPIO_Init+0x240>
 80010fe:	2306      	movs	r3, #6
 8001100:	e00a      	b.n	8001118 <HAL_GPIO_Init+0x240>
 8001102:	2305      	movs	r3, #5
 8001104:	e008      	b.n	8001118 <HAL_GPIO_Init+0x240>
 8001106:	2304      	movs	r3, #4
 8001108:	e006      	b.n	8001118 <HAL_GPIO_Init+0x240>
 800110a:	2303      	movs	r3, #3
 800110c:	e004      	b.n	8001118 <HAL_GPIO_Init+0x240>
 800110e:	2302      	movs	r3, #2
 8001110:	e002      	b.n	8001118 <HAL_GPIO_Init+0x240>
 8001112:	2301      	movs	r3, #1
 8001114:	e000      	b.n	8001118 <HAL_GPIO_Init+0x240>
 8001116:	2300      	movs	r3, #0
 8001118:	69fa      	ldr	r2, [r7, #28]
 800111a:	f002 0203 	and.w	r2, r2, #3
 800111e:	0092      	lsls	r2, r2, #2
 8001120:	4093      	lsls	r3, r2
 8001122:	69ba      	ldr	r2, [r7, #24]
 8001124:	4313      	orrs	r3, r2
 8001126:	61bb      	str	r3, [r7, #24]
        SYSCFG->EXTICR[position >> 2U] = temp;
 8001128:	4935      	ldr	r1, [pc, #212]	; (8001200 <HAL_GPIO_Init+0x328>)
 800112a:	69fb      	ldr	r3, [r7, #28]
 800112c:	089b      	lsrs	r3, r3, #2
 800112e:	3302      	adds	r3, #2
 8001130:	69ba      	ldr	r2, [r7, #24]
 8001132:	f841 2023 	str.w	r2, [r1, r3, lsl #2]

        /* Clear Rising Falling edge configuration */
        temp = EXTI->RTSR;
 8001136:	4b3d      	ldr	r3, [pc, #244]	; (800122c <HAL_GPIO_Init+0x354>)
 8001138:	689b      	ldr	r3, [r3, #8]
 800113a:	61bb      	str	r3, [r7, #24]
        temp &= ~((uint32_t)iocurrent);
 800113c:	693b      	ldr	r3, [r7, #16]
 800113e:	43db      	mvns	r3, r3
 8001140:	69ba      	ldr	r2, [r7, #24]
 8001142:	4013      	ands	r3, r2
 8001144:	61bb      	str	r3, [r7, #24]
        if((GPIO_Init->Mode & TRIGGER_RISING) != 0x00U)
 8001146:	683b      	ldr	r3, [r7, #0]
 8001148:	685b      	ldr	r3, [r3, #4]
 800114a:	f403 1380 	and.w	r3, r3, #1048576	; 0x100000
 800114e:	2b00      	cmp	r3, #0
 8001150:	d003      	beq.n	800115a <HAL_GPIO_Init+0x282>
        {
          temp |= iocurrent;
 8001152:	69ba      	ldr	r2, [r7, #24]
 8001154:	693b      	ldr	r3, [r7, #16]
 8001156:	4313      	orrs	r3, r2
 8001158:	61bb      	str	r3, [r7, #24]
        }
        EXTI->RTSR = temp;
 800115a:	4a34      	ldr	r2, [pc, #208]	; (800122c <HAL_GPIO_Init+0x354>)
 800115c:	69bb      	ldr	r3, [r7, #24]
 800115e:	6093      	str	r3, [r2, #8]

        temp = EXTI->FTSR;
 8001160:	4b32      	ldr	r3, [pc, #200]	; (800122c <HAL_GPIO_Init+0x354>)
 8001162:	68db      	ldr	r3, [r3, #12]
 8001164:	61bb      	str	r3, [r7, #24]
        temp &= ~((uint32_t)iocurrent);
 8001166:	693b      	ldr	r3, [r7, #16]
 8001168:	43db      	mvns	r3, r3
 800116a:	69ba      	ldr	r2, [r7, #24]
 800116c:	4013      	ands	r3, r2
 800116e:	61bb      	str	r3, [r7, #24]
        if((GPIO_Init->Mode & TRIGGER_FALLING) != 0x00U)
 8001170:	683b      	ldr	r3, [r7, #0]
 8001172:	685b      	ldr	r3, [r3, #4]
 8001174:	f403 1300 	and.w	r3, r3, #2097152	; 0x200000
 8001178:	2b00      	cmp	r3, #0
 800117a:	d003      	beq.n	8001184 <HAL_GPIO_Init+0x2ac>
        {
          temp |= iocurrent;
 800117c:	69ba      	ldr	r2, [r7, #24]
 800117e:	693b      	ldr	r3, [r7, #16]
 8001180:	4313      	orrs	r3, r2
 8001182:	61bb      	str	r3, [r7, #24]
        }
        EXTI->FTSR = temp;
 8001184:	4a29      	ldr	r2, [pc, #164]	; (800122c <HAL_GPIO_Init+0x354>)
 8001186:	69bb      	ldr	r3, [r7, #24]
 8001188:	60d3      	str	r3, [r2, #12]

        temp = EXTI->EMR;
 800118a:	4b28      	ldr	r3, [pc, #160]	; (800122c <HAL_GPIO_Init+0x354>)
 800118c:	685b      	ldr	r3, [r3, #4]
 800118e:	61bb      	str	r3, [r7, #24]
        temp &= ~((uint32_t)iocurrent);
 8001190:	693b      	ldr	r3, [r7, #16]
 8001192:	43db      	mvns	r3, r3
 8001194:	69ba      	ldr	r2, [r7, #24]
 8001196:	4013      	ands	r3, r2
 8001198:	61bb      	str	r3, [r7, #24]
        if((GPIO_Init->Mode & EXTI_EVT) != 0x00U)
 800119a:	683b      	ldr	r3, [r7, #0]
 800119c:	685b      	ldr	r3, [r3, #4]
 800119e:	f403 3300 	and.w	r3, r3, #131072	; 0x20000
 80011a2:	2b00      	cmp	r3, #0
 80011a4:	d003      	beq.n	80011ae <HAL_GPIO_Init+0x2d6>
        {
          temp |= iocurrent;
 80011a6:	69ba      	ldr	r2, [r7, #24]
 80011a8:	693b      	ldr	r3, [r7, #16]
 80011aa:	4313      	orrs	r3, r2
 80011ac:	61bb      	str	r3, [r7, #24]
        }
        EXTI->EMR = temp;
 80011ae:	4a1f      	ldr	r2, [pc, #124]	; (800122c <HAL_GPIO_Init+0x354>)
 80011b0:	69bb      	ldr	r3, [r7, #24]
 80011b2:	6053      	str	r3, [r2, #4]

        /* Clear EXTI line configuration */
        temp = EXTI->IMR;
 80011b4:	4b1d      	ldr	r3, [pc, #116]	; (800122c <HAL_GPIO_Init+0x354>)
 80011b6:	681b      	ldr	r3, [r3, #0]
 80011b8:	61bb      	str	r3, [r7, #24]
        temp &= ~((uint32_t)iocurrent);
 80011ba:	693b      	ldr	r3, [r7, #16]
 80011bc:	43db      	mvns	r3, r3
 80011be:	69ba      	ldr	r2, [r7, #24]
 80011c0:	4013      	ands	r3, r2
 80011c2:	61bb      	str	r3, [r7, #24]
        if((GPIO_Init->Mode & EXTI_IT) != 0x00U)
 80011c4:	683b      	ldr	r3, [r7, #0]
 80011c6:	685b      	ldr	r3, [r3, #4]
 80011c8:	f403 3380 	and.w	r3, r3, #65536	; 0x10000
 80011cc:	2b00      	cmp	r3, #0
 80011ce:	d003      	beq.n	80011d8 <HAL_GPIO_Init+0x300>
        {
          temp |= iocurrent;
 80011d0:	69ba      	ldr	r2, [r7, #24]
 80011d2:	693b      	ldr	r3, [r7, #16]
 80011d4:	4313      	orrs	r3, r2
 80011d6:	61bb      	str	r3, [r7, #24]
        }
        EXTI->IMR = temp;
 80011d8:	4a14      	ldr	r2, [pc, #80]	; (800122c <HAL_GPIO_Init+0x354>)
 80011da:	69bb      	ldr	r3, [r7, #24]
 80011dc:	6013      	str	r3, [r2, #0]
  for(position = 0U; position < GPIO_NUMBER; position++)
 80011de:	69fb      	ldr	r3, [r7, #28]
 80011e0:	3301      	adds	r3, #1
 80011e2:	61fb      	str	r3, [r7, #28]
 80011e4:	69fb      	ldr	r3, [r7, #28]
 80011e6:	2b0f      	cmp	r3, #15
 80011e8:	f67f ae84 	bls.w	8000ef4 <HAL_GPIO_Init+0x1c>
      }
    }
  }
}
 80011ec:	bf00      	nop
 80011ee:	bf00      	nop
 80011f0:	3724      	adds	r7, #36	; 0x24
 80011f2:	46bd      	mov	sp, r7
 80011f4:	f85d 7b04 	ldr.w	r7, [sp], #4
 80011f8:	4770      	bx	lr
 80011fa:	bf00      	nop
 80011fc:	40023800 	.word	0x40023800
 8001200:	40013800 	.word	0x40013800
 8001204:	40020000 	.word	0x40020000
 8001208:	40020400 	.word	0x40020400
 800120c:	40020800 	.word	0x40020800
 8001210:	40020c00 	.word	0x40020c00
 8001214:	40021000 	.word	0x40021000
 8001218:	40021400 	.word	0x40021400
 800121c:	40021800 	.word	0x40021800
 8001220:	40021c00 	.word	0x40021c00
 8001224:	40022000 	.word	0x40022000
 8001228:	40022400 	.word	0x40022400
 800122c:	40013c00 	.word	0x40013c00

08001230 <HAL_GPIO_WritePin>:
  *            @arg GPIO_PIN_RESET: to clear the port pin
  *            @arg GPIO_PIN_SET: to set the port pin
  * @retval None
  */
void HAL_GPIO_WritePin(GPIO_TypeDef* GPIOx, uint16_t GPIO_Pin, GPIO_PinState PinState)
{
 8001230:	b480      	push	{r7}
 8001232:	b083      	sub	sp, #12
 8001234:	af00      	add	r7, sp, #0
 8001236:	6078      	str	r0, [r7, #4]
 8001238:	460b      	mov	r3, r1
 800123a:	807b      	strh	r3, [r7, #2]
 800123c:	4613      	mov	r3, r2
 800123e:	707b      	strb	r3, [r7, #1]
  /* Check the parameters */
  assert_param(IS_GPIO_PIN(GPIO_Pin));
  assert_param(IS_GPIO_PIN_ACTION(PinState));

  if(PinState != GPIO_PIN_RESET)
 8001240:	787b      	ldrb	r3, [r7, #1]
 8001242:	2b00      	cmp	r3, #0
 8001244:	d003      	beq.n	800124e <HAL_GPIO_WritePin+0x1e>
  {
    GPIOx->BSRR = GPIO_Pin;
 8001246:	887a      	ldrh	r2, [r7, #2]
 8001248:	687b      	ldr	r3, [r7, #4]
 800124a:	619a      	str	r2, [r3, #24]
  }
  else
  {
    GPIOx->BSRR = (uint32_t)GPIO_Pin << 16U;
  }
}
 800124c:	e003      	b.n	8001256 <HAL_GPIO_WritePin+0x26>
    GPIOx->BSRR = (uint32_t)GPIO_Pin << 16U;
 800124e:	887b      	ldrh	r3, [r7, #2]
 8001250:	041a      	lsls	r2, r3, #16
 8001252:	687b      	ldr	r3, [r7, #4]
 8001254:	619a      	str	r2, [r3, #24]
}
 8001256:	bf00      	nop
 8001258:	370c      	adds	r7, #12
 800125a:	46bd      	mov	sp, r7
 800125c:	f85d 7b04 	ldr.w	r7, [sp], #4
 8001260:	4770      	bx	lr
	...

08001264 <HAL_GPIO_EXTI_IRQHandler>:
  * @brief  This function handles EXTI interrupt request.
  * @param  GPIO_Pin Specifies the pins connected EXTI line
  * @retval None
  */
void HAL_GPIO_EXTI_IRQHandler(uint16_t GPIO_Pin)
{
 8001264:	b580      	push	{r7, lr}
 8001266:	b082      	sub	sp, #8
 8001268:	af00      	add	r7, sp, #0
 800126a:	4603      	mov	r3, r0
 800126c:	80fb      	strh	r3, [r7, #6]
  /* EXTI line interrupt detected */
  if(__HAL_GPIO_EXTI_GET_IT(GPIO_Pin) != RESET)
 800126e:	4b08      	ldr	r3, [pc, #32]	; (8001290 <HAL_GPIO_EXTI_IRQHandler+0x2c>)
 8001270:	695a      	ldr	r2, [r3, #20]
 8001272:	88fb      	ldrh	r3, [r7, #6]
 8001274:	4013      	ands	r3, r2
 8001276:	2b00      	cmp	r3, #0
 8001278:	d006      	beq.n	8001288 <HAL_GPIO_EXTI_IRQHandler+0x24>
  {
    __HAL_GPIO_EXTI_CLEAR_IT(GPIO_Pin);
 800127a:	4a05      	ldr	r2, [pc, #20]	; (8001290 <HAL_GPIO_EXTI_IRQHandler+0x2c>)
 800127c:	88fb      	ldrh	r3, [r7, #6]
 800127e:	6153      	str	r3, [r2, #20]
    HAL_GPIO_EXTI_Callback(GPIO_Pin);
 8001280:	88fb      	ldrh	r3, [r7, #6]
 8001282:	4618      	mov	r0, r3
 8001284:	f000 f806 	bl	8001294 <HAL_GPIO_EXTI_Callback>
  }
}
 8001288:	bf00      	nop
 800128a:	3708      	adds	r7, #8
 800128c:	46bd      	mov	sp, r7
 800128e:	bd80      	pop	{r7, pc}
 8001290:	40013c00 	.word	0x40013c00

08001294 <HAL_GPIO_EXTI_Callback>:
  * @brief  EXTI line detection callbacks.
  * @param  GPIO_Pin Specifies the pins connected EXTI line
  * @retval None
  */
__weak void HAL_GPIO_EXTI_Callback(uint16_t GPIO_Pin)
{
 8001294:	b480      	push	{r7}
 8001296:	b083      	sub	sp, #12
 8001298:	af00      	add	r7, sp, #0
 800129a:	4603      	mov	r3, r0
 800129c:	80fb      	strh	r3, [r7, #6]
  /* Prevent unused argument(s) compilation warning */
  UNUSED(GPIO_Pin);
  /* NOTE: This function Should not be modified, when the callback is needed,
           the HAL_GPIO_EXTI_Callback could be implemented in the user file
   */
}
 800129e:	bf00      	nop
 80012a0:	370c      	adds	r7, #12
 80012a2:	46bd      	mov	sp, r7
 80012a4:	f85d 7b04 	ldr.w	r7, [sp], #4
 80012a8:	4770      	bx	lr
	...

080012ac <HAL_RCC_OscConfig>:
  *         supported by this API. User should request a transition to HSE Off
  *         first and then HSE On or HSE Bypass.
  * @retval HAL status
  */
__weak HAL_StatusTypeDef HAL_RCC_OscConfig(RCC_OscInitTypeDef  *RCC_OscInitStruct)
{
 80012ac:	b580      	push	{r7, lr}
 80012ae:	b086      	sub	sp, #24
 80012b0:	af00      	add	r7, sp, #0
 80012b2:	6078      	str	r0, [r7, #4]
  uint32_t tickstart, pll_config;

  /* Check Null pointer */
  if(RCC_OscInitStruct == NULL)
 80012b4:	687b      	ldr	r3, [r7, #4]
 80012b6:	2b00      	cmp	r3, #0
 80012b8:	d101      	bne.n	80012be <HAL_RCC_OscConfig+0x12>
  {
    return HAL_ERROR;
 80012ba:	2301      	movs	r3, #1
 80012bc:	e267      	b.n	800178e <HAL_RCC_OscConfig+0x4e2>
  }

  /* Check the parameters */
  assert_param(IS_RCC_OSCILLATORTYPE(RCC_OscInitStruct->OscillatorType));
  /*------------------------------- HSE Configuration ------------------------*/
  if(((RCC_OscInitStruct->OscillatorType) & RCC_OSCILLATORTYPE_HSE) == RCC_OSCILLATORTYPE_HSE)
 80012be:	687b      	ldr	r3, [r7, #4]
 80012c0:	681b      	ldr	r3, [r3, #0]
 80012c2:	f003 0301 	and.w	r3, r3, #1
 80012c6:	2b00      	cmp	r3, #0
 80012c8:	d075      	beq.n	80013b6 <HAL_RCC_OscConfig+0x10a>
  {
    /* Check the parameters */
    assert_param(IS_RCC_HSE(RCC_OscInitStruct->HSEState));
    /* When the HSE is used as system clock or clock source for PLL in these cases HSE will not disabled */
    if((__HAL_RCC_GET_SYSCLK_SOURCE() == RCC_CFGR_SWS_HSE) ||\
 80012ca:	4b88      	ldr	r3, [pc, #544]	; (80014ec <HAL_RCC_OscConfig+0x240>)
 80012cc:	689b      	ldr	r3, [r3, #8]
 80012ce:	f003 030c 	and.w	r3, r3, #12
 80012d2:	2b04      	cmp	r3, #4
 80012d4:	d00c      	beq.n	80012f0 <HAL_RCC_OscConfig+0x44>
      ((__HAL_RCC_GET_SYSCLK_SOURCE() == RCC_CFGR_SWS_PLL) && ((RCC->PLLCFGR & RCC_PLLCFGR_PLLSRC) == RCC_PLLCFGR_PLLSRC_HSE)))
 80012d6:	4b85      	ldr	r3, [pc, #532]	; (80014ec <HAL_RCC_OscConfig+0x240>)
 80012d8:	689b      	ldr	r3, [r3, #8]
 80012da:	f003 030c 	and.w	r3, r3, #12
    if((__HAL_RCC_GET_SYSCLK_SOURCE() == RCC_CFGR_SWS_HSE) ||\
 80012de:	2b08      	cmp	r3, #8
 80012e0:	d112      	bne.n	8001308 <HAL_RCC_OscConfig+0x5c>
      ((__HAL_RCC_GET_SYSCLK_SOURCE() == RCC_CFGR_SWS_PLL) && ((RCC->PLLCFGR & RCC_PLLCFGR_PLLSRC) == RCC_PLLCFGR_PLLSRC_HSE)))
 80012e2:	4b82      	ldr	r3, [pc, #520]	; (80014ec <HAL_RCC_OscConfig+0x240>)
 80012e4:	685b      	ldr	r3, [r3, #4]
 80012e6:	f403 0380 	and.w	r3, r3, #4194304	; 0x400000
 80012ea:	f5b3 0f80 	cmp.w	r3, #4194304	; 0x400000
 80012ee:	d10b      	bne.n	8001308 <HAL_RCC_OscConfig+0x5c>
    {
      if((__HAL_RCC_GET_FLAG(RCC_FLAG_HSERDY) != RESET) && (RCC_OscInitStruct->HSEState == RCC_HSE_OFF))
 80012f0:	4b7e      	ldr	r3, [pc, #504]	; (80014ec <HAL_RCC_OscConfig+0x240>)
 80012f2:	681b      	ldr	r3, [r3, #0]
 80012f4:	f403 3300 	and.w	r3, r3, #131072	; 0x20000
 80012f8:	2b00      	cmp	r3, #0
 80012fa:	d05b      	beq.n	80013b4 <HAL_RCC_OscConfig+0x108>
 80012fc:	687b      	ldr	r3, [r7, #4]
 80012fe:	685b      	ldr	r3, [r3, #4]
 8001300:	2b00      	cmp	r3, #0
 8001302:	d157      	bne.n	80013b4 <HAL_RCC_OscConfig+0x108>
      {
        return HAL_ERROR;
 8001304:	2301      	movs	r3, #1
 8001306:	e242      	b.n	800178e <HAL_RCC_OscConfig+0x4e2>
      }
    }
    else
    {
      /* Set the new HSE configuration ---------------------------------------*/
      __HAL_RCC_HSE_CONFIG(RCC_OscInitStruct->HSEState);
 8001308:	687b      	ldr	r3, [r7, #4]
 800130a:	685b      	ldr	r3, [r3, #4]
 800130c:	f5b3 3f80 	cmp.w	r3, #65536	; 0x10000
 8001310:	d106      	bne.n	8001320 <HAL_RCC_OscConfig+0x74>
 8001312:	4b76      	ldr	r3, [pc, #472]	; (80014ec <HAL_RCC_OscConfig+0x240>)
 8001314:	681b      	ldr	r3, [r3, #0]
 8001316:	4a75      	ldr	r2, [pc, #468]	; (80014ec <HAL_RCC_OscConfig+0x240>)
 8001318:	f443 3380 	orr.w	r3, r3, #65536	; 0x10000
 800131c:	6013      	str	r3, [r2, #0]
 800131e:	e01d      	b.n	800135c <HAL_RCC_OscConfig+0xb0>
 8001320:	687b      	ldr	r3, [r7, #4]
 8001322:	685b      	ldr	r3, [r3, #4]
 8001324:	f5b3 2fa0 	cmp.w	r3, #327680	; 0x50000
 8001328:	d10c      	bne.n	8001344 <HAL_RCC_OscConfig+0x98>
 800132a:	4b70      	ldr	r3, [pc, #448]	; (80014ec <HAL_RCC_OscConfig+0x240>)
 800132c:	681b      	ldr	r3, [r3, #0]
 800132e:	4a6f      	ldr	r2, [pc, #444]	; (80014ec <HAL_RCC_OscConfig+0x240>)
 8001330:	f443 2380 	orr.w	r3, r3, #262144	; 0x40000
 8001334:	6013      	str	r3, [r2, #0]
 8001336:	4b6d      	ldr	r3, [pc, #436]	; (80014ec <HAL_RCC_OscConfig+0x240>)
 8001338:	681b      	ldr	r3, [r3, #0]
 800133a:	4a6c      	ldr	r2, [pc, #432]	; (80014ec <HAL_RCC_OscConfig+0x240>)
 800133c:	f443 3380 	orr.w	r3, r3, #65536	; 0x10000
 8001340:	6013      	str	r3, [r2, #0]
 8001342:	e00b      	b.n	800135c <HAL_RCC_OscConfig+0xb0>
 8001344:	4b69      	ldr	r3, [pc, #420]	; (80014ec <HAL_RCC_OscConfig+0x240>)
 8001346:	681b      	ldr	r3, [r3, #0]
 8001348:	4a68      	ldr	r2, [pc, #416]	; (80014ec <HAL_RCC_OscConfig+0x240>)
 800134a:	f423 3380 	bic.w	r3, r3, #65536	; 0x10000
 800134e:	6013      	str	r3, [r2, #0]
 8001350:	4b66      	ldr	r3, [pc, #408]	; (80014ec <HAL_RCC_OscConfig+0x240>)
 8001352:	681b      	ldr	r3, [r3, #0]
 8001354:	4a65      	ldr	r2, [pc, #404]	; (80014ec <HAL_RCC_OscConfig+0x240>)
 8001356:	f423 2380 	bic.w	r3, r3, #262144	; 0x40000
 800135a:	6013      	str	r3, [r2, #0]

      /* Check the HSE State */
      if((RCC_OscInitStruct->HSEState) != RCC_HSE_OFF)
 800135c:	687b      	ldr	r3, [r7, #4]
 800135e:	685b      	ldr	r3, [r3, #4]
 8001360:	2b00      	cmp	r3, #0
 8001362:	d013      	beq.n	800138c <HAL_RCC_OscConfig+0xe0>
      {
        /* Get Start Tick */
        tickstart = HAL_GetTick();
 8001364:	f7ff fbe4 	bl	8000b30 <HAL_GetTick>
 8001368:	6138      	str	r0, [r7, #16]

        /* Wait till HSE is ready */
        while(__HAL_RCC_GET_FLAG(RCC_FLAG_HSERDY) == RESET)
 800136a:	e008      	b.n	800137e <HAL_RCC_OscConfig+0xd2>
        {
          if((HAL_GetTick() - tickstart ) > HSE_TIMEOUT_VALUE)
 800136c:	f7ff fbe0 	bl	8000b30 <HAL_GetTick>
 8001370:	4602      	mov	r2, r0
 8001372:	693b      	ldr	r3, [r7, #16]
 8001374:	1ad3      	subs	r3, r2, r3
 8001376:	2b64      	cmp	r3, #100	; 0x64
 8001378:	d901      	bls.n	800137e <HAL_RCC_OscConfig+0xd2>
          {
            return HAL_TIMEOUT;
 800137a:	2303      	movs	r3, #3
 800137c:	e207      	b.n	800178e <HAL_RCC_OscConfig+0x4e2>
        while(__HAL_RCC_GET_FLAG(RCC_FLAG_HSERDY) == RESET)
 800137e:	4b5b      	ldr	r3, [pc, #364]	; (80014ec <HAL_RCC_OscConfig+0x240>)
 8001380:	681b      	ldr	r3, [r3, #0]
 8001382:	f403 3300 	and.w	r3, r3, #131072	; 0x20000
 8001386:	2b00      	cmp	r3, #0
 8001388:	d0f0      	beq.n	800136c <HAL_RCC_OscConfig+0xc0>
 800138a:	e014      	b.n	80013b6 <HAL_RCC_OscConfig+0x10a>
        }
      }
      else
      {
        /* Get Start Tick */
        tickstart = HAL_GetTick();
 800138c:	f7ff fbd0 	bl	8000b30 <HAL_GetTick>
 8001390:	6138      	str	r0, [r7, #16]

        /* Wait till HSE is bypassed or disabled */
        while(__HAL_RCC_GET_FLAG(RCC_FLAG_HSERDY) != RESET)
 8001392:	e008      	b.n	80013a6 <HAL_RCC_OscConfig+0xfa>
        {
          if((HAL_GetTick() - tickstart ) > HSE_TIMEOUT_VALUE)
 8001394:	f7ff fbcc 	bl	8000b30 <HAL_GetTick>
 8001398:	4602      	mov	r2, r0
 800139a:	693b      	ldr	r3, [r7, #16]
 800139c:	1ad3      	subs	r3, r2, r3
 800139e:	2b64      	cmp	r3, #100	; 0x64
 80013a0:	d901      	bls.n	80013a6 <HAL_RCC_OscConfig+0xfa>
          {
            return HAL_TIMEOUT;
 80013a2:	2303      	movs	r3, #3
 80013a4:	e1f3      	b.n	800178e <HAL_RCC_OscConfig+0x4e2>
        while(__HAL_RCC_GET_FLAG(RCC_FLAG_HSERDY) != RESET)
 80013a6:	4b51      	ldr	r3, [pc, #324]	; (80014ec <HAL_RCC_OscConfig+0x240>)
 80013a8:	681b      	ldr	r3, [r3, #0]
 80013aa:	f403 3300 	and.w	r3, r3, #131072	; 0x20000
 80013ae:	2b00      	cmp	r3, #0
 80013b0:	d1f0      	bne.n	8001394 <HAL_RCC_OscConfig+0xe8>
 80013b2:	e000      	b.n	80013b6 <HAL_RCC_OscConfig+0x10a>
      if((__HAL_RCC_GET_FLAG(RCC_FLAG_HSERDY) != RESET) && (RCC_OscInitStruct->HSEState == RCC_HSE_OFF))
 80013b4:	bf00      	nop
        }
      }
    }
  }
  /*----------------------------- HSI Configuration --------------------------*/
  if(((RCC_OscInitStruct->OscillatorType) & RCC_OSCILLATORTYPE_HSI) == RCC_OSCILLATORTYPE_HSI)
 80013b6:	687b      	ldr	r3, [r7, #4]
 80013b8:	681b      	ldr	r3, [r3, #0]
 80013ba:	f003 0302 	and.w	r3, r3, #2
 80013be:	2b00      	cmp	r3, #0
 80013c0:	d063      	beq.n	800148a <HAL_RCC_OscConfig+0x1de>
    /* Check the parameters */
    assert_param(IS_RCC_HSI(RCC_OscInitStruct->HSIState));
    assert_param(IS_RCC_CALIBRATION_VALUE(RCC_OscInitStruct->HSICalibrationValue));

    /* Check if HSI is used as system clock or as PLL source when PLL is selected as system clock */
    if((__HAL_RCC_GET_SYSCLK_SOURCE() == RCC_CFGR_SWS_HSI) ||\
 80013c2:	4b4a      	ldr	r3, [pc, #296]	; (80014ec <HAL_RCC_OscConfig+0x240>)
 80013c4:	689b      	ldr	r3, [r3, #8]
 80013c6:	f003 030c 	and.w	r3, r3, #12
 80013ca:	2b00      	cmp	r3, #0
 80013cc:	d00b      	beq.n	80013e6 <HAL_RCC_OscConfig+0x13a>
      ((__HAL_RCC_GET_SYSCLK_SOURCE() == RCC_CFGR_SWS_PLL) && ((RCC->PLLCFGR & RCC_PLLCFGR_PLLSRC) == RCC_PLLCFGR_PLLSRC_HSI)))
 80013ce:	4b47      	ldr	r3, [pc, #284]	; (80014ec <HAL_RCC_OscConfig+0x240>)
 80013d0:	689b      	ldr	r3, [r3, #8]
 80013d2:	f003 030c 	and.w	r3, r3, #12
    if((__HAL_RCC_GET_SYSCLK_SOURCE() == RCC_CFGR_SWS_HSI) ||\
 80013d6:	2b08      	cmp	r3, #8
 80013d8:	d11c      	bne.n	8001414 <HAL_RCC_OscConfig+0x168>
      ((__HAL_RCC_GET_SYSCLK_SOURCE() == RCC_CFGR_SWS_PLL) && ((RCC->PLLCFGR & RCC_PLLCFGR_PLLSRC) == RCC_PLLCFGR_PLLSRC_HSI)))
 80013da:	4b44      	ldr	r3, [pc, #272]	; (80014ec <HAL_RCC_OscConfig+0x240>)
 80013dc:	685b      	ldr	r3, [r3, #4]
 80013de:	f403 0380 	and.w	r3, r3, #4194304	; 0x400000
 80013e2:	2b00      	cmp	r3, #0
 80013e4:	d116      	bne.n	8001414 <HAL_RCC_OscConfig+0x168>
    {
      /* When HSI is used as system clock it will not disabled */
      if((__HAL_RCC_GET_FLAG(RCC_FLAG_HSIRDY) != RESET) && (RCC_OscInitStruct->HSIState != RCC_HSI_ON))
 80013e6:	4b41      	ldr	r3, [pc, #260]	; (80014ec <HAL_RCC_OscConfig+0x240>)
 80013e8:	681b      	ldr	r3, [r3, #0]
 80013ea:	f003 0302 	and.w	r3, r3, #2
 80013ee:	2b00      	cmp	r3, #0
 80013f0:	d005      	beq.n	80013fe <HAL_RCC_OscConfig+0x152>
 80013f2:	687b      	ldr	r3, [r7, #4]
 80013f4:	68db      	ldr	r3, [r3, #12]
 80013f6:	2b01      	cmp	r3, #1
 80013f8:	d001      	beq.n	80013fe <HAL_RCC_OscConfig+0x152>
      {
        return HAL_ERROR;
 80013fa:	2301      	movs	r3, #1
 80013fc:	e1c7      	b.n	800178e <HAL_RCC_OscConfig+0x4e2>
      }
      /* Otherwise, just the calibration is allowed */
      else
      {
        /* Adjusts the Internal High Speed oscillator (HSI) calibration value.*/
        __HAL_RCC_HSI_CALIBRATIONVALUE_ADJUST(RCC_OscInitStruct->HSICalibrationValue);
 80013fe:	4b3b      	ldr	r3, [pc, #236]	; (80014ec <HAL_RCC_OscConfig+0x240>)
 8001400:	681b      	ldr	r3, [r3, #0]
 8001402:	f023 02f8 	bic.w	r2, r3, #248	; 0xf8
 8001406:	687b      	ldr	r3, [r7, #4]
 8001408:	691b      	ldr	r3, [r3, #16]
 800140a:	00db      	lsls	r3, r3, #3
 800140c:	4937      	ldr	r1, [pc, #220]	; (80014ec <HAL_RCC_OscConfig+0x240>)
 800140e:	4313      	orrs	r3, r2
 8001410:	600b      	str	r3, [r1, #0]
      if((__HAL_RCC_GET_FLAG(RCC_FLAG_HSIRDY) != RESET) && (RCC_OscInitStruct->HSIState != RCC_HSI_ON))
 8001412:	e03a      	b.n	800148a <HAL_RCC_OscConfig+0x1de>
      }
    }
    else
    {
      /* Check the HSI State */
      if((RCC_OscInitStruct->HSIState)!= RCC_HSI_OFF)
 8001414:	687b      	ldr	r3, [r7, #4]
 8001416:	68db      	ldr	r3, [r3, #12]
 8001418:	2b00      	cmp	r3, #0
 800141a:	d020      	beq.n	800145e <HAL_RCC_OscConfig+0x1b2>
      {
        /* Enable the Internal High Speed oscillator (HSI). */
        __HAL_RCC_HSI_ENABLE();
 800141c:	4b34      	ldr	r3, [pc, #208]	; (80014f0 <HAL_RCC_OscConfig+0x244>)
 800141e:	2201      	movs	r2, #1
 8001420:	601a      	str	r2, [r3, #0]

        /* Get Start Tick*/
        tickstart = HAL_GetTick();
 8001422:	f7ff fb85 	bl	8000b30 <HAL_GetTick>
 8001426:	6138      	str	r0, [r7, #16]

        /* Wait till HSI is ready */
        while(__HAL_RCC_GET_FLAG(RCC_FLAG_HSIRDY) == RESET)
 8001428:	e008      	b.n	800143c <HAL_RCC_OscConfig+0x190>
        {
          if((HAL_GetTick() - tickstart ) > HSI_TIMEOUT_VALUE)
 800142a:	f7ff fb81 	bl	8000b30 <HAL_GetTick>
 800142e:	4602      	mov	r2, r0
 8001430:	693b      	ldr	r3, [r7, #16]
 8001432:	1ad3      	subs	r3, r2, r3
 8001434:	2b02      	cmp	r3, #2
 8001436:	d901      	bls.n	800143c <HAL_RCC_OscConfig+0x190>
          {
            return HAL_TIMEOUT;
 8001438:	2303      	movs	r3, #3
 800143a:	e1a8      	b.n	800178e <HAL_RCC_OscConfig+0x4e2>
        while(__HAL_RCC_GET_FLAG(RCC_FLAG_HSIRDY) == RESET)
 800143c:	4b2b      	ldr	r3, [pc, #172]	; (80014ec <HAL_RCC_OscConfig+0x240>)
 800143e:	681b      	ldr	r3, [r3, #0]
 8001440:	f003 0302 	and.w	r3, r3, #2
 8001444:	2b00      	cmp	r3, #0
 8001446:	d0f0      	beq.n	800142a <HAL_RCC_OscConfig+0x17e>
          }
        }

        /* Adjusts the Internal High Speed oscillator (HSI) calibration value. */
        __HAL_RCC_HSI_CALIBRATIONVALUE_ADJUST(RCC_OscInitStruct->HSICalibrationValue);
 8001448:	4b28      	ldr	r3, [pc, #160]	; (80014ec <HAL_RCC_OscConfig+0x240>)
 800144a:	681b      	ldr	r3, [r3, #0]
 800144c:	f023 02f8 	bic.w	r2, r3, #248	; 0xf8
 8001450:	687b      	ldr	r3, [r7, #4]
 8001452:	691b      	ldr	r3, [r3, #16]
 8001454:	00db      	lsls	r3, r3, #3
 8001456:	4925      	ldr	r1, [pc, #148]	; (80014ec <HAL_RCC_OscConfig+0x240>)
 8001458:	4313      	orrs	r3, r2
 800145a:	600b      	str	r3, [r1, #0]
 800145c:	e015      	b.n	800148a <HAL_RCC_OscConfig+0x1de>
      }
      else
      {
        /* Disable the Internal High Speed oscillator (HSI). */
        __HAL_RCC_HSI_DISABLE();
 800145e:	4b24      	ldr	r3, [pc, #144]	; (80014f0 <HAL_RCC_OscConfig+0x244>)
 8001460:	2200      	movs	r2, #0
 8001462:	601a      	str	r2, [r3, #0]

        /* Get Start Tick*/
        tickstart = HAL_GetTick();
 8001464:	f7ff fb64 	bl	8000b30 <HAL_GetTick>
 8001468:	6138      	str	r0, [r7, #16]

        /* Wait till HSI is ready */
        while(__HAL_RCC_GET_FLAG(RCC_FLAG_HSIRDY) != RESET)
 800146a:	e008      	b.n	800147e <HAL_RCC_OscConfig+0x1d2>
        {
          if((HAL_GetTick() - tickstart ) > HSI_TIMEOUT_VALUE)
 800146c:	f7ff fb60 	bl	8000b30 <HAL_GetTick>
 8001470:	4602      	mov	r2, r0
 8001472:	693b      	ldr	r3, [r7, #16]
 8001474:	1ad3      	subs	r3, r2, r3
 8001476:	2b02      	cmp	r3, #2
 8001478:	d901      	bls.n	800147e <HAL_RCC_OscConfig+0x1d2>
          {
            return HAL_TIMEOUT;
 800147a:	2303      	movs	r3, #3
 800147c:	e187      	b.n	800178e <HAL_RCC_OscConfig+0x4e2>
        while(__HAL_RCC_GET_FLAG(RCC_FLAG_HSIRDY) != RESET)
 800147e:	4b1b      	ldr	r3, [pc, #108]	; (80014ec <HAL_RCC_OscConfig+0x240>)
 8001480:	681b      	ldr	r3, [r3, #0]
 8001482:	f003 0302 	and.w	r3, r3, #2
 8001486:	2b00      	cmp	r3, #0
 8001488:	d1f0      	bne.n	800146c <HAL_RCC_OscConfig+0x1c0>
        }
      }
    }
  }
  /*------------------------------ LSI Configuration -------------------------*/
  if(((RCC_OscInitStruct->OscillatorType) & RCC_OSCILLATORTYPE_LSI) == RCC_OSCILLATORTYPE_LSI)
 800148a:	687b      	ldr	r3, [r7, #4]
 800148c:	681b      	ldr	r3, [r3, #0]
 800148e:	f003 0308 	and.w	r3, r3, #8
 8001492:	2b00      	cmp	r3, #0
 8001494:	d036      	beq.n	8001504 <HAL_RCC_OscConfig+0x258>
  {
    /* Check the parameters */
    assert_param(IS_RCC_LSI(RCC_OscInitStruct->LSIState));

    /* Check the LSI State */
    if((RCC_OscInitStruct->LSIState)!= RCC_LSI_OFF)
 8001496:	687b      	ldr	r3, [r7, #4]
 8001498:	695b      	ldr	r3, [r3, #20]
 800149a:	2b00      	cmp	r3, #0
 800149c:	d016      	beq.n	80014cc <HAL_RCC_OscConfig+0x220>
    {
      /* Enable the Internal Low Speed oscillator (LSI). */
      __HAL_RCC_LSI_ENABLE();
 800149e:	4b15      	ldr	r3, [pc, #84]	; (80014f4 <HAL_RCC_OscConfig+0x248>)
 80014a0:	2201      	movs	r2, #1
 80014a2:	601a      	str	r2, [r3, #0]

      /* Get Start Tick*/
      tickstart = HAL_GetTick();
 80014a4:	f7ff fb44 	bl	8000b30 <HAL_GetTick>
 80014a8:	6138      	str	r0, [r7, #16]

      /* Wait till LSI is ready */
      while(__HAL_RCC_GET_FLAG(RCC_FLAG_LSIRDY) == RESET)
 80014aa:	e008      	b.n	80014be <HAL_RCC_OscConfig+0x212>
      {
        if((HAL_GetTick() - tickstart ) > LSI_TIMEOUT_VALUE)
 80014ac:	f7ff fb40 	bl	8000b30 <HAL_GetTick>
 80014b0:	4602      	mov	r2, r0
 80014b2:	693b      	ldr	r3, [r7, #16]
 80014b4:	1ad3      	subs	r3, r2, r3
 80014b6:	2b02      	cmp	r3, #2
 80014b8:	d901      	bls.n	80014be <HAL_RCC_OscConfig+0x212>
        {
          return HAL_TIMEOUT;
 80014ba:	2303      	movs	r3, #3
 80014bc:	e167      	b.n	800178e <HAL_RCC_OscConfig+0x4e2>
      while(__HAL_RCC_GET_FLAG(RCC_FLAG_LSIRDY) == RESET)
 80014be:	4b0b      	ldr	r3, [pc, #44]	; (80014ec <HAL_RCC_OscConfig+0x240>)
 80014c0:	6f5b      	ldr	r3, [r3, #116]	; 0x74
 80014c2:	f003 0302 	and.w	r3, r3, #2
 80014c6:	2b00      	cmp	r3, #0
 80014c8:	d0f0      	beq.n	80014ac <HAL_RCC_OscConfig+0x200>
 80014ca:	e01b      	b.n	8001504 <HAL_RCC_OscConfig+0x258>
      }
    }
    else
    {
      /* Disable the Internal Low Speed oscillator (LSI). */
      __HAL_RCC_LSI_DISABLE();
 80014cc:	4b09      	ldr	r3, [pc, #36]	; (80014f4 <HAL_RCC_OscConfig+0x248>)
 80014ce:	2200      	movs	r2, #0
 80014d0:	601a      	str	r2, [r3, #0]

      /* Get Start Tick */
      tickstart = HAL_GetTick();
 80014d2:	f7ff fb2d 	bl	8000b30 <HAL_GetTick>
 80014d6:	6138      	str	r0, [r7, #16]

      /* Wait till LSI is ready */
      while(__HAL_RCC_GET_FLAG(RCC_FLAG_LSIRDY) != RESET)
 80014d8:	e00e      	b.n	80014f8 <HAL_RCC_OscConfig+0x24c>
      {
        if((HAL_GetTick() - tickstart ) > LSI_TIMEOUT_VALUE)
 80014da:	f7ff fb29 	bl	8000b30 <HAL_GetTick>
 80014de:	4602      	mov	r2, r0
 80014e0:	693b      	ldr	r3, [r7, #16]
 80014e2:	1ad3      	subs	r3, r2, r3
 80014e4:	2b02      	cmp	r3, #2
 80014e6:	d907      	bls.n	80014f8 <HAL_RCC_OscConfig+0x24c>
        {
          return HAL_TIMEOUT;
 80014e8:	2303      	movs	r3, #3
 80014ea:	e150      	b.n	800178e <HAL_RCC_OscConfig+0x4e2>
 80014ec:	40023800 	.word	0x40023800
 80014f0:	42470000 	.word	0x42470000
 80014f4:	42470e80 	.word	0x42470e80
      while(__HAL_RCC_GET_FLAG(RCC_FLAG_LSIRDY) != RESET)
 80014f8:	4b88      	ldr	r3, [pc, #544]	; (800171c <HAL_RCC_OscConfig+0x470>)
 80014fa:	6f5b      	ldr	r3, [r3, #116]	; 0x74
 80014fc:	f003 0302 	and.w	r3, r3, #2
 8001500:	2b00      	cmp	r3, #0
 8001502:	d1ea      	bne.n	80014da <HAL_RCC_OscConfig+0x22e>
        }
      }
    }
  }
  /*------------------------------ LSE Configuration -------------------------*/
  if(((RCC_OscInitStruct->OscillatorType) & RCC_OSCILLATORTYPE_LSE) == RCC_OSCILLATORTYPE_LSE)
 8001504:	687b      	ldr	r3, [r7, #4]
 8001506:	681b      	ldr	r3, [r3, #0]
 8001508:	f003 0304 	and.w	r3, r3, #4
 800150c:	2b00      	cmp	r3, #0
 800150e:	f000 8097 	beq.w	8001640 <HAL_RCC_OscConfig+0x394>
  {
    FlagStatus       pwrclkchanged = RESET;
 8001512:	2300      	movs	r3, #0
 8001514:	75fb      	strb	r3, [r7, #23]
    /* Check the parameters */
    assert_param(IS_RCC_LSE(RCC_OscInitStruct->LSEState));

    /* Update LSE configuration in Backup Domain control register    */
    /* Requires to enable write access to Backup Domain of necessary */
    if(__HAL_RCC_PWR_IS_CLK_DISABLED())
 8001516:	4b81      	ldr	r3, [pc, #516]	; (800171c <HAL_RCC_OscConfig+0x470>)
 8001518:	6c1b      	ldr	r3, [r3, #64]	; 0x40
 800151a:	f003 5380 	and.w	r3, r3, #268435456	; 0x10000000
 800151e:	2b00      	cmp	r3, #0
 8001520:	d10f      	bne.n	8001542 <HAL_RCC_OscConfig+0x296>
    {
      __HAL_RCC_PWR_CLK_ENABLE();
 8001522:	2300      	movs	r3, #0
 8001524:	60bb      	str	r3, [r7, #8]
 8001526:	4b7d      	ldr	r3, [pc, #500]	; (800171c <HAL_RCC_OscConfig+0x470>)
 8001528:	6c1b      	ldr	r3, [r3, #64]	; 0x40
 800152a:	4a7c      	ldr	r2, [pc, #496]	; (800171c <HAL_RCC_OscConfig+0x470>)
 800152c:	f043 5380 	orr.w	r3, r3, #268435456	; 0x10000000
 8001530:	6413      	str	r3, [r2, #64]	; 0x40
 8001532:	4b7a      	ldr	r3, [pc, #488]	; (800171c <HAL_RCC_OscConfig+0x470>)
 8001534:	6c1b      	ldr	r3, [r3, #64]	; 0x40
 8001536:	f003 5380 	and.w	r3, r3, #268435456	; 0x10000000
 800153a:	60bb      	str	r3, [r7, #8]
 800153c:	68bb      	ldr	r3, [r7, #8]
      pwrclkchanged = SET;
 800153e:	2301      	movs	r3, #1
 8001540:	75fb      	strb	r3, [r7, #23]
    }

    if(HAL_IS_BIT_CLR(PWR->CR, PWR_CR_DBP))
 8001542:	4b77      	ldr	r3, [pc, #476]	; (8001720 <HAL_RCC_OscConfig+0x474>)
 8001544:	681b      	ldr	r3, [r3, #0]
 8001546:	f403 7380 	and.w	r3, r3, #256	; 0x100
 800154a:	2b00      	cmp	r3, #0
 800154c:	d118      	bne.n	8001580 <HAL_RCC_OscConfig+0x2d4>
    {
      /* Enable write access to Backup domain */
      SET_BIT(PWR->CR, PWR_CR_DBP);
 800154e:	4b74      	ldr	r3, [pc, #464]	; (8001720 <HAL_RCC_OscConfig+0x474>)
 8001550:	681b      	ldr	r3, [r3, #0]
 8001552:	4a73      	ldr	r2, [pc, #460]	; (8001720 <HAL_RCC_OscConfig+0x474>)
 8001554:	f443 7380 	orr.w	r3, r3, #256	; 0x100
 8001558:	6013      	str	r3, [r2, #0]

      /* Wait for Backup domain Write protection disable */
      tickstart = HAL_GetTick();
 800155a:	f7ff fae9 	bl	8000b30 <HAL_GetTick>
 800155e:	6138      	str	r0, [r7, #16]

      while(HAL_IS_BIT_CLR(PWR->CR, PWR_CR_DBP))
 8001560:	e008      	b.n	8001574 <HAL_RCC_OscConfig+0x2c8>
      {
        if((HAL_GetTick() - tickstart) > RCC_DBP_TIMEOUT_VALUE)
 8001562:	f7ff fae5 	bl	8000b30 <HAL_GetTick>
 8001566:	4602      	mov	r2, r0
 8001568:	693b      	ldr	r3, [r7, #16]
 800156a:	1ad3      	subs	r3, r2, r3
 800156c:	2b02      	cmp	r3, #2
 800156e:	d901      	bls.n	8001574 <HAL_RCC_OscConfig+0x2c8>
        {
          return HAL_TIMEOUT;
 8001570:	2303      	movs	r3, #3
 8001572:	e10c      	b.n	800178e <HAL_RCC_OscConfig+0x4e2>
      while(HAL_IS_BIT_CLR(PWR->CR, PWR_CR_DBP))
 8001574:	4b6a      	ldr	r3, [pc, #424]	; (8001720 <HAL_RCC_OscConfig+0x474>)
 8001576:	681b      	ldr	r3, [r3, #0]
 8001578:	f403 7380 	and.w	r3, r3, #256	; 0x100
 800157c:	2b00      	cmp	r3, #0
 800157e:	d0f0      	beq.n	8001562 <HAL_RCC_OscConfig+0x2b6>
        }
      }
    }

    /* Set the new LSE configuration -----------------------------------------*/
    __HAL_RCC_LSE_CONFIG(RCC_OscInitStruct->LSEState);
 8001580:	687b      	ldr	r3, [r7, #4]
 8001582:	689b      	ldr	r3, [r3, #8]
 8001584:	2b01      	cmp	r3, #1
 8001586:	d106      	bne.n	8001596 <HAL_RCC_OscConfig+0x2ea>
 8001588:	4b64      	ldr	r3, [pc, #400]	; (800171c <HAL_RCC_OscConfig+0x470>)
 800158a:	6f1b      	ldr	r3, [r3, #112]	; 0x70
 800158c:	4a63      	ldr	r2, [pc, #396]	; (800171c <HAL_RCC_OscConfig+0x470>)
 800158e:	f043 0301 	orr.w	r3, r3, #1
 8001592:	6713      	str	r3, [r2, #112]	; 0x70
 8001594:	e01c      	b.n	80015d0 <HAL_RCC_OscConfig+0x324>
 8001596:	687b      	ldr	r3, [r7, #4]
 8001598:	689b      	ldr	r3, [r3, #8]
 800159a:	2b05      	cmp	r3, #5
 800159c:	d10c      	bne.n	80015b8 <HAL_RCC_OscConfig+0x30c>
 800159e:	4b5f      	ldr	r3, [pc, #380]	; (800171c <HAL_RCC_OscConfig+0x470>)
 80015a0:	6f1b      	ldr	r3, [r3, #112]	; 0x70
 80015a2:	4a5e      	ldr	r2, [pc, #376]	; (800171c <HAL_RCC_OscConfig+0x470>)
 80015a4:	f043 0304 	orr.w	r3, r3, #4
 80015a8:	6713      	str	r3, [r2, #112]	; 0x70
 80015aa:	4b5c      	ldr	r3, [pc, #368]	; (800171c <HAL_RCC_OscConfig+0x470>)
 80015ac:	6f1b      	ldr	r3, [r3, #112]	; 0x70
 80015ae:	4a5b      	ldr	r2, [pc, #364]	; (800171c <HAL_RCC_OscConfig+0x470>)
 80015b0:	f043 0301 	orr.w	r3, r3, #1
 80015b4:	6713      	str	r3, [r2, #112]	; 0x70
 80015b6:	e00b      	b.n	80015d0 <HAL_RCC_OscConfig+0x324>
 80015b8:	4b58      	ldr	r3, [pc, #352]	; (800171c <HAL_RCC_OscConfig+0x470>)
 80015ba:	6f1b      	ldr	r3, [r3, #112]	; 0x70
 80015bc:	4a57      	ldr	r2, [pc, #348]	; (800171c <HAL_RCC_OscConfig+0x470>)
 80015be:	f023 0301 	bic.w	r3, r3, #1
 80015c2:	6713      	str	r3, [r2, #112]	; 0x70
 80015c4:	4b55      	ldr	r3, [pc, #340]	; (800171c <HAL_RCC_OscConfig+0x470>)
 80015c6:	6f1b      	ldr	r3, [r3, #112]	; 0x70
 80015c8:	4a54      	ldr	r2, [pc, #336]	; (800171c <HAL_RCC_OscConfig+0x470>)
 80015ca:	f023 0304 	bic.w	r3, r3, #4
 80015ce:	6713      	str	r3, [r2, #112]	; 0x70
    /* Check the LSE State */
    if((RCC_OscInitStruct->LSEState) != RCC_LSE_OFF)
 80015d0:	687b      	ldr	r3, [r7, #4]
 80015d2:	689b      	ldr	r3, [r3, #8]
 80015d4:	2b00      	cmp	r3, #0
 80015d6:	d015      	beq.n	8001604 <HAL_RCC_OscConfig+0x358>
    {
      /* Get Start Tick*/
      tickstart = HAL_GetTick();
 80015d8:	f7ff faaa 	bl	8000b30 <HAL_GetTick>
 80015dc:	6138      	str	r0, [r7, #16]

      /* Wait till LSE is ready */
      while(__HAL_RCC_GET_FLAG(RCC_FLAG_LSERDY) == RESET)
 80015de:	e00a      	b.n	80015f6 <HAL_RCC_OscConfig+0x34a>
      {
        if((HAL_GetTick() - tickstart ) > RCC_LSE_TIMEOUT_VALUE)
 80015e0:	f7ff faa6 	bl	8000b30 <HAL_GetTick>
 80015e4:	4602      	mov	r2, r0
 80015e6:	693b      	ldr	r3, [r7, #16]
 80015e8:	1ad3      	subs	r3, r2, r3
 80015ea:	f241 3288 	movw	r2, #5000	; 0x1388
 80015ee:	4293      	cmp	r3, r2
 80015f0:	d901      	bls.n	80015f6 <HAL_RCC_OscConfig+0x34a>
        {
          return HAL_TIMEOUT;
 80015f2:	2303      	movs	r3, #3
 80015f4:	e0cb      	b.n	800178e <HAL_RCC_OscConfig+0x4e2>
      while(__HAL_RCC_GET_FLAG(RCC_FLAG_LSERDY) == RESET)
 80015f6:	4b49      	ldr	r3, [pc, #292]	; (800171c <HAL_RCC_OscConfig+0x470>)
 80015f8:	6f1b      	ldr	r3, [r3, #112]	; 0x70
 80015fa:	f003 0302 	and.w	r3, r3, #2
 80015fe:	2b00      	cmp	r3, #0
 8001600:	d0ee      	beq.n	80015e0 <HAL_RCC_OscConfig+0x334>
 8001602:	e014      	b.n	800162e <HAL_RCC_OscConfig+0x382>
      }
    }
    else
    {
      /* Get Start Tick */
      tickstart = HAL_GetTick();
 8001604:	f7ff fa94 	bl	8000b30 <HAL_GetTick>
 8001608:	6138      	str	r0, [r7, #16]

      /* Wait till LSE is ready */
      while(__HAL_RCC_GET_FLAG(RCC_FLAG_LSERDY) != RESET)
 800160a:	e00a      	b.n	8001622 <HAL_RCC_OscConfig+0x376>
      {
        if((HAL_GetTick() - tickstart ) > RCC_LSE_TIMEOUT_VALUE)
 800160c:	f7ff fa90 	bl	8000b30 <HAL_GetTick>
 8001610:	4602      	mov	r2, r0
 8001612:	693b      	ldr	r3, [r7, #16]
 8001614:	1ad3      	subs	r3, r2, r3
 8001616:	f241 3288 	movw	r2, #5000	; 0x1388
 800161a:	4293      	cmp	r3, r2
 800161c:	d901      	bls.n	8001622 <HAL_RCC_OscConfig+0x376>
        {
          return HAL_TIMEOUT;
 800161e:	2303      	movs	r3, #3
 8001620:	e0b5      	b.n	800178e <HAL_RCC_OscConfig+0x4e2>
      while(__HAL_RCC_GET_FLAG(RCC_FLAG_LSERDY) != RESET)
 8001622:	4b3e      	ldr	r3, [pc, #248]	; (800171c <HAL_RCC_OscConfig+0x470>)
 8001624:	6f1b      	ldr	r3, [r3, #112]	; 0x70
 8001626:	f003 0302 	and.w	r3, r3, #2
 800162a:	2b00      	cmp	r3, #0
 800162c:	d1ee      	bne.n	800160c <HAL_RCC_OscConfig+0x360>
        }
      }
    }

    /* Restore clock configuration if changed */
    if(pwrclkchanged == SET)
 800162e:	7dfb      	ldrb	r3, [r7, #23]
 8001630:	2b01      	cmp	r3, #1
 8001632:	d105      	bne.n	8001640 <HAL_RCC_OscConfig+0x394>
    {
      __HAL_RCC_PWR_CLK_DISABLE();
 8001634:	4b39      	ldr	r3, [pc, #228]	; (800171c <HAL_RCC_OscConfig+0x470>)
 8001636:	6c1b      	ldr	r3, [r3, #64]	; 0x40
 8001638:	4a38      	ldr	r2, [pc, #224]	; (800171c <HAL_RCC_OscConfig+0x470>)
 800163a:	f023 5380 	bic.w	r3, r3, #268435456	; 0x10000000
 800163e:	6413      	str	r3, [r2, #64]	; 0x40
    }
  }
  /*-------------------------------- PLL Configuration -----------------------*/
  /* Check the parameters */
  assert_param(IS_RCC_PLL(RCC_OscInitStruct->PLL.PLLState));
  if ((RCC_OscInitStruct->PLL.PLLState) != RCC_PLL_NONE)
 8001640:	687b      	ldr	r3, [r7, #4]
 8001642:	699b      	ldr	r3, [r3, #24]
 8001644:	2b00      	cmp	r3, #0
 8001646:	f000 80a1 	beq.w	800178c <HAL_RCC_OscConfig+0x4e0>
  {
    /* Check if the PLL is used as system clock or not */
    if(__HAL_RCC_GET_SYSCLK_SOURCE() != RCC_CFGR_SWS_PLL)
 800164a:	4b34      	ldr	r3, [pc, #208]	; (800171c <HAL_RCC_OscConfig+0x470>)
 800164c:	689b      	ldr	r3, [r3, #8]
 800164e:	f003 030c 	and.w	r3, r3, #12
 8001652:	2b08      	cmp	r3, #8
 8001654:	d05c      	beq.n	8001710 <HAL_RCC_OscConfig+0x464>
    {
      if((RCC_OscInitStruct->PLL.PLLState) == RCC_PLL_ON)
 8001656:	687b      	ldr	r3, [r7, #4]
 8001658:	699b      	ldr	r3, [r3, #24]
 800165a:	2b02      	cmp	r3, #2
 800165c:	d141      	bne.n	80016e2 <HAL_RCC_OscConfig+0x436>
        assert_param(IS_RCC_PLLN_VALUE(RCC_OscInitStruct->PLL.PLLN));
        assert_param(IS_RCC_PLLP_VALUE(RCC_OscInitStruct->PLL.PLLP));
        assert_param(IS_RCC_PLLQ_VALUE(RCC_OscInitStruct->PLL.PLLQ));

        /* Disable the main PLL. */
        __HAL_RCC_PLL_DISABLE();
 800165e:	4b31      	ldr	r3, [pc, #196]	; (8001724 <HAL_RCC_OscConfig+0x478>)
 8001660:	2200      	movs	r2, #0
 8001662:	601a      	str	r2, [r3, #0]

        /* Get Start Tick */
        tickstart = HAL_GetTick();
 8001664:	f7ff fa64 	bl	8000b30 <HAL_GetTick>
 8001668:	6138      	str	r0, [r7, #16]

        /* Wait till PLL is ready */
        while(__HAL_RCC_GET_FLAG(RCC_FLAG_PLLRDY) != RESET)
 800166a:	e008      	b.n	800167e <HAL_RCC_OscConfig+0x3d2>
        {
          if((HAL_GetTick() - tickstart ) > PLL_TIMEOUT_VALUE)
 800166c:	f7ff fa60 	bl	8000b30 <HAL_GetTick>
 8001670:	4602      	mov	r2, r0
 8001672:	693b      	ldr	r3, [r7, #16]
 8001674:	1ad3      	subs	r3, r2, r3
 8001676:	2b02      	cmp	r3, #2
 8001678:	d901      	bls.n	800167e <HAL_RCC_OscConfig+0x3d2>
          {
            return HAL_TIMEOUT;
 800167a:	2303      	movs	r3, #3
 800167c:	e087      	b.n	800178e <HAL_RCC_OscConfig+0x4e2>
        while(__HAL_RCC_GET_FLAG(RCC_FLAG_PLLRDY) != RESET)
 800167e:	4b27      	ldr	r3, [pc, #156]	; (800171c <HAL_RCC_OscConfig+0x470>)
 8001680:	681b      	ldr	r3, [r3, #0]
 8001682:	f003 7300 	and.w	r3, r3, #33554432	; 0x2000000
 8001686:	2b00      	cmp	r3, #0
 8001688:	d1f0      	bne.n	800166c <HAL_RCC_OscConfig+0x3c0>
          }
        }

        /* Configure the main PLL clock source, multiplication and division factors. */
        WRITE_REG(RCC->PLLCFGR, (RCC_OscInitStruct->PLL.PLLSource                                            | \
 800168a:	687b      	ldr	r3, [r7, #4]
 800168c:	69da      	ldr	r2, [r3, #28]
 800168e:	687b      	ldr	r3, [r7, #4]
 8001690:	6a1b      	ldr	r3, [r3, #32]
 8001692:	431a      	orrs	r2, r3
 8001694:	687b      	ldr	r3, [r7, #4]
 8001696:	6a5b      	ldr	r3, [r3, #36]	; 0x24
 8001698:	019b      	lsls	r3, r3, #6
 800169a:	431a      	orrs	r2, r3
 800169c:	687b      	ldr	r3, [r7, #4]
 800169e:	6a9b      	ldr	r3, [r3, #40]	; 0x28
 80016a0:	085b      	lsrs	r3, r3, #1
 80016a2:	3b01      	subs	r3, #1
 80016a4:	041b      	lsls	r3, r3, #16
 80016a6:	431a      	orrs	r2, r3
 80016a8:	687b      	ldr	r3, [r7, #4]
 80016aa:	6adb      	ldr	r3, [r3, #44]	; 0x2c
 80016ac:	061b      	lsls	r3, r3, #24
 80016ae:	491b      	ldr	r1, [pc, #108]	; (800171c <HAL_RCC_OscConfig+0x470>)
 80016b0:	4313      	orrs	r3, r2
 80016b2:	604b      	str	r3, [r1, #4]
                                 RCC_OscInitStruct->PLL.PLLM                                                 | \
                                 (RCC_OscInitStruct->PLL.PLLN << RCC_PLLCFGR_PLLN_Pos)             | \
                                 (((RCC_OscInitStruct->PLL.PLLP >> 1U) - 1U) << RCC_PLLCFGR_PLLP_Pos) | \
                                 (RCC_OscInitStruct->PLL.PLLQ << RCC_PLLCFGR_PLLQ_Pos)));
        /* Enable the main PLL. */
        __HAL_RCC_PLL_ENABLE();
 80016b4:	4b1b      	ldr	r3, [pc, #108]	; (8001724 <HAL_RCC_OscConfig+0x478>)
 80016b6:	2201      	movs	r2, #1
 80016b8:	601a      	str	r2, [r3, #0]

        /* Get Start Tick */
        tickstart = HAL_GetTick();
 80016ba:	f7ff fa39 	bl	8000b30 <HAL_GetTick>
 80016be:	6138      	str	r0, [r7, #16]

        /* Wait till PLL is ready */
        while(__HAL_RCC_GET_FLAG(RCC_FLAG_PLLRDY) == RESET)
 80016c0:	e008      	b.n	80016d4 <HAL_RCC_OscConfig+0x428>
        {
          if((HAL_GetTick() - tickstart ) > PLL_TIMEOUT_VALUE)
 80016c2:	f7ff fa35 	bl	8000b30 <HAL_GetTick>
 80016c6:	4602      	mov	r2, r0
 80016c8:	693b      	ldr	r3, [r7, #16]
 80016ca:	1ad3      	subs	r3, r2, r3
 80016cc:	2b02      	cmp	r3, #2
 80016ce:	d901      	bls.n	80016d4 <HAL_RCC_OscConfig+0x428>
          {
            return HAL_TIMEOUT;
 80016d0:	2303      	movs	r3, #3
 80016d2:	e05c      	b.n	800178e <HAL_RCC_OscConfig+0x4e2>
        while(__HAL_RCC_GET_FLAG(RCC_FLAG_PLLRDY) == RESET)
 80016d4:	4b11      	ldr	r3, [pc, #68]	; (800171c <HAL_RCC_OscConfig+0x470>)
 80016d6:	681b      	ldr	r3, [r3, #0]
 80016d8:	f003 7300 	and.w	r3, r3, #33554432	; 0x2000000
 80016dc:	2b00      	cmp	r3, #0
 80016de:	d0f0      	beq.n	80016c2 <HAL_RCC_OscConfig+0x416>
 80016e0:	e054      	b.n	800178c <HAL_RCC_OscConfig+0x4e0>
        }
      }
      else
      {
        /* Disable the main PLL. */
        __HAL_RCC_PLL_DISABLE();
 80016e2:	4b10      	ldr	r3, [pc, #64]	; (8001724 <HAL_RCC_OscConfig+0x478>)
 80016e4:	2200      	movs	r2, #0
 80016e6:	601a      	str	r2, [r3, #0]

        /* Get Start Tick */
        tickstart = HAL_GetTick();
 80016e8:	f7ff fa22 	bl	8000b30 <HAL_GetTick>
 80016ec:	6138      	str	r0, [r7, #16]

        /* Wait till PLL is ready */
        while(__HAL_RCC_GET_FLAG(RCC_FLAG_PLLRDY) != RESET)
 80016ee:	e008      	b.n	8001702 <HAL_RCC_OscConfig+0x456>
        {
          if((HAL_GetTick() - tickstart ) > PLL_TIMEOUT_VALUE)
 80016f0:	f7ff fa1e 	bl	8000b30 <HAL_GetTick>
 80016f4:	4602      	mov	r2, r0
 80016f6:	693b      	ldr	r3, [r7, #16]
 80016f8:	1ad3      	subs	r3, r2, r3
 80016fa:	2b02      	cmp	r3, #2
 80016fc:	d901      	bls.n	8001702 <HAL_RCC_OscConfig+0x456>
          {
            return HAL_TIMEOUT;
 80016fe:	2303      	movs	r3, #3
 8001700:	e045      	b.n	800178e <HAL_RCC_OscConfig+0x4e2>
        while(__HAL_RCC_GET_FLAG(RCC_FLAG_PLLRDY) != RESET)
 8001702:	4b06      	ldr	r3, [pc, #24]	; (800171c <HAL_RCC_OscConfig+0x470>)
 8001704:	681b      	ldr	r3, [r3, #0]
 8001706:	f003 7300 	and.w	r3, r3, #33554432	; 0x2000000
 800170a:	2b00      	cmp	r3, #0
 800170c:	d1f0      	bne.n	80016f0 <HAL_RCC_OscConfig+0x444>
 800170e:	e03d      	b.n	800178c <HAL_RCC_OscConfig+0x4e0>
      }
    }
    else
    {
      /* Check if there is a request to disable the PLL used as System clock source */
      if((RCC_OscInitStruct->PLL.PLLState) == RCC_PLL_OFF)
 8001710:	687b      	ldr	r3, [r7, #4]
 8001712:	699b      	ldr	r3, [r3, #24]
 8001714:	2b01      	cmp	r3, #1
 8001716:	d107      	bne.n	8001728 <HAL_RCC_OscConfig+0x47c>
      {
        return HAL_ERROR;
 8001718:	2301      	movs	r3, #1
 800171a:	e038      	b.n	800178e <HAL_RCC_OscConfig+0x4e2>
 800171c:	40023800 	.word	0x40023800
 8001720:	40007000 	.word	0x40007000
 8001724:	42470060 	.word	0x42470060
      }
      else
      {
        /* Do not return HAL_ERROR if request repeats the current configuration */
        pll_config = RCC->PLLCFGR;
 8001728:	4b1b      	ldr	r3, [pc, #108]	; (8001798 <HAL_RCC_OscConfig+0x4ec>)
 800172a:	685b      	ldr	r3, [r3, #4]
 800172c:	60fb      	str	r3, [r7, #12]
            (READ_BIT(pll_config, RCC_PLLCFGR_PLLN) != (RCC_OscInitStruct->PLL.PLLN) << RCC_PLLCFGR_PLLN_Pos) ||
            (READ_BIT(pll_config, RCC_PLLCFGR_PLLP) != (((RCC_OscInitStruct->PLL.PLLP >> 1U) - 1U)) << RCC_PLLCFGR_PLLP_Pos) ||
            (READ_BIT(pll_config, RCC_PLLCFGR_PLLQ) != (RCC_OscInitStruct->PLL.PLLQ << RCC_PLLCFGR_PLLQ_Pos)) ||
            (READ_BIT(pll_config, RCC_PLLCFGR_PLLR) != (RCC_OscInitStruct->PLL.PLLR << RCC_PLLCFGR_PLLR_Pos)))
#else
        if (((RCC_OscInitStruct->PLL.PLLState) == RCC_PLL_OFF) ||
 800172e:	687b      	ldr	r3, [r7, #4]
 8001730:	699b      	ldr	r3, [r3, #24]
 8001732:	2b01      	cmp	r3, #1
 8001734:	d028      	beq.n	8001788 <HAL_RCC_OscConfig+0x4dc>
            (READ_BIT(pll_config, RCC_PLLCFGR_PLLSRC) != RCC_OscInitStruct->PLL.PLLSource) ||
 8001736:	68fb      	ldr	r3, [r7, #12]
 8001738:	f403 0280 	and.w	r2, r3, #4194304	; 0x400000
 800173c:	687b      	ldr	r3, [r7, #4]
 800173e:	69db      	ldr	r3, [r3, #28]
        if (((RCC_OscInitStruct->PLL.PLLState) == RCC_PLL_OFF) ||
 8001740:	429a      	cmp	r2, r3
 8001742:	d121      	bne.n	8001788 <HAL_RCC_OscConfig+0x4dc>
            (READ_BIT(pll_config, RCC_PLLCFGR_PLLM) != (RCC_OscInitStruct->PLL.PLLM) << RCC_PLLCFGR_PLLM_Pos) ||
 8001744:	68fb      	ldr	r3, [r7, #12]
 8001746:	f003 023f 	and.w	r2, r3, #63	; 0x3f
 800174a:	687b      	ldr	r3, [r7, #4]
 800174c:	6a1b      	ldr	r3, [r3, #32]
            (READ_BIT(pll_config, RCC_PLLCFGR_PLLSRC) != RCC_OscInitStruct->PLL.PLLSource) ||
 800174e:	429a      	cmp	r2, r3
 8001750:	d11a      	bne.n	8001788 <HAL_RCC_OscConfig+0x4dc>
            (READ_BIT(pll_config, RCC_PLLCFGR_PLLN) != (RCC_OscInitStruct->PLL.PLLN) << RCC_PLLCFGR_PLLN_Pos) ||
 8001752:	68fa      	ldr	r2, [r7, #12]
 8001754:	f647 73c0 	movw	r3, #32704	; 0x7fc0
 8001758:	4013      	ands	r3, r2
 800175a:	687a      	ldr	r2, [r7, #4]
 800175c:	6a52      	ldr	r2, [r2, #36]	; 0x24
 800175e:	0192      	lsls	r2, r2, #6
            (READ_BIT(pll_config, RCC_PLLCFGR_PLLM) != (RCC_OscInitStruct->PLL.PLLM) << RCC_PLLCFGR_PLLM_Pos) ||
 8001760:	4293      	cmp	r3, r2
 8001762:	d111      	bne.n	8001788 <HAL_RCC_OscConfig+0x4dc>
            (READ_BIT(pll_config, RCC_PLLCFGR_PLLP) != (((RCC_OscInitStruct->PLL.PLLP >> 1U) - 1U)) << RCC_PLLCFGR_PLLP_Pos) ||
 8001764:	68fb      	ldr	r3, [r7, #12]
 8001766:	f403 3240 	and.w	r2, r3, #196608	; 0x30000
 800176a:	687b      	ldr	r3, [r7, #4]
 800176c:	6a9b      	ldr	r3, [r3, #40]	; 0x28
 800176e:	085b      	lsrs	r3, r3, #1
 8001770:	3b01      	subs	r3, #1
 8001772:	041b      	lsls	r3, r3, #16
            (READ_BIT(pll_config, RCC_PLLCFGR_PLLN) != (RCC_OscInitStruct->PLL.PLLN) << RCC_PLLCFGR_PLLN_Pos) ||
 8001774:	429a      	cmp	r2, r3
 8001776:	d107      	bne.n	8001788 <HAL_RCC_OscConfig+0x4dc>
            (READ_BIT(pll_config, RCC_PLLCFGR_PLLQ) != (RCC_OscInitStruct->PLL.PLLQ << RCC_PLLCFGR_PLLQ_Pos)))
 8001778:	68fb      	ldr	r3, [r7, #12]
 800177a:	f003 6270 	and.w	r2, r3, #251658240	; 0xf000000
 800177e:	687b      	ldr	r3, [r7, #4]
 8001780:	6adb      	ldr	r3, [r3, #44]	; 0x2c
 8001782:	061b      	lsls	r3, r3, #24
            (READ_BIT(pll_config, RCC_PLLCFGR_PLLP) != (((RCC_OscInitStruct->PLL.PLLP >> 1U) - 1U)) << RCC_PLLCFGR_PLLP_Pos) ||
 8001784:	429a      	cmp	r2, r3
 8001786:	d001      	beq.n	800178c <HAL_RCC_OscConfig+0x4e0>
#endif
        {
          return HAL_ERROR;
 8001788:	2301      	movs	r3, #1
 800178a:	e000      	b.n	800178e <HAL_RCC_OscConfig+0x4e2>
        }
      }
    }
  }
  return HAL_OK;
 800178c:	2300      	movs	r3, #0
}
 800178e:	4618      	mov	r0, r3
 8001790:	3718      	adds	r7, #24
 8001792:	46bd      	mov	sp, r7
 8001794:	bd80      	pop	{r7, pc}
 8001796:	bf00      	nop
 8001798:	40023800 	.word	0x40023800

0800179c <HAL_RCC_ClockConfig>:
  *         HPRE[3:0] bits to ensure that HCLK not exceed the maximum allowed frequency
  *         (for more details refer to section above "Initialization/de-initialization functions")
  * @retval None
  */
HAL_StatusTypeDef HAL_RCC_ClockConfig(RCC_ClkInitTypeDef  *RCC_ClkInitStruct, uint32_t FLatency)
{
 800179c:	b580      	push	{r7, lr}
 800179e:	b084      	sub	sp, #16
 80017a0:	af00      	add	r7, sp, #0
 80017a2:	6078      	str	r0, [r7, #4]
 80017a4:	6039      	str	r1, [r7, #0]
  uint32_t tickstart;

  /* Check Null pointer */
  if(RCC_ClkInitStruct == NULL)
 80017a6:	687b      	ldr	r3, [r7, #4]
 80017a8:	2b00      	cmp	r3, #0
 80017aa:	d101      	bne.n	80017b0 <HAL_RCC_ClockConfig+0x14>
  {
    return HAL_ERROR;
 80017ac:	2301      	movs	r3, #1
 80017ae:	e0cc      	b.n	800194a <HAL_RCC_ClockConfig+0x1ae>
  /* To correctly read data from FLASH memory, the number of wait states (LATENCY)
    must be correctly programmed according to the frequency of the CPU clock
    (HCLK) and the supply voltage of the device. */

  /* Increasing the number of wait states because of higher CPU frequency */
  if(FLatency > __HAL_FLASH_GET_LATENCY())
 80017b0:	4b68      	ldr	r3, [pc, #416]	; (8001954 <HAL_RCC_ClockConfig+0x1b8>)
 80017b2:	681b      	ldr	r3, [r3, #0]
 80017b4:	f003 030f 	and.w	r3, r3, #15
 80017b8:	683a      	ldr	r2, [r7, #0]
 80017ba:	429a      	cmp	r2, r3
 80017bc:	d90c      	bls.n	80017d8 <HAL_RCC_ClockConfig+0x3c>
  {
    /* Program the new number of wait states to the LATENCY bits in the FLASH_ACR register */
    __HAL_FLASH_SET_LATENCY(FLatency);
 80017be:	4b65      	ldr	r3, [pc, #404]	; (8001954 <HAL_RCC_ClockConfig+0x1b8>)
 80017c0:	683a      	ldr	r2, [r7, #0]
 80017c2:	b2d2      	uxtb	r2, r2
 80017c4:	701a      	strb	r2, [r3, #0]

    /* Check that the new number of wait states is taken into account to access the Flash
    memory by reading the FLASH_ACR register */
    if(__HAL_FLASH_GET_LATENCY() != FLatency)
 80017c6:	4b63      	ldr	r3, [pc, #396]	; (8001954 <HAL_RCC_ClockConfig+0x1b8>)
 80017c8:	681b      	ldr	r3, [r3, #0]
 80017ca:	f003 030f 	and.w	r3, r3, #15
 80017ce:	683a      	ldr	r2, [r7, #0]
 80017d0:	429a      	cmp	r2, r3
 80017d2:	d001      	beq.n	80017d8 <HAL_RCC_ClockConfig+0x3c>
    {
      return HAL_ERROR;
 80017d4:	2301      	movs	r3, #1
 80017d6:	e0b8      	b.n	800194a <HAL_RCC_ClockConfig+0x1ae>
    }
  }

  /*-------------------------- HCLK Configuration --------------------------*/
  if(((RCC_ClkInitStruct->ClockType) & RCC_CLOCKTYPE_HCLK) == RCC_CLOCKTYPE_HCLK)
 80017d8:	687b      	ldr	r3, [r7, #4]
 80017da:	681b      	ldr	r3, [r3, #0]
 80017dc:	f003 0302 	and.w	r3, r3, #2
 80017e0:	2b00      	cmp	r3, #0
 80017e2:	d020      	beq.n	8001826 <HAL_RCC_ClockConfig+0x8a>
  {
    /* Set the highest APBx dividers in order to ensure that we do not go through
       a non-spec phase whatever we decrease or increase HCLK. */
    if(((RCC_ClkInitStruct->ClockType) & RCC_CLOCKTYPE_PCLK1) == RCC_CLOCKTYPE_PCLK1)
 80017e4:	687b      	ldr	r3, [r7, #4]
 80017e6:	681b      	ldr	r3, [r3, #0]
 80017e8:	f003 0304 	and.w	r3, r3, #4
 80017ec:	2b00      	cmp	r3, #0
 80017ee:	d005      	beq.n	80017fc <HAL_RCC_ClockConfig+0x60>
    {
      MODIFY_REG(RCC->CFGR, RCC_CFGR_PPRE1, RCC_HCLK_DIV16);
 80017f0:	4b59      	ldr	r3, [pc, #356]	; (8001958 <HAL_RCC_ClockConfig+0x1bc>)
 80017f2:	689b      	ldr	r3, [r3, #8]
 80017f4:	4a58      	ldr	r2, [pc, #352]	; (8001958 <HAL_RCC_ClockConfig+0x1bc>)
 80017f6:	f443 53e0 	orr.w	r3, r3, #7168	; 0x1c00
 80017fa:	6093      	str	r3, [r2, #8]
    }

    if(((RCC_ClkInitStruct->ClockType) & RCC_CLOCKTYPE_PCLK2) == RCC_CLOCKTYPE_PCLK2)
 80017fc:	687b      	ldr	r3, [r7, #4]
 80017fe:	681b      	ldr	r3, [r3, #0]
 8001800:	f003 0308 	and.w	r3, r3, #8
 8001804:	2b00      	cmp	r3, #0
 8001806:	d005      	beq.n	8001814 <HAL_RCC_ClockConfig+0x78>
    {
      MODIFY_REG(RCC->CFGR, RCC_CFGR_PPRE2, (RCC_HCLK_DIV16 << 3));
 8001808:	4b53      	ldr	r3, [pc, #332]	; (8001958 <HAL_RCC_ClockConfig+0x1bc>)
 800180a:	689b      	ldr	r3, [r3, #8]
 800180c:	4a52      	ldr	r2, [pc, #328]	; (8001958 <HAL_RCC_ClockConfig+0x1bc>)
 800180e:	f443 4360 	orr.w	r3, r3, #57344	; 0xe000
 8001812:	6093      	str	r3, [r2, #8]
    }

    assert_param(IS_RCC_HCLK(RCC_ClkInitStruct->AHBCLKDivider));
    MODIFY_REG(RCC->CFGR, RCC_CFGR_HPRE, RCC_ClkInitStruct->AHBCLKDivider);
 8001814:	4b50      	ldr	r3, [pc, #320]	; (8001958 <HAL_RCC_ClockConfig+0x1bc>)
 8001816:	689b      	ldr	r3, [r3, #8]
 8001818:	f023 02f0 	bic.w	r2, r3, #240	; 0xf0
 800181c:	687b      	ldr	r3, [r7, #4]
 800181e:	689b      	ldr	r3, [r3, #8]
 8001820:	494d      	ldr	r1, [pc, #308]	; (8001958 <HAL_RCC_ClockConfig+0x1bc>)
 8001822:	4313      	orrs	r3, r2
 8001824:	608b      	str	r3, [r1, #8]
  }

  /*------------------------- SYSCLK Configuration ---------------------------*/
  if(((RCC_ClkInitStruct->ClockType) & RCC_CLOCKTYPE_SYSCLK) == RCC_CLOCKTYPE_SYSCLK)
 8001826:	687b      	ldr	r3, [r7, #4]
 8001828:	681b      	ldr	r3, [r3, #0]
 800182a:	f003 0301 	and.w	r3, r3, #1
 800182e:	2b00      	cmp	r3, #0
 8001830:	d044      	beq.n	80018bc <HAL_RCC_ClockConfig+0x120>
  {
    assert_param(IS_RCC_SYSCLKSOURCE(RCC_ClkInitStruct->SYSCLKSource));

    /* HSE is selected as System Clock Source */
    if(RCC_ClkInitStruct->SYSCLKSource == RCC_SYSCLKSOURCE_HSE)
 8001832:	687b      	ldr	r3, [r7, #4]
 8001834:	685b      	ldr	r3, [r3, #4]
 8001836:	2b01      	cmp	r3, #1
 8001838:	d107      	bne.n	800184a <HAL_RCC_ClockConfig+0xae>
    {
      /* Check the HSE ready flag */
      if(__HAL_RCC_GET_FLAG(RCC_FLAG_HSERDY) == RESET)
 800183a:	4b47      	ldr	r3, [pc, #284]	; (8001958 <HAL_RCC_ClockConfig+0x1bc>)
 800183c:	681b      	ldr	r3, [r3, #0]
 800183e:	f403 3300 	and.w	r3, r3, #131072	; 0x20000
 8001842:	2b00      	cmp	r3, #0
 8001844:	d119      	bne.n	800187a <HAL_RCC_ClockConfig+0xde>
      {
        return HAL_ERROR;
 8001846:	2301      	movs	r3, #1
 8001848:	e07f      	b.n	800194a <HAL_RCC_ClockConfig+0x1ae>
      }
    }
    /* PLL is selected as System Clock Source */
    else if((RCC_ClkInitStruct->SYSCLKSource == RCC_SYSCLKSOURCE_PLLCLK)   ||
 800184a:	687b      	ldr	r3, [r7, #4]
 800184c:	685b      	ldr	r3, [r3, #4]
 800184e:	2b02      	cmp	r3, #2
 8001850:	d003      	beq.n	800185a <HAL_RCC_ClockConfig+0xbe>
            (RCC_ClkInitStruct->SYSCLKSource == RCC_SYSCLKSOURCE_PLLRCLK))
 8001852:	687b      	ldr	r3, [r7, #4]
 8001854:	685b      	ldr	r3, [r3, #4]
    else if((RCC_ClkInitStruct->SYSCLKSource == RCC_SYSCLKSOURCE_PLLCLK)   ||
 8001856:	2b03      	cmp	r3, #3
 8001858:	d107      	bne.n	800186a <HAL_RCC_ClockConfig+0xce>
    {
      /* Check the PLL ready flag */
      if(__HAL_RCC_GET_FLAG(RCC_FLAG_PLLRDY) == RESET)
 800185a:	4b3f      	ldr	r3, [pc, #252]	; (8001958 <HAL_RCC_ClockConfig+0x1bc>)
 800185c:	681b      	ldr	r3, [r3, #0]
 800185e:	f003 7300 	and.w	r3, r3, #33554432	; 0x2000000
 8001862:	2b00      	cmp	r3, #0
 8001864:	d109      	bne.n	800187a <HAL_RCC_ClockConfig+0xde>
      {
        return HAL_ERROR;
 8001866:	2301      	movs	r3, #1
 8001868:	e06f      	b.n	800194a <HAL_RCC_ClockConfig+0x1ae>
    }
    /* HSI is selected as System Clock Source */
    else
    {
      /* Check the HSI ready flag */
      if(__HAL_RCC_GET_FLAG(RCC_FLAG_HSIRDY) == RESET)
 800186a:	4b3b      	ldr	r3, [pc, #236]	; (8001958 <HAL_RCC_ClockConfig+0x1bc>)
 800186c:	681b      	ldr	r3, [r3, #0]
 800186e:	f003 0302 	and.w	r3, r3, #2
 8001872:	2b00      	cmp	r3, #0
 8001874:	d101      	bne.n	800187a <HAL_RCC_ClockConfig+0xde>
      {
        return HAL_ERROR;
 8001876:	2301      	movs	r3, #1
 8001878:	e067      	b.n	800194a <HAL_RCC_ClockConfig+0x1ae>
      }
    }

    __HAL_RCC_SYSCLK_CONFIG(RCC_ClkInitStruct->SYSCLKSource);
 800187a:	4b37      	ldr	r3, [pc, #220]	; (8001958 <HAL_RCC_ClockConfig+0x1bc>)
 800187c:	689b      	ldr	r3, [r3, #8]
 800187e:	f023 0203 	bic.w	r2, r3, #3
 8001882:	687b      	ldr	r3, [r7, #4]
 8001884:	685b      	ldr	r3, [r3, #4]
 8001886:	4934      	ldr	r1, [pc, #208]	; (8001958 <HAL_RCC_ClockConfig+0x1bc>)
 8001888:	4313      	orrs	r3, r2
 800188a:	608b      	str	r3, [r1, #8]

    /* Get Start Tick */
    tickstart = HAL_GetTick();
 800188c:	f7ff f950 	bl	8000b30 <HAL_GetTick>
 8001890:	60f8      	str	r0, [r7, #12]

    while (__HAL_RCC_GET_SYSCLK_SOURCE() != (RCC_ClkInitStruct->SYSCLKSource << RCC_CFGR_SWS_Pos))
 8001892:	e00a      	b.n	80018aa <HAL_RCC_ClockConfig+0x10e>
    {
      if ((HAL_GetTick() - tickstart) > CLOCKSWITCH_TIMEOUT_VALUE)
 8001894:	f7ff f94c 	bl	8000b30 <HAL_GetTick>
 8001898:	4602      	mov	r2, r0
 800189a:	68fb      	ldr	r3, [r7, #12]
 800189c:	1ad3      	subs	r3, r2, r3
 800189e:	f241 3288 	movw	r2, #5000	; 0x1388
 80018a2:	4293      	cmp	r3, r2
 80018a4:	d901      	bls.n	80018aa <HAL_RCC_ClockConfig+0x10e>
      {
        return HAL_TIMEOUT;
 80018a6:	2303      	movs	r3, #3
 80018a8:	e04f      	b.n	800194a <HAL_RCC_ClockConfig+0x1ae>
    while (__HAL_RCC_GET_SYSCLK_SOURCE() != (RCC_ClkInitStruct->SYSCLKSource << RCC_CFGR_SWS_Pos))
 80018aa:	4b2b      	ldr	r3, [pc, #172]	; (8001958 <HAL_RCC_ClockConfig+0x1bc>)
 80018ac:	689b      	ldr	r3, [r3, #8]
 80018ae:	f003 020c 	and.w	r2, r3, #12
 80018b2:	687b      	ldr	r3, [r7, #4]
 80018b4:	685b      	ldr	r3, [r3, #4]
 80018b6:	009b      	lsls	r3, r3, #2
 80018b8:	429a      	cmp	r2, r3
 80018ba:	d1eb      	bne.n	8001894 <HAL_RCC_ClockConfig+0xf8>
      }
    }
  }

  /* Decreasing the number of wait states because of lower CPU frequency */
  if(FLatency < __HAL_FLASH_GET_LATENCY())
 80018bc:	4b25      	ldr	r3, [pc, #148]	; (8001954 <HAL_RCC_ClockConfig+0x1b8>)
 80018be:	681b      	ldr	r3, [r3, #0]
 80018c0:	f003 030f 	and.w	r3, r3, #15
 80018c4:	683a      	ldr	r2, [r7, #0]
 80018c6:	429a      	cmp	r2, r3
 80018c8:	d20c      	bcs.n	80018e4 <HAL_RCC_ClockConfig+0x148>
  {
     /* Program the new number of wait states to the LATENCY bits in the FLASH_ACR register */
    __HAL_FLASH_SET_LATENCY(FLatency);
 80018ca:	4b22      	ldr	r3, [pc, #136]	; (8001954 <HAL_RCC_ClockConfig+0x1b8>)
 80018cc:	683a      	ldr	r2, [r7, #0]
 80018ce:	b2d2      	uxtb	r2, r2
 80018d0:	701a      	strb	r2, [r3, #0]

    /* Check that the new number of wait states is taken into account to access the Flash
    memory by reading the FLASH_ACR register */
    if(__HAL_FLASH_GET_LATENCY() != FLatency)
 80018d2:	4b20      	ldr	r3, [pc, #128]	; (8001954 <HAL_RCC_ClockConfig+0x1b8>)
 80018d4:	681b      	ldr	r3, [r3, #0]
 80018d6:	f003 030f 	and.w	r3, r3, #15
 80018da:	683a      	ldr	r2, [r7, #0]
 80018dc:	429a      	cmp	r2, r3
 80018de:	d001      	beq.n	80018e4 <HAL_RCC_ClockConfig+0x148>
    {
      return HAL_ERROR;
 80018e0:	2301      	movs	r3, #1
 80018e2:	e032      	b.n	800194a <HAL_RCC_ClockConfig+0x1ae>
    }
  }

  /*-------------------------- PCLK1 Configuration ---------------------------*/
  if(((RCC_ClkInitStruct->ClockType) & RCC_CLOCKTYPE_PCLK1) == RCC_CLOCKTYPE_PCLK1)
 80018e4:	687b      	ldr	r3, [r7, #4]
 80018e6:	681b      	ldr	r3, [r3, #0]
 80018e8:	f003 0304 	and.w	r3, r3, #4
 80018ec:	2b00      	cmp	r3, #0
 80018ee:	d008      	beq.n	8001902 <HAL_RCC_ClockConfig+0x166>
  {
    assert_param(IS_RCC_PCLK(RCC_ClkInitStruct->APB1CLKDivider));
    MODIFY_REG(RCC->CFGR, RCC_CFGR_PPRE1, RCC_ClkInitStruct->APB1CLKDivider);
 80018f0:	4b19      	ldr	r3, [pc, #100]	; (8001958 <HAL_RCC_ClockConfig+0x1bc>)
 80018f2:	689b      	ldr	r3, [r3, #8]
 80018f4:	f423 52e0 	bic.w	r2, r3, #7168	; 0x1c00
 80018f8:	687b      	ldr	r3, [r7, #4]
 80018fa:	68db      	ldr	r3, [r3, #12]
 80018fc:	4916      	ldr	r1, [pc, #88]	; (8001958 <HAL_RCC_ClockConfig+0x1bc>)
 80018fe:	4313      	orrs	r3, r2
 8001900:	608b      	str	r3, [r1, #8]
  }

  /*-------------------------- PCLK2 Configuration ---------------------------*/
  if(((RCC_ClkInitStruct->ClockType) & RCC_CLOCKTYPE_PCLK2) == RCC_CLOCKTYPE_PCLK2)
 8001902:	687b      	ldr	r3, [r7, #4]
 8001904:	681b      	ldr	r3, [r3, #0]
 8001906:	f003 0308 	and.w	r3, r3, #8
 800190a:	2b00      	cmp	r3, #0
 800190c:	d009      	beq.n	8001922 <HAL_RCC_ClockConfig+0x186>
  {
    assert_param(IS_RCC_PCLK(RCC_ClkInitStruct->APB2CLKDivider));
    MODIFY_REG(RCC->CFGR, RCC_CFGR_PPRE2, ((RCC_ClkInitStruct->APB2CLKDivider) << 3U));
 800190e:	4b12      	ldr	r3, [pc, #72]	; (8001958 <HAL_RCC_ClockConfig+0x1bc>)
 8001910:	689b      	ldr	r3, [r3, #8]
 8001912:	f423 4260 	bic.w	r2, r3, #57344	; 0xe000
 8001916:	687b      	ldr	r3, [r7, #4]
 8001918:	691b      	ldr	r3, [r3, #16]
 800191a:	00db      	lsls	r3, r3, #3
 800191c:	490e      	ldr	r1, [pc, #56]	; (8001958 <HAL_RCC_ClockConfig+0x1bc>)
 800191e:	4313      	orrs	r3, r2
 8001920:	608b      	str	r3, [r1, #8]
  }

  /* Update the SystemCoreClock global variable */
  SystemCoreClock = HAL_RCC_GetSysClockFreq() >> AHBPrescTable[(RCC->CFGR & RCC_CFGR_HPRE)>> RCC_CFGR_HPRE_Pos];
 8001922:	f000 f821 	bl	8001968 <HAL_RCC_GetSysClockFreq>
 8001926:	4602      	mov	r2, r0
 8001928:	4b0b      	ldr	r3, [pc, #44]	; (8001958 <HAL_RCC_ClockConfig+0x1bc>)
 800192a:	689b      	ldr	r3, [r3, #8]
 800192c:	091b      	lsrs	r3, r3, #4
 800192e:	f003 030f 	and.w	r3, r3, #15
 8001932:	490a      	ldr	r1, [pc, #40]	; (800195c <HAL_RCC_ClockConfig+0x1c0>)
 8001934:	5ccb      	ldrb	r3, [r1, r3]
 8001936:	fa22 f303 	lsr.w	r3, r2, r3
 800193a:	4a09      	ldr	r2, [pc, #36]	; (8001960 <HAL_RCC_ClockConfig+0x1c4>)
 800193c:	6013      	str	r3, [r2, #0]

  /* Configure the source of time base considering new system clocks settings */
  HAL_InitTick (uwTickPrio);
 800193e:	4b09      	ldr	r3, [pc, #36]	; (8001964 <HAL_RCC_ClockConfig+0x1c8>)
 8001940:	681b      	ldr	r3, [r3, #0]
 8001942:	4618      	mov	r0, r3
 8001944:	f7ff f8b0 	bl	8000aa8 <HAL_InitTick>

  return HAL_OK;
 8001948:	2300      	movs	r3, #0
}
 800194a:	4618      	mov	r0, r3
 800194c:	3710      	adds	r7, #16
 800194e:	46bd      	mov	sp, r7
 8001950:	bd80      	pop	{r7, pc}
 8001952:	bf00      	nop
 8001954:	40023c00 	.word	0x40023c00
 8001958:	40023800 	.word	0x40023800
 800195c:	0800368c 	.word	0x0800368c
 8001960:	20000000 	.word	0x20000000
 8001964:	20000004 	.word	0x20000004

08001968 <HAL_RCC_GetSysClockFreq>:
  *
  *
  * @retval SYSCLK frequency
  */
__weak uint32_t HAL_RCC_GetSysClockFreq(void)
{
 8001968:	e92d 4fb0 	stmdb	sp!, {r4, r5, r7, r8, r9, sl, fp, lr}
 800196c:	b094      	sub	sp, #80	; 0x50
 800196e:	af00      	add	r7, sp, #0
  uint32_t pllm = 0U, pllvco = 0U, pllp = 0U;
 8001970:	2300      	movs	r3, #0
 8001972:	647b      	str	r3, [r7, #68]	; 0x44
 8001974:	2300      	movs	r3, #0
 8001976:	64fb      	str	r3, [r7, #76]	; 0x4c
 8001978:	2300      	movs	r3, #0
 800197a:	643b      	str	r3, [r7, #64]	; 0x40
  uint32_t sysclockfreq = 0U;
 800197c:	2300      	movs	r3, #0
 800197e:	64bb      	str	r3, [r7, #72]	; 0x48

  /* Get SYSCLK source -------------------------------------------------------*/
  switch (RCC->CFGR & RCC_CFGR_SWS)
 8001980:	4b79      	ldr	r3, [pc, #484]	; (8001b68 <HAL_RCC_GetSysClockFreq+0x200>)
 8001982:	689b      	ldr	r3, [r3, #8]
 8001984:	f003 030c 	and.w	r3, r3, #12
 8001988:	2b08      	cmp	r3, #8
 800198a:	d00d      	beq.n	80019a8 <HAL_RCC_GetSysClockFreq+0x40>
 800198c:	2b08      	cmp	r3, #8
 800198e:	f200 80e1 	bhi.w	8001b54 <HAL_RCC_GetSysClockFreq+0x1ec>
 8001992:	2b00      	cmp	r3, #0
 8001994:	d002      	beq.n	800199c <HAL_RCC_GetSysClockFreq+0x34>
 8001996:	2b04      	cmp	r3, #4
 8001998:	d003      	beq.n	80019a2 <HAL_RCC_GetSysClockFreq+0x3a>
 800199a:	e0db      	b.n	8001b54 <HAL_RCC_GetSysClockFreq+0x1ec>
  {
    case RCC_CFGR_SWS_HSI:  /* HSI used as system clock source */
    {
      sysclockfreq = HSI_VALUE;
 800199c:	4b73      	ldr	r3, [pc, #460]	; (8001b6c <HAL_RCC_GetSysClockFreq+0x204>)
 800199e:	64bb      	str	r3, [r7, #72]	; 0x48
       break;
 80019a0:	e0db      	b.n	8001b5a <HAL_RCC_GetSysClockFreq+0x1f2>
    }
    case RCC_CFGR_SWS_HSE:  /* HSE used as system clock  source */
    {
      sysclockfreq = HSE_VALUE;
 80019a2:	4b73      	ldr	r3, [pc, #460]	; (8001b70 <HAL_RCC_GetSysClockFreq+0x208>)
 80019a4:	64bb      	str	r3, [r7, #72]	; 0x48
      break;
 80019a6:	e0d8      	b.n	8001b5a <HAL_RCC_GetSysClockFreq+0x1f2>
    }
    case RCC_CFGR_SWS_PLL:  /* PLL used as system clock  source */
    {
      /* PLL_VCO = (HSE_VALUE or HSI_VALUE / PLLM) * PLLN
      SYSCLK = PLL_VCO / PLLP */
      pllm = RCC->PLLCFGR & RCC_PLLCFGR_PLLM;
 80019a8:	4b6f      	ldr	r3, [pc, #444]	; (8001b68 <HAL_RCC_GetSysClockFreq+0x200>)
 80019aa:	685b      	ldr	r3, [r3, #4]
 80019ac:	f003 033f 	and.w	r3, r3, #63	; 0x3f
 80019b0:	647b      	str	r3, [r7, #68]	; 0x44
      if(__HAL_RCC_GET_PLL_OSCSOURCE() != RCC_PLLSOURCE_HSI)
 80019b2:	4b6d      	ldr	r3, [pc, #436]	; (8001b68 <HAL_RCC_GetSysClockFreq+0x200>)
 80019b4:	685b      	ldr	r3, [r3, #4]
 80019b6:	f403 0380 	and.w	r3, r3, #4194304	; 0x400000
 80019ba:	2b00      	cmp	r3, #0
 80019bc:	d063      	beq.n	8001a86 <HAL_RCC_GetSysClockFreq+0x11e>
      {
        /* HSE used as PLL clock source */
        pllvco = (uint32_t) ((((uint64_t) HSE_VALUE * ((uint64_t) ((RCC->PLLCFGR & RCC_PLLCFGR_PLLN) >> RCC_PLLCFGR_PLLN_Pos)))) / (uint64_t)pllm);
 80019be:	4b6a      	ldr	r3, [pc, #424]	; (8001b68 <HAL_RCC_GetSysClockFreq+0x200>)
 80019c0:	685b      	ldr	r3, [r3, #4]
 80019c2:	099b      	lsrs	r3, r3, #6
 80019c4:	2200      	movs	r2, #0
 80019c6:	63bb      	str	r3, [r7, #56]	; 0x38
 80019c8:	63fa      	str	r2, [r7, #60]	; 0x3c
 80019ca:	6bbb      	ldr	r3, [r7, #56]	; 0x38
 80019cc:	f3c3 0308 	ubfx	r3, r3, #0, #9
 80019d0:	633b      	str	r3, [r7, #48]	; 0x30
 80019d2:	2300      	movs	r3, #0
 80019d4:	637b      	str	r3, [r7, #52]	; 0x34
 80019d6:	e9d7 450c 	ldrd	r4, r5, [r7, #48]	; 0x30
 80019da:	4622      	mov	r2, r4
 80019dc:	462b      	mov	r3, r5
 80019de:	f04f 0000 	mov.w	r0, #0
 80019e2:	f04f 0100 	mov.w	r1, #0
 80019e6:	0159      	lsls	r1, r3, #5
 80019e8:	ea41 61d2 	orr.w	r1, r1, r2, lsr #27
 80019ec:	0150      	lsls	r0, r2, #5
 80019ee:	4602      	mov	r2, r0
 80019f0:	460b      	mov	r3, r1
 80019f2:	4621      	mov	r1, r4
 80019f4:	1a51      	subs	r1, r2, r1
 80019f6:	6139      	str	r1, [r7, #16]
 80019f8:	4629      	mov	r1, r5
 80019fa:	eb63 0301 	sbc.w	r3, r3, r1
 80019fe:	617b      	str	r3, [r7, #20]
 8001a00:	f04f 0200 	mov.w	r2, #0
 8001a04:	f04f 0300 	mov.w	r3, #0
 8001a08:	e9d7 ab04 	ldrd	sl, fp, [r7, #16]
 8001a0c:	4659      	mov	r1, fp
 8001a0e:	018b      	lsls	r3, r1, #6
 8001a10:	4651      	mov	r1, sl
 8001a12:	ea43 6391 	orr.w	r3, r3, r1, lsr #26
 8001a16:	4651      	mov	r1, sl
 8001a18:	018a      	lsls	r2, r1, #6
 8001a1a:	4651      	mov	r1, sl
 8001a1c:	ebb2 0801 	subs.w	r8, r2, r1
 8001a20:	4659      	mov	r1, fp
 8001a22:	eb63 0901 	sbc.w	r9, r3, r1
 8001a26:	f04f 0200 	mov.w	r2, #0
 8001a2a:	f04f 0300 	mov.w	r3, #0
 8001a2e:	ea4f 03c9 	mov.w	r3, r9, lsl #3
 8001a32:	ea43 7358 	orr.w	r3, r3, r8, lsr #29
 8001a36:	ea4f 02c8 	mov.w	r2, r8, lsl #3
 8001a3a:	4690      	mov	r8, r2
 8001a3c:	4699      	mov	r9, r3
 8001a3e:	4623      	mov	r3, r4
 8001a40:	eb18 0303 	adds.w	r3, r8, r3
 8001a44:	60bb      	str	r3, [r7, #8]
 8001a46:	462b      	mov	r3, r5
 8001a48:	eb49 0303 	adc.w	r3, r9, r3
 8001a4c:	60fb      	str	r3, [r7, #12]
 8001a4e:	f04f 0200 	mov.w	r2, #0
 8001a52:	f04f 0300 	mov.w	r3, #0
 8001a56:	e9d7 4502 	ldrd	r4, r5, [r7, #8]
 8001a5a:	4629      	mov	r1, r5
 8001a5c:	024b      	lsls	r3, r1, #9
 8001a5e:	4621      	mov	r1, r4
 8001a60:	ea43 53d1 	orr.w	r3, r3, r1, lsr #23
 8001a64:	4621      	mov	r1, r4
 8001a66:	024a      	lsls	r2, r1, #9
 8001a68:	4610      	mov	r0, r2
 8001a6a:	4619      	mov	r1, r3
 8001a6c:	6c7b      	ldr	r3, [r7, #68]	; 0x44
 8001a6e:	2200      	movs	r2, #0
 8001a70:	62bb      	str	r3, [r7, #40]	; 0x28
 8001a72:	62fa      	str	r2, [r7, #44]	; 0x2c
 8001a74:	e9d7 230a 	ldrd	r2, r3, [r7, #40]	; 0x28
 8001a78:	f7fe fbb8 	bl	80001ec <__aeabi_uldivmod>
 8001a7c:	4602      	mov	r2, r0
 8001a7e:	460b      	mov	r3, r1
 8001a80:	4613      	mov	r3, r2
 8001a82:	64fb      	str	r3, [r7, #76]	; 0x4c
 8001a84:	e058      	b.n	8001b38 <HAL_RCC_GetSysClockFreq+0x1d0>
      }
      else
      {
        /* HSI used as PLL clock source */
        pllvco = (uint32_t) ((((uint64_t) HSI_VALUE * ((uint64_t) ((RCC->PLLCFGR & RCC_PLLCFGR_PLLN) >> RCC_PLLCFGR_PLLN_Pos)))) / (uint64_t)pllm);
 8001a86:	4b38      	ldr	r3, [pc, #224]	; (8001b68 <HAL_RCC_GetSysClockFreq+0x200>)
 8001a88:	685b      	ldr	r3, [r3, #4]
 8001a8a:	099b      	lsrs	r3, r3, #6
 8001a8c:	2200      	movs	r2, #0
 8001a8e:	4618      	mov	r0, r3
 8001a90:	4611      	mov	r1, r2
 8001a92:	f3c0 0308 	ubfx	r3, r0, #0, #9
 8001a96:	623b      	str	r3, [r7, #32]
 8001a98:	2300      	movs	r3, #0
 8001a9a:	627b      	str	r3, [r7, #36]	; 0x24
 8001a9c:	e9d7 8908 	ldrd	r8, r9, [r7, #32]
 8001aa0:	4642      	mov	r2, r8
 8001aa2:	464b      	mov	r3, r9
 8001aa4:	f04f 0000 	mov.w	r0, #0
 8001aa8:	f04f 0100 	mov.w	r1, #0
 8001aac:	0159      	lsls	r1, r3, #5
 8001aae:	ea41 61d2 	orr.w	r1, r1, r2, lsr #27
 8001ab2:	0150      	lsls	r0, r2, #5
 8001ab4:	4602      	mov	r2, r0
 8001ab6:	460b      	mov	r3, r1
 8001ab8:	4641      	mov	r1, r8
 8001aba:	ebb2 0a01 	subs.w	sl, r2, r1
 8001abe:	4649      	mov	r1, r9
 8001ac0:	eb63 0b01 	sbc.w	fp, r3, r1
 8001ac4:	f04f 0200 	mov.w	r2, #0
 8001ac8:	f04f 0300 	mov.w	r3, #0
 8001acc:	ea4f 138b 	mov.w	r3, fp, lsl #6
 8001ad0:	ea43 639a 	orr.w	r3, r3, sl, lsr #26
 8001ad4:	ea4f 128a 	mov.w	r2, sl, lsl #6
 8001ad8:	ebb2 040a 	subs.w	r4, r2, sl
 8001adc:	eb63 050b 	sbc.w	r5, r3, fp
 8001ae0:	f04f 0200 	mov.w	r2, #0
 8001ae4:	f04f 0300 	mov.w	r3, #0
 8001ae8:	00eb      	lsls	r3, r5, #3
 8001aea:	ea43 7354 	orr.w	r3, r3, r4, lsr #29
 8001aee:	00e2      	lsls	r2, r4, #3
 8001af0:	4614      	mov	r4, r2
 8001af2:	461d      	mov	r5, r3
 8001af4:	4643      	mov	r3, r8
 8001af6:	18e3      	adds	r3, r4, r3
 8001af8:	603b      	str	r3, [r7, #0]
 8001afa:	464b      	mov	r3, r9
 8001afc:	eb45 0303 	adc.w	r3, r5, r3
 8001b00:	607b      	str	r3, [r7, #4]
 8001b02:	f04f 0200 	mov.w	r2, #0
 8001b06:	f04f 0300 	mov.w	r3, #0
 8001b0a:	e9d7 4500 	ldrd	r4, r5, [r7]
 8001b0e:	4629      	mov	r1, r5
 8001b10:	028b      	lsls	r3, r1, #10
 8001b12:	4621      	mov	r1, r4
 8001b14:	ea43 5391 	orr.w	r3, r3, r1, lsr #22
 8001b18:	4621      	mov	r1, r4
 8001b1a:	028a      	lsls	r2, r1, #10
 8001b1c:	4610      	mov	r0, r2
 8001b1e:	4619      	mov	r1, r3
 8001b20:	6c7b      	ldr	r3, [r7, #68]	; 0x44
 8001b22:	2200      	movs	r2, #0
 8001b24:	61bb      	str	r3, [r7, #24]
 8001b26:	61fa      	str	r2, [r7, #28]
 8001b28:	e9d7 2306 	ldrd	r2, r3, [r7, #24]
 8001b2c:	f7fe fb5e 	bl	80001ec <__aeabi_uldivmod>
 8001b30:	4602      	mov	r2, r0
 8001b32:	460b      	mov	r3, r1
 8001b34:	4613      	mov	r3, r2
 8001b36:	64fb      	str	r3, [r7, #76]	; 0x4c
      }
      pllp = ((((RCC->PLLCFGR & RCC_PLLCFGR_PLLP) >> RCC_PLLCFGR_PLLP_Pos) + 1U) *2U);
 8001b38:	4b0b      	ldr	r3, [pc, #44]	; (8001b68 <HAL_RCC_GetSysClockFreq+0x200>)
 8001b3a:	685b      	ldr	r3, [r3, #4]
 8001b3c:	0c1b      	lsrs	r3, r3, #16
 8001b3e:	f003 0303 	and.w	r3, r3, #3
 8001b42:	3301      	adds	r3, #1
 8001b44:	005b      	lsls	r3, r3, #1
 8001b46:	643b      	str	r3, [r7, #64]	; 0x40

      sysclockfreq = pllvco/pllp;
 8001b48:	6cfa      	ldr	r2, [r7, #76]	; 0x4c
 8001b4a:	6c3b      	ldr	r3, [r7, #64]	; 0x40
 8001b4c:	fbb2 f3f3 	udiv	r3, r2, r3
 8001b50:	64bb      	str	r3, [r7, #72]	; 0x48
      break;
 8001b52:	e002      	b.n	8001b5a <HAL_RCC_GetSysClockFreq+0x1f2>
    }
    default:
    {
      sysclockfreq = HSI_VALUE;
 8001b54:	4b05      	ldr	r3, [pc, #20]	; (8001b6c <HAL_RCC_GetSysClockFreq+0x204>)
 8001b56:	64bb      	str	r3, [r7, #72]	; 0x48
      break;
 8001b58:	bf00      	nop
    }
  }
  return sysclockfreq;
 8001b5a:	6cbb      	ldr	r3, [r7, #72]	; 0x48
}
 8001b5c:	4618      	mov	r0, r3
 8001b5e:	3750      	adds	r7, #80	; 0x50
 8001b60:	46bd      	mov	sp, r7
 8001b62:	e8bd 8fb0 	ldmia.w	sp!, {r4, r5, r7, r8, r9, sl, fp, pc}
 8001b66:	bf00      	nop
 8001b68:	40023800 	.word	0x40023800
 8001b6c:	00f42400 	.word	0x00f42400
 8001b70:	007a1200 	.word	0x007a1200

08001b74 <HAL_RCC_GetHCLKFreq>:
  * @note   The SystemCoreClock CMSIS variable is used to store System Clock Frequency
  *         and updated within this function
  * @retval HCLK frequency
  */
uint32_t HAL_RCC_GetHCLKFreq(void)
{
 8001b74:	b480      	push	{r7}
 8001b76:	af00      	add	r7, sp, #0
  return SystemCoreClock;
 8001b78:	4b03      	ldr	r3, [pc, #12]	; (8001b88 <HAL_RCC_GetHCLKFreq+0x14>)
 8001b7a:	681b      	ldr	r3, [r3, #0]
}
 8001b7c:	4618      	mov	r0, r3
 8001b7e:	46bd      	mov	sp, r7
 8001b80:	f85d 7b04 	ldr.w	r7, [sp], #4
 8001b84:	4770      	bx	lr
 8001b86:	bf00      	nop
 8001b88:	20000000 	.word	0x20000000

08001b8c <HAL_RCC_GetPCLK1Freq>:
  * @note   Each time PCLK1 changes, this function must be called to update the
  *         right PCLK1 value. Otherwise, any configuration based on this function will be incorrect.
  * @retval PCLK1 frequency
  */
uint32_t HAL_RCC_GetPCLK1Freq(void)
{
 8001b8c:	b580      	push	{r7, lr}
 8001b8e:	af00      	add	r7, sp, #0
  /* Get HCLK source and Compute PCLK1 frequency ---------------------------*/
  return (HAL_RCC_GetHCLKFreq() >> APBPrescTable[(RCC->CFGR & RCC_CFGR_PPRE1)>> RCC_CFGR_PPRE1_Pos]);
 8001b90:	f7ff fff0 	bl	8001b74 <HAL_RCC_GetHCLKFreq>
 8001b94:	4602      	mov	r2, r0
 8001b96:	4b05      	ldr	r3, [pc, #20]	; (8001bac <HAL_RCC_GetPCLK1Freq+0x20>)
 8001b98:	689b      	ldr	r3, [r3, #8]
 8001b9a:	0a9b      	lsrs	r3, r3, #10
 8001b9c:	f003 0307 	and.w	r3, r3, #7
 8001ba0:	4903      	ldr	r1, [pc, #12]	; (8001bb0 <HAL_RCC_GetPCLK1Freq+0x24>)
 8001ba2:	5ccb      	ldrb	r3, [r1, r3]
 8001ba4:	fa22 f303 	lsr.w	r3, r2, r3
}
 8001ba8:	4618      	mov	r0, r3
 8001baa:	bd80      	pop	{r7, pc}
 8001bac:	40023800 	.word	0x40023800
 8001bb0:	0800369c 	.word	0x0800369c

08001bb4 <HAL_RCC_GetPCLK2Freq>:
  * @note   Each time PCLK2 changes, this function must be called to update the
  *         right PCLK2 value. Otherwise, any configuration based on this function will be incorrect.
  * @retval PCLK2 frequency
  */
uint32_t HAL_RCC_GetPCLK2Freq(void)
{
 8001bb4:	b580      	push	{r7, lr}
 8001bb6:	af00      	add	r7, sp, #0
  /* Get HCLK source and Compute PCLK2 frequency ---------------------------*/
  return (HAL_RCC_GetHCLKFreq()>> APBPrescTable[(RCC->CFGR & RCC_CFGR_PPRE2)>> RCC_CFGR_PPRE2_Pos]);
 8001bb8:	f7ff ffdc 	bl	8001b74 <HAL_RCC_GetHCLKFreq>
 8001bbc:	4602      	mov	r2, r0
 8001bbe:	4b05      	ldr	r3, [pc, #20]	; (8001bd4 <HAL_RCC_GetPCLK2Freq+0x20>)
 8001bc0:	689b      	ldr	r3, [r3, #8]
 8001bc2:	0b5b      	lsrs	r3, r3, #13
 8001bc4:	f003 0307 	and.w	r3, r3, #7
 8001bc8:	4903      	ldr	r1, [pc, #12]	; (8001bd8 <HAL_RCC_GetPCLK2Freq+0x24>)
 8001bca:	5ccb      	ldrb	r3, [r1, r3]
 8001bcc:	fa22 f303 	lsr.w	r3, r2, r3
}
 8001bd0:	4618      	mov	r0, r3
 8001bd2:	bd80      	pop	{r7, pc}
 8001bd4:	40023800 	.word	0x40023800
 8001bd8:	0800369c 	.word	0x0800369c

08001bdc <HAL_UART_Init>:
  * @param  huart  Pointer to a UART_HandleTypeDef structure that contains
  *                the configuration information for the specified UART module.
  * @retval HAL status
  */
HAL_StatusTypeDef HAL_UART_Init(UART_HandleTypeDef *huart)
{
 8001bdc:	b580      	push	{r7, lr}
 8001bde:	b082      	sub	sp, #8
 8001be0:	af00      	add	r7, sp, #0
 8001be2:	6078      	str	r0, [r7, #4]
  /* Check the UART handle allocation */
  if (huart == NULL)
 8001be4:	687b      	ldr	r3, [r7, #4]
 8001be6:	2b00      	cmp	r3, #0
 8001be8:	d101      	bne.n	8001bee <HAL_UART_Init+0x12>
  {
    return HAL_ERROR;
 8001bea:	2301      	movs	r3, #1
 8001bec:	e03f      	b.n	8001c6e <HAL_UART_Init+0x92>
    assert_param(IS_UART_INSTANCE(huart->Instance));
  }
  assert_param(IS_UART_WORD_LENGTH(huart->Init.WordLength));
  assert_param(IS_UART_OVERSAMPLING(huart->Init.OverSampling));

  if (huart->gState == HAL_UART_STATE_RESET)
 8001bee:	687b      	ldr	r3, [r7, #4]
 8001bf0:	f893 303d 	ldrb.w	r3, [r3, #61]	; 0x3d
 8001bf4:	b2db      	uxtb	r3, r3
 8001bf6:	2b00      	cmp	r3, #0
 8001bf8:	d106      	bne.n	8001c08 <HAL_UART_Init+0x2c>
  {
    /* Allocate lock resource and initialize it */
    huart->Lock = HAL_UNLOCKED;
 8001bfa:	687b      	ldr	r3, [r7, #4]
 8001bfc:	2200      	movs	r2, #0
 8001bfe:	f883 203c 	strb.w	r2, [r3, #60]	; 0x3c

    /* Init the low level hardware */
    huart->MspInitCallback(huart);
#else
    /* Init the low level hardware : GPIO, CLOCK */
    HAL_UART_MspInit(huart);
 8001c02:	6878      	ldr	r0, [r7, #4]
 8001c04:	f7fe fdde 	bl	80007c4 <HAL_UART_MspInit>
#endif /* (USE_HAL_UART_REGISTER_CALLBACKS) */
  }

  huart->gState = HAL_UART_STATE_BUSY;
 8001c08:	687b      	ldr	r3, [r7, #4]
 8001c0a:	2224      	movs	r2, #36	; 0x24
 8001c0c:	f883 203d 	strb.w	r2, [r3, #61]	; 0x3d

  /* Disable the peripheral */
  __HAL_UART_DISABLE(huart);
 8001c10:	687b      	ldr	r3, [r7, #4]
 8001c12:	681b      	ldr	r3, [r3, #0]
 8001c14:	68da      	ldr	r2, [r3, #12]
 8001c16:	687b      	ldr	r3, [r7, #4]
 8001c18:	681b      	ldr	r3, [r3, #0]
 8001c1a:	f422 5200 	bic.w	r2, r2, #8192	; 0x2000
 8001c1e:	60da      	str	r2, [r3, #12]

  /* Set the UART Communication parameters */
  UART_SetConfig(huart);
 8001c20:	6878      	ldr	r0, [r7, #4]
 8001c22:	f000 fd7b 	bl	800271c <UART_SetConfig>

  /* In asynchronous mode, the following bits must be kept cleared:
     - LINEN and CLKEN bits in the USART_CR2 register,
     - SCEN, HDSEL and IREN  bits in the USART_CR3 register.*/
  CLEAR_BIT(huart->Instance->CR2, (USART_CR2_LINEN | USART_CR2_CLKEN));
 8001c26:	687b      	ldr	r3, [r7, #4]
 8001c28:	681b      	ldr	r3, [r3, #0]
 8001c2a:	691a      	ldr	r2, [r3, #16]
 8001c2c:	687b      	ldr	r3, [r7, #4]
 8001c2e:	681b      	ldr	r3, [r3, #0]
 8001c30:	f422 4290 	bic.w	r2, r2, #18432	; 0x4800
 8001c34:	611a      	str	r2, [r3, #16]
  CLEAR_BIT(huart->Instance->CR3, (USART_CR3_SCEN | USART_CR3_HDSEL | USART_CR3_IREN));
 8001c36:	687b      	ldr	r3, [r7, #4]
 8001c38:	681b      	ldr	r3, [r3, #0]
 8001c3a:	695a      	ldr	r2, [r3, #20]
 8001c3c:	687b      	ldr	r3, [r7, #4]
 8001c3e:	681b      	ldr	r3, [r3, #0]
 8001c40:	f022 022a 	bic.w	r2, r2, #42	; 0x2a
 8001c44:	615a      	str	r2, [r3, #20]

  /* Enable the peripheral */
  __HAL_UART_ENABLE(huart);
 8001c46:	687b      	ldr	r3, [r7, #4]
 8001c48:	681b      	ldr	r3, [r3, #0]
 8001c4a:	68da      	ldr	r2, [r3, #12]
 8001c4c:	687b      	ldr	r3, [r7, #4]
 8001c4e:	681b      	ldr	r3, [r3, #0]
 8001c50:	f442 5200 	orr.w	r2, r2, #8192	; 0x2000
 8001c54:	60da      	str	r2, [r3, #12]

  /* Initialize the UART state */
  huart->ErrorCode = HAL_UART_ERROR_NONE;
 8001c56:	687b      	ldr	r3, [r7, #4]
 8001c58:	2200      	movs	r2, #0
 8001c5a:	641a      	str	r2, [r3, #64]	; 0x40
  huart->gState = HAL_UART_STATE_READY;
 8001c5c:	687b      	ldr	r3, [r7, #4]
 8001c5e:	2220      	movs	r2, #32
 8001c60:	f883 203d 	strb.w	r2, [r3, #61]	; 0x3d
  huart->RxState = HAL_UART_STATE_READY;
 8001c64:	687b      	ldr	r3, [r7, #4]
 8001c66:	2220      	movs	r2, #32
 8001c68:	f883 203e 	strb.w	r2, [r3, #62]	; 0x3e

  return HAL_OK;
 8001c6c:	2300      	movs	r3, #0
}
 8001c6e:	4618      	mov	r0, r3
 8001c70:	3708      	adds	r7, #8
 8001c72:	46bd      	mov	sp, r7
 8001c74:	bd80      	pop	{r7, pc}

08001c76 <HAL_UART_Transmit>:
  * @param  Size  Amount of data elements (u8 or u16) to be sent
  * @param  Timeout Timeout duration
  * @retval HAL status
  */
HAL_StatusTypeDef HAL_UART_Transmit(UART_HandleTypeDef *huart, const uint8_t *pData, uint16_t Size, uint32_t Timeout)
{
 8001c76:	b580      	push	{r7, lr}
 8001c78:	b08a      	sub	sp, #40	; 0x28
 8001c7a:	af02      	add	r7, sp, #8
 8001c7c:	60f8      	str	r0, [r7, #12]
 8001c7e:	60b9      	str	r1, [r7, #8]
 8001c80:	603b      	str	r3, [r7, #0]
 8001c82:	4613      	mov	r3, r2
 8001c84:	80fb      	strh	r3, [r7, #6]
  const uint8_t  *pdata8bits;
  const uint16_t *pdata16bits;
  uint32_t tickstart = 0U;
 8001c86:	2300      	movs	r3, #0
 8001c88:	617b      	str	r3, [r7, #20]

  /* Check that a Tx process is not already ongoing */
  if (huart->gState == HAL_UART_STATE_READY)
 8001c8a:	68fb      	ldr	r3, [r7, #12]
 8001c8c:	f893 303d 	ldrb.w	r3, [r3, #61]	; 0x3d
 8001c90:	b2db      	uxtb	r3, r3
 8001c92:	2b20      	cmp	r3, #32
 8001c94:	d17c      	bne.n	8001d90 <HAL_UART_Transmit+0x11a>
  {
    if ((pData == NULL) || (Size == 0U))
 8001c96:	68bb      	ldr	r3, [r7, #8]
 8001c98:	2b00      	cmp	r3, #0
 8001c9a:	d002      	beq.n	8001ca2 <HAL_UART_Transmit+0x2c>
 8001c9c:	88fb      	ldrh	r3, [r7, #6]
 8001c9e:	2b00      	cmp	r3, #0
 8001ca0:	d101      	bne.n	8001ca6 <HAL_UART_Transmit+0x30>
    {
      return  HAL_ERROR;
 8001ca2:	2301      	movs	r3, #1
 8001ca4:	e075      	b.n	8001d92 <HAL_UART_Transmit+0x11c>
    }

    /* Process Locked */
    __HAL_LOCK(huart);
 8001ca6:	68fb      	ldr	r3, [r7, #12]
 8001ca8:	f893 303c 	ldrb.w	r3, [r3, #60]	; 0x3c
 8001cac:	2b01      	cmp	r3, #1
 8001cae:	d101      	bne.n	8001cb4 <HAL_UART_Transmit+0x3e>
 8001cb0:	2302      	movs	r3, #2
 8001cb2:	e06e      	b.n	8001d92 <HAL_UART_Transmit+0x11c>
 8001cb4:	68fb      	ldr	r3, [r7, #12]
 8001cb6:	2201      	movs	r2, #1
 8001cb8:	f883 203c 	strb.w	r2, [r3, #60]	; 0x3c

    huart->ErrorCode = HAL_UART_ERROR_NONE;
 8001cbc:	68fb      	ldr	r3, [r7, #12]
 8001cbe:	2200      	movs	r2, #0
 8001cc0:	641a      	str	r2, [r3, #64]	; 0x40
    huart->gState = HAL_UART_STATE_BUSY_TX;
 8001cc2:	68fb      	ldr	r3, [r7, #12]
 8001cc4:	2221      	movs	r2, #33	; 0x21
 8001cc6:	f883 203d 	strb.w	r2, [r3, #61]	; 0x3d

    /* Init tickstart for timeout management */
    tickstart = HAL_GetTick();
 8001cca:	f7fe ff31 	bl	8000b30 <HAL_GetTick>
 8001cce:	6178      	str	r0, [r7, #20]

    huart->TxXferSize = Size;
 8001cd0:	68fb      	ldr	r3, [r7, #12]
 8001cd2:	88fa      	ldrh	r2, [r7, #6]
 8001cd4:	849a      	strh	r2, [r3, #36]	; 0x24
    huart->TxXferCount = Size;
 8001cd6:	68fb      	ldr	r3, [r7, #12]
 8001cd8:	88fa      	ldrh	r2, [r7, #6]
 8001cda:	84da      	strh	r2, [r3, #38]	; 0x26

    /* In case of 9bits/No Parity transfer, pData needs to be handled as a uint16_t pointer */
    if ((huart->Init.WordLength == UART_WORDLENGTH_9B) && (huart->Init.Parity == UART_PARITY_NONE))
 8001cdc:	68fb      	ldr	r3, [r7, #12]
 8001cde:	689b      	ldr	r3, [r3, #8]
 8001ce0:	f5b3 5f80 	cmp.w	r3, #4096	; 0x1000
 8001ce4:	d108      	bne.n	8001cf8 <HAL_UART_Transmit+0x82>
 8001ce6:	68fb      	ldr	r3, [r7, #12]
 8001ce8:	691b      	ldr	r3, [r3, #16]
 8001cea:	2b00      	cmp	r3, #0
 8001cec:	d104      	bne.n	8001cf8 <HAL_UART_Transmit+0x82>
    {
      pdata8bits  = NULL;
 8001cee:	2300      	movs	r3, #0
 8001cf0:	61fb      	str	r3, [r7, #28]
      pdata16bits = (const uint16_t *) pData;
 8001cf2:	68bb      	ldr	r3, [r7, #8]
 8001cf4:	61bb      	str	r3, [r7, #24]
 8001cf6:	e003      	b.n	8001d00 <HAL_UART_Transmit+0x8a>
    }
    else
    {
      pdata8bits  = pData;
 8001cf8:	68bb      	ldr	r3, [r7, #8]
 8001cfa:	61fb      	str	r3, [r7, #28]
      pdata16bits = NULL;
 8001cfc:	2300      	movs	r3, #0
 8001cfe:	61bb      	str	r3, [r7, #24]
    }

    /* Process Unlocked */
    __HAL_UNLOCK(huart);
 8001d00:	68fb      	ldr	r3, [r7, #12]
 8001d02:	2200      	movs	r2, #0
 8001d04:	f883 203c 	strb.w	r2, [r3, #60]	; 0x3c

    while (huart->TxXferCount > 0U)
 8001d08:	e02a      	b.n	8001d60 <HAL_UART_Transmit+0xea>
    {
      if (UART_WaitOnFlagUntilTimeout(huart, UART_FLAG_TXE, RESET, tickstart, Timeout) != HAL_OK)
 8001d0a:	683b      	ldr	r3, [r7, #0]
 8001d0c:	9300      	str	r3, [sp, #0]
 8001d0e:	697b      	ldr	r3, [r7, #20]
 8001d10:	2200      	movs	r2, #0
 8001d12:	2180      	movs	r1, #128	; 0x80
 8001d14:	68f8      	ldr	r0, [r7, #12]
 8001d16:	f000 faf9 	bl	800230c <UART_WaitOnFlagUntilTimeout>
 8001d1a:	4603      	mov	r3, r0
 8001d1c:	2b00      	cmp	r3, #0
 8001d1e:	d001      	beq.n	8001d24 <HAL_UART_Transmit+0xae>
      {
        return HAL_TIMEOUT;
 8001d20:	2303      	movs	r3, #3
 8001d22:	e036      	b.n	8001d92 <HAL_UART_Transmit+0x11c>
      }
      if (pdata8bits == NULL)
 8001d24:	69fb      	ldr	r3, [r7, #28]
 8001d26:	2b00      	cmp	r3, #0
 8001d28:	d10b      	bne.n	8001d42 <HAL_UART_Transmit+0xcc>
      {
        huart->Instance->DR = (uint16_t)(*pdata16bits & 0x01FFU);
 8001d2a:	69bb      	ldr	r3, [r7, #24]
 8001d2c:	881b      	ldrh	r3, [r3, #0]
 8001d2e:	461a      	mov	r2, r3
 8001d30:	68fb      	ldr	r3, [r7, #12]
 8001d32:	681b      	ldr	r3, [r3, #0]
 8001d34:	f3c2 0208 	ubfx	r2, r2, #0, #9
 8001d38:	605a      	str	r2, [r3, #4]
        pdata16bits++;
 8001d3a:	69bb      	ldr	r3, [r7, #24]
 8001d3c:	3302      	adds	r3, #2
 8001d3e:	61bb      	str	r3, [r7, #24]
 8001d40:	e007      	b.n	8001d52 <HAL_UART_Transmit+0xdc>
      }
      else
      {
        huart->Instance->DR = (uint8_t)(*pdata8bits & 0xFFU);
 8001d42:	69fb      	ldr	r3, [r7, #28]
 8001d44:	781a      	ldrb	r2, [r3, #0]
 8001d46:	68fb      	ldr	r3, [r7, #12]
 8001d48:	681b      	ldr	r3, [r3, #0]
 8001d4a:	605a      	str	r2, [r3, #4]
        pdata8bits++;
 8001d4c:	69fb      	ldr	r3, [r7, #28]
 8001d4e:	3301      	adds	r3, #1
 8001d50:	61fb      	str	r3, [r7, #28]
      }
      huart->TxXferCount--;
 8001d52:	68fb      	ldr	r3, [r7, #12]
 8001d54:	8cdb      	ldrh	r3, [r3, #38]	; 0x26
 8001d56:	b29b      	uxth	r3, r3
 8001d58:	3b01      	subs	r3, #1
 8001d5a:	b29a      	uxth	r2, r3
 8001d5c:	68fb      	ldr	r3, [r7, #12]
 8001d5e:	84da      	strh	r2, [r3, #38]	; 0x26
    while (huart->TxXferCount > 0U)
 8001d60:	68fb      	ldr	r3, [r7, #12]
 8001d62:	8cdb      	ldrh	r3, [r3, #38]	; 0x26
 8001d64:	b29b      	uxth	r3, r3
 8001d66:	2b00      	cmp	r3, #0
 8001d68:	d1cf      	bne.n	8001d0a <HAL_UART_Transmit+0x94>
    }

    if (UART_WaitOnFlagUntilTimeout(huart, UART_FLAG_TC, RESET, tickstart, Timeout) != HAL_OK)
 8001d6a:	683b      	ldr	r3, [r7, #0]
 8001d6c:	9300      	str	r3, [sp, #0]
 8001d6e:	697b      	ldr	r3, [r7, #20]
 8001d70:	2200      	movs	r2, #0
 8001d72:	2140      	movs	r1, #64	; 0x40
 8001d74:	68f8      	ldr	r0, [r7, #12]
 8001d76:	f000 fac9 	bl	800230c <UART_WaitOnFlagUntilTimeout>
 8001d7a:	4603      	mov	r3, r0
 8001d7c:	2b00      	cmp	r3, #0
 8001d7e:	d001      	beq.n	8001d84 <HAL_UART_Transmit+0x10e>
    {
      return HAL_TIMEOUT;
 8001d80:	2303      	movs	r3, #3
 8001d82:	e006      	b.n	8001d92 <HAL_UART_Transmit+0x11c>
    }

    /* At end of Tx process, restore huart->gState to Ready */
    huart->gState = HAL_UART_STATE_READY;
 8001d84:	68fb      	ldr	r3, [r7, #12]
 8001d86:	2220      	movs	r2, #32
 8001d88:	f883 203d 	strb.w	r2, [r3, #61]	; 0x3d

    return HAL_OK;
 8001d8c:	2300      	movs	r3, #0
 8001d8e:	e000      	b.n	8001d92 <HAL_UART_Transmit+0x11c>
  }
  else
  {
    return HAL_BUSY;
 8001d90:	2302      	movs	r3, #2
  }
}
 8001d92:	4618      	mov	r0, r3
 8001d94:	3720      	adds	r7, #32
 8001d96:	46bd      	mov	sp, r7
 8001d98:	bd80      	pop	{r7, pc}
	...

08001d9c <HAL_UART_IRQHandler>:
  * @param  huart  Pointer to a UART_HandleTypeDef structure that contains
  *                the configuration information for the specified UART module.
  * @retval None
  */
void HAL_UART_IRQHandler(UART_HandleTypeDef *huart)
{
 8001d9c:	b580      	push	{r7, lr}
 8001d9e:	b0ba      	sub	sp, #232	; 0xe8
 8001da0:	af00      	add	r7, sp, #0
 8001da2:	6078      	str	r0, [r7, #4]
  uint32_t isrflags   = READ_REG(huart->Instance->SR);
 8001da4:	687b      	ldr	r3, [r7, #4]
 8001da6:	681b      	ldr	r3, [r3, #0]
 8001da8:	681b      	ldr	r3, [r3, #0]
 8001daa:	f8c7 30e4 	str.w	r3, [r7, #228]	; 0xe4
  uint32_t cr1its     = READ_REG(huart->Instance->CR1);
 8001dae:	687b      	ldr	r3, [r7, #4]
 8001db0:	681b      	ldr	r3, [r3, #0]
 8001db2:	68db      	ldr	r3, [r3, #12]
 8001db4:	f8c7 30e0 	str.w	r3, [r7, #224]	; 0xe0
  uint32_t cr3its     = READ_REG(huart->Instance->CR3);
 8001db8:	687b      	ldr	r3, [r7, #4]
 8001dba:	681b      	ldr	r3, [r3, #0]
 8001dbc:	695b      	ldr	r3, [r3, #20]
 8001dbe:	f8c7 30dc 	str.w	r3, [r7, #220]	; 0xdc
  uint32_t errorflags = 0x00U;
 8001dc2:	2300      	movs	r3, #0
 8001dc4:	f8c7 30d8 	str.w	r3, [r7, #216]	; 0xd8
  uint32_t dmarequest = 0x00U;
 8001dc8:	2300      	movs	r3, #0
 8001dca:	f8c7 30d4 	str.w	r3, [r7, #212]	; 0xd4

  /* If no error occurs */
  errorflags = (isrflags & (uint32_t)(USART_SR_PE | USART_SR_FE | USART_SR_ORE | USART_SR_NE));
 8001dce:	f8d7 30e4 	ldr.w	r3, [r7, #228]	; 0xe4
 8001dd2:	f003 030f 	and.w	r3, r3, #15
 8001dd6:	f8c7 30d8 	str.w	r3, [r7, #216]	; 0xd8
  if (errorflags == RESET)
 8001dda:	f8d7 30d8 	ldr.w	r3, [r7, #216]	; 0xd8
 8001dde:	2b00      	cmp	r3, #0
 8001de0:	d10f      	bne.n	8001e02 <HAL_UART_IRQHandler+0x66>
  {
    /* UART in mode Receiver -------------------------------------------------*/
    if (((isrflags & USART_SR_RXNE) != RESET) && ((cr1its & USART_CR1_RXNEIE) != RESET))
 8001de2:	f8d7 30e4 	ldr.w	r3, [r7, #228]	; 0xe4
 8001de6:	f003 0320 	and.w	r3, r3, #32
 8001dea:	2b00      	cmp	r3, #0
 8001dec:	d009      	beq.n	8001e02 <HAL_UART_IRQHandler+0x66>
 8001dee:	f8d7 30e0 	ldr.w	r3, [r7, #224]	; 0xe0
 8001df2:	f003 0320 	and.w	r3, r3, #32
 8001df6:	2b00      	cmp	r3, #0
 8001df8:	d003      	beq.n	8001e02 <HAL_UART_IRQHandler+0x66>
    {
      UART_Receive_IT(huart);
 8001dfa:	6878      	ldr	r0, [r7, #4]
 8001dfc:	f000 fbd3 	bl	80025a6 <UART_Receive_IT>
      return;
 8001e00:	e256      	b.n	80022b0 <HAL_UART_IRQHandler+0x514>
    }
  }

  /* If some errors occur */
  if ((errorflags != RESET) && (((cr3its & USART_CR3_EIE) != RESET)
 8001e02:	f8d7 30d8 	ldr.w	r3, [r7, #216]	; 0xd8
 8001e06:	2b00      	cmp	r3, #0
 8001e08:	f000 80de 	beq.w	8001fc8 <HAL_UART_IRQHandler+0x22c>
 8001e0c:	f8d7 30dc 	ldr.w	r3, [r7, #220]	; 0xdc
 8001e10:	f003 0301 	and.w	r3, r3, #1
 8001e14:	2b00      	cmp	r3, #0
 8001e16:	d106      	bne.n	8001e26 <HAL_UART_IRQHandler+0x8a>
                                || ((cr1its & (USART_CR1_RXNEIE | USART_CR1_PEIE)) != RESET)))
 8001e18:	f8d7 30e0 	ldr.w	r3, [r7, #224]	; 0xe0
 8001e1c:	f403 7390 	and.w	r3, r3, #288	; 0x120
 8001e20:	2b00      	cmp	r3, #0
 8001e22:	f000 80d1 	beq.w	8001fc8 <HAL_UART_IRQHandler+0x22c>
  {
    /* UART parity error interrupt occurred ----------------------------------*/
    if (((isrflags & USART_SR_PE) != RESET) && ((cr1its & USART_CR1_PEIE) != RESET))
 8001e26:	f8d7 30e4 	ldr.w	r3, [r7, #228]	; 0xe4
 8001e2a:	f003 0301 	and.w	r3, r3, #1
 8001e2e:	2b00      	cmp	r3, #0
 8001e30:	d00b      	beq.n	8001e4a <HAL_UART_IRQHandler+0xae>
 8001e32:	f8d7 30e0 	ldr.w	r3, [r7, #224]	; 0xe0
 8001e36:	f403 7380 	and.w	r3, r3, #256	; 0x100
 8001e3a:	2b00      	cmp	r3, #0
 8001e3c:	d005      	beq.n	8001e4a <HAL_UART_IRQHandler+0xae>
    {
      huart->ErrorCode |= HAL_UART_ERROR_PE;
 8001e3e:	687b      	ldr	r3, [r7, #4]
 8001e40:	6c1b      	ldr	r3, [r3, #64]	; 0x40
 8001e42:	f043 0201 	orr.w	r2, r3, #1
 8001e46:	687b      	ldr	r3, [r7, #4]
 8001e48:	641a      	str	r2, [r3, #64]	; 0x40
    }

    /* UART noise error interrupt occurred -----------------------------------*/
    if (((isrflags & USART_SR_NE) != RESET) && ((cr3its & USART_CR3_EIE) != RESET))
 8001e4a:	f8d7 30e4 	ldr.w	r3, [r7, #228]	; 0xe4
 8001e4e:	f003 0304 	and.w	r3, r3, #4
 8001e52:	2b00      	cmp	r3, #0
 8001e54:	d00b      	beq.n	8001e6e <HAL_UART_IRQHandler+0xd2>
 8001e56:	f8d7 30dc 	ldr.w	r3, [r7, #220]	; 0xdc
 8001e5a:	f003 0301 	and.w	r3, r3, #1
 8001e5e:	2b00      	cmp	r3, #0
 8001e60:	d005      	beq.n	8001e6e <HAL_UART_IRQHandler+0xd2>
    {
      huart->ErrorCode |= HAL_UART_ERROR_NE;
 8001e62:	687b      	ldr	r3, [r7, #4]
 8001e64:	6c1b      	ldr	r3, [r3, #64]	; 0x40
 8001e66:	f043 0202 	orr.w	r2, r3, #2
 8001e6a:	687b      	ldr	r3, [r7, #4]
 8001e6c:	641a      	str	r2, [r3, #64]	; 0x40
    }

    /* UART frame error interrupt occurred -----------------------------------*/
    if (((isrflags & USART_SR_FE) != RESET) && ((cr3its & USART_CR3_EIE) != RESET))
 8001e6e:	f8d7 30e4 	ldr.w	r3, [r7, #228]	; 0xe4
 8001e72:	f003 0302 	and.w	r3, r3, #2
 8001e76:	2b00      	cmp	r3, #0
 8001e78:	d00b      	beq.n	8001e92 <HAL_UART_IRQHandler+0xf6>
 8001e7a:	f8d7 30dc 	ldr.w	r3, [r7, #220]	; 0xdc
 8001e7e:	f003 0301 	and.w	r3, r3, #1
 8001e82:	2b00      	cmp	r3, #0
 8001e84:	d005      	beq.n	8001e92 <HAL_UART_IRQHandler+0xf6>
    {
      huart->ErrorCode |= HAL_UART_ERROR_FE;
 8001e86:	687b      	ldr	r3, [r7, #4]
 8001e88:	6c1b      	ldr	r3, [r3, #64]	; 0x40
 8001e8a:	f043 0204 	orr.w	r2, r3, #4
 8001e8e:	687b      	ldr	r3, [r7, #4]
 8001e90:	641a      	str	r2, [r3, #64]	; 0x40
    }

    /* UART Over-Run interrupt occurred --------------------------------------*/
    if (((isrflags & USART_SR_ORE) != RESET) && (((cr1its & USART_CR1_RXNEIE) != RESET)
 8001e92:	f8d7 30e4 	ldr.w	r3, [r7, #228]	; 0xe4
 8001e96:	f003 0308 	and.w	r3, r3, #8
 8001e9a:	2b00      	cmp	r3, #0
 8001e9c:	d011      	beq.n	8001ec2 <HAL_UART_IRQHandler+0x126>
 8001e9e:	f8d7 30e0 	ldr.w	r3, [r7, #224]	; 0xe0
 8001ea2:	f003 0320 	and.w	r3, r3, #32
 8001ea6:	2b00      	cmp	r3, #0
 8001ea8:	d105      	bne.n	8001eb6 <HAL_UART_IRQHandler+0x11a>
                                                 || ((cr3its & USART_CR3_EIE) != RESET)))
 8001eaa:	f8d7 30dc 	ldr.w	r3, [r7, #220]	; 0xdc
 8001eae:	f003 0301 	and.w	r3, r3, #1
 8001eb2:	2b00      	cmp	r3, #0
 8001eb4:	d005      	beq.n	8001ec2 <HAL_UART_IRQHandler+0x126>
    {
      huart->ErrorCode |= HAL_UART_ERROR_ORE;
 8001eb6:	687b      	ldr	r3, [r7, #4]
 8001eb8:	6c1b      	ldr	r3, [r3, #64]	; 0x40
 8001eba:	f043 0208 	orr.w	r2, r3, #8
 8001ebe:	687b      	ldr	r3, [r7, #4]
 8001ec0:	641a      	str	r2, [r3, #64]	; 0x40
    }

    /* Call UART Error Call back function if need be --------------------------*/
    if (huart->ErrorCode != HAL_UART_ERROR_NONE)
 8001ec2:	687b      	ldr	r3, [r7, #4]
 8001ec4:	6c1b      	ldr	r3, [r3, #64]	; 0x40
 8001ec6:	2b00      	cmp	r3, #0
 8001ec8:	f000 81ed 	beq.w	80022a6 <HAL_UART_IRQHandler+0x50a>
    {
      /* UART in mode Receiver -----------------------------------------------*/
      if (((isrflags & USART_SR_RXNE) != RESET) && ((cr1its & USART_CR1_RXNEIE) != RESET))
 8001ecc:	f8d7 30e4 	ldr.w	r3, [r7, #228]	; 0xe4
 8001ed0:	f003 0320 	and.w	r3, r3, #32
 8001ed4:	2b00      	cmp	r3, #0
 8001ed6:	d008      	beq.n	8001eea <HAL_UART_IRQHandler+0x14e>
 8001ed8:	f8d7 30e0 	ldr.w	r3, [r7, #224]	; 0xe0
 8001edc:	f003 0320 	and.w	r3, r3, #32
 8001ee0:	2b00      	cmp	r3, #0
 8001ee2:	d002      	beq.n	8001eea <HAL_UART_IRQHandler+0x14e>
      {
        UART_Receive_IT(huart);
 8001ee4:	6878      	ldr	r0, [r7, #4]
 8001ee6:	f000 fb5e 	bl	80025a6 <UART_Receive_IT>
      }

      /* If Overrun error occurs, or if any error occurs in DMA mode reception,
         consider error as blocking */
      dmarequest = HAL_IS_BIT_SET(huart->Instance->CR3, USART_CR3_DMAR);
 8001eea:	687b      	ldr	r3, [r7, #4]
 8001eec:	681b      	ldr	r3, [r3, #0]
 8001eee:	695b      	ldr	r3, [r3, #20]
 8001ef0:	f003 0340 	and.w	r3, r3, #64	; 0x40
 8001ef4:	2b40      	cmp	r3, #64	; 0x40
 8001ef6:	bf0c      	ite	eq
 8001ef8:	2301      	moveq	r3, #1
 8001efa:	2300      	movne	r3, #0
 8001efc:	b2db      	uxtb	r3, r3
 8001efe:	f8c7 30d4 	str.w	r3, [r7, #212]	; 0xd4
      if (((huart->ErrorCode & HAL_UART_ERROR_ORE) != RESET) || dmarequest)
 8001f02:	687b      	ldr	r3, [r7, #4]
 8001f04:	6c1b      	ldr	r3, [r3, #64]	; 0x40
 8001f06:	f003 0308 	and.w	r3, r3, #8
 8001f0a:	2b00      	cmp	r3, #0
 8001f0c:	d103      	bne.n	8001f16 <HAL_UART_IRQHandler+0x17a>
 8001f0e:	f8d7 30d4 	ldr.w	r3, [r7, #212]	; 0xd4
 8001f12:	2b00      	cmp	r3, #0
 8001f14:	d04f      	beq.n	8001fb6 <HAL_UART_IRQHandler+0x21a>
      {
        /* Blocking error : transfer is aborted
           Set the UART state ready to be able to start again the process,
           Disable Rx Interrupts, and disable Rx DMA request, if ongoing */
        UART_EndRxTransfer(huart);
 8001f16:	6878      	ldr	r0, [r7, #4]
 8001f18:	f000 fa66 	bl	80023e8 <UART_EndRxTransfer>

        /* Disable the UART DMA Rx request if enabled */
        if (HAL_IS_BIT_SET(huart->Instance->CR3, USART_CR3_DMAR))
 8001f1c:	687b      	ldr	r3, [r7, #4]
 8001f1e:	681b      	ldr	r3, [r3, #0]
 8001f20:	695b      	ldr	r3, [r3, #20]
 8001f22:	f003 0340 	and.w	r3, r3, #64	; 0x40
 8001f26:	2b40      	cmp	r3, #64	; 0x40
 8001f28:	d141      	bne.n	8001fae <HAL_UART_IRQHandler+0x212>
        {
          ATOMIC_CLEAR_BIT(huart->Instance->CR3, USART_CR3_DMAR);
 8001f2a:	687b      	ldr	r3, [r7, #4]
 8001f2c:	681b      	ldr	r3, [r3, #0]
 8001f2e:	3314      	adds	r3, #20
 8001f30:	f8c7 309c 	str.w	r3, [r7, #156]	; 0x9c
 */
__STATIC_FORCEINLINE uint32_t __LDREXW(volatile uint32_t *addr)
{
    uint32_t result;

   __ASM volatile ("ldrex %0, %1" : "=r" (result) : "Q" (*addr) );
 8001f34:	f8d7 309c 	ldr.w	r3, [r7, #156]	; 0x9c
 8001f38:	e853 3f00 	ldrex	r3, [r3]
 8001f3c:	f8c7 3098 	str.w	r3, [r7, #152]	; 0x98
   return(result);
 8001f40:	f8d7 3098 	ldr.w	r3, [r7, #152]	; 0x98
 8001f44:	f023 0340 	bic.w	r3, r3, #64	; 0x40
 8001f48:	f8c7 30d0 	str.w	r3, [r7, #208]	; 0xd0
 8001f4c:	687b      	ldr	r3, [r7, #4]
 8001f4e:	681b      	ldr	r3, [r3, #0]
 8001f50:	3314      	adds	r3, #20
 8001f52:	f8d7 20d0 	ldr.w	r2, [r7, #208]	; 0xd0
 8001f56:	f8c7 20a8 	str.w	r2, [r7, #168]	; 0xa8
 8001f5a:	f8c7 30a4 	str.w	r3, [r7, #164]	; 0xa4
 */
__STATIC_FORCEINLINE uint32_t __STREXW(uint32_t value, volatile uint32_t *addr)
{
   uint32_t result;

   __ASM volatile ("strex %0, %2, %1" : "=&r" (result), "=Q" (*addr) : "r" (value) );
 8001f5e:	f8d7 10a4 	ldr.w	r1, [r7, #164]	; 0xa4
 8001f62:	f8d7 20a8 	ldr.w	r2, [r7, #168]	; 0xa8
 8001f66:	e841 2300 	strex	r3, r2, [r1]
 8001f6a:	f8c7 30a0 	str.w	r3, [r7, #160]	; 0xa0
   return(result);
 8001f6e:	f8d7 30a0 	ldr.w	r3, [r7, #160]	; 0xa0
 8001f72:	2b00      	cmp	r3, #0
 8001f74:	d1d9      	bne.n	8001f2a <HAL_UART_IRQHandler+0x18e>

          /* Abort the UART DMA Rx stream */
          if (huart->hdmarx != NULL)
 8001f76:	687b      	ldr	r3, [r7, #4]
 8001f78:	6b9b      	ldr	r3, [r3, #56]	; 0x38
 8001f7a:	2b00      	cmp	r3, #0
 8001f7c:	d013      	beq.n	8001fa6 <HAL_UART_IRQHandler+0x20a>
          {
            /* Set the UART DMA Abort callback :
               will lead to call HAL_UART_ErrorCallback() at end of DMA abort procedure */
            huart->hdmarx->XferAbortCallback = UART_DMAAbortOnError;
 8001f7e:	687b      	ldr	r3, [r7, #4]
 8001f80:	6b9b      	ldr	r3, [r3, #56]	; 0x38
 8001f82:	4a7d      	ldr	r2, [pc, #500]	; (8002178 <HAL_UART_IRQHandler+0x3dc>)
 8001f84:	651a      	str	r2, [r3, #80]	; 0x50
            if (HAL_DMA_Abort_IT(huart->hdmarx) != HAL_OK)
 8001f86:	687b      	ldr	r3, [r7, #4]
 8001f88:	6b9b      	ldr	r3, [r3, #56]	; 0x38
 8001f8a:	4618      	mov	r0, r3
 8001f8c:	f7fe ff81 	bl	8000e92 <HAL_DMA_Abort_IT>
 8001f90:	4603      	mov	r3, r0
 8001f92:	2b00      	cmp	r3, #0
 8001f94:	d016      	beq.n	8001fc4 <HAL_UART_IRQHandler+0x228>
            {
              /* Call Directly XferAbortCallback function in case of error */
              huart->hdmarx->XferAbortCallback(huart->hdmarx);
 8001f96:	687b      	ldr	r3, [r7, #4]
 8001f98:	6b9b      	ldr	r3, [r3, #56]	; 0x38
 8001f9a:	6d1b      	ldr	r3, [r3, #80]	; 0x50
 8001f9c:	687a      	ldr	r2, [r7, #4]
 8001f9e:	6b92      	ldr	r2, [r2, #56]	; 0x38
 8001fa0:	4610      	mov	r0, r2
 8001fa2:	4798      	blx	r3
        if (HAL_IS_BIT_SET(huart->Instance->CR3, USART_CR3_DMAR))
 8001fa4:	e00e      	b.n	8001fc4 <HAL_UART_IRQHandler+0x228>
#if (USE_HAL_UART_REGISTER_CALLBACKS == 1)
            /*Call registered error callback*/
            huart->ErrorCallback(huart);
#else
            /*Call legacy weak error callback*/
            HAL_UART_ErrorCallback(huart);
 8001fa6:	6878      	ldr	r0, [r7, #4]
 8001fa8:	f000 f99a 	bl	80022e0 <HAL_UART_ErrorCallback>
        if (HAL_IS_BIT_SET(huart->Instance->CR3, USART_CR3_DMAR))
 8001fac:	e00a      	b.n	8001fc4 <HAL_UART_IRQHandler+0x228>
#if (USE_HAL_UART_REGISTER_CALLBACKS == 1)
          /*Call registered error callback*/
          huart->ErrorCallback(huart);
#else
          /*Call legacy weak error callback*/
          HAL_UART_ErrorCallback(huart);
 8001fae:	6878      	ldr	r0, [r7, #4]
 8001fb0:	f000 f996 	bl	80022e0 <HAL_UART_ErrorCallback>
        if (HAL_IS_BIT_SET(huart->Instance->CR3, USART_CR3_DMAR))
 8001fb4:	e006      	b.n	8001fc4 <HAL_UART_IRQHandler+0x228>
#if (USE_HAL_UART_REGISTER_CALLBACKS == 1)
        /*Call registered error callback*/
        huart->ErrorCallback(huart);
#else
        /*Call legacy weak error callback*/
        HAL_UART_ErrorCallback(huart);
 8001fb6:	6878      	ldr	r0, [r7, #4]
 8001fb8:	f000 f992 	bl	80022e0 <HAL_UART_ErrorCallback>
#endif /* USE_HAL_UART_REGISTER_CALLBACKS */

        huart->ErrorCode = HAL_UART_ERROR_NONE;
 8001fbc:	687b      	ldr	r3, [r7, #4]
 8001fbe:	2200      	movs	r2, #0
 8001fc0:	641a      	str	r2, [r3, #64]	; 0x40
      }
    }
    return;
 8001fc2:	e170      	b.n	80022a6 <HAL_UART_IRQHandler+0x50a>
        if (HAL_IS_BIT_SET(huart->Instance->CR3, USART_CR3_DMAR))
 8001fc4:	bf00      	nop
    return;
 8001fc6:	e16e      	b.n	80022a6 <HAL_UART_IRQHandler+0x50a>
  } /* End if some error occurs */

  /* Check current reception Mode :
     If Reception till IDLE event has been selected : */
  if ((huart->ReceptionType == HAL_UART_RECEPTION_TOIDLE)
 8001fc8:	687b      	ldr	r3, [r7, #4]
 8001fca:	6b1b      	ldr	r3, [r3, #48]	; 0x30
 8001fcc:	2b01      	cmp	r3, #1
 8001fce:	f040 814a 	bne.w	8002266 <HAL_UART_IRQHandler+0x4ca>
      && ((isrflags & USART_SR_IDLE) != 0U)
 8001fd2:	f8d7 30e4 	ldr.w	r3, [r7, #228]	; 0xe4
 8001fd6:	f003 0310 	and.w	r3, r3, #16
 8001fda:	2b00      	cmp	r3, #0
 8001fdc:	f000 8143 	beq.w	8002266 <HAL_UART_IRQHandler+0x4ca>
      && ((cr1its & USART_SR_IDLE) != 0U))
 8001fe0:	f8d7 30e0 	ldr.w	r3, [r7, #224]	; 0xe0
 8001fe4:	f003 0310 	and.w	r3, r3, #16
 8001fe8:	2b00      	cmp	r3, #0
 8001fea:	f000 813c 	beq.w	8002266 <HAL_UART_IRQHandler+0x4ca>
  {
    __HAL_UART_CLEAR_IDLEFLAG(huart);
 8001fee:	2300      	movs	r3, #0
 8001ff0:	60bb      	str	r3, [r7, #8]
 8001ff2:	687b      	ldr	r3, [r7, #4]
 8001ff4:	681b      	ldr	r3, [r3, #0]
 8001ff6:	681b      	ldr	r3, [r3, #0]
 8001ff8:	60bb      	str	r3, [r7, #8]
 8001ffa:	687b      	ldr	r3, [r7, #4]
 8001ffc:	681b      	ldr	r3, [r3, #0]
 8001ffe:	685b      	ldr	r3, [r3, #4]
 8002000:	60bb      	str	r3, [r7, #8]
 8002002:	68bb      	ldr	r3, [r7, #8]

    /* Check if DMA mode is enabled in UART */
    if (HAL_IS_BIT_SET(huart->Instance->CR3, USART_CR3_DMAR))
 8002004:	687b      	ldr	r3, [r7, #4]
 8002006:	681b      	ldr	r3, [r3, #0]
 8002008:	695b      	ldr	r3, [r3, #20]
 800200a:	f003 0340 	and.w	r3, r3, #64	; 0x40
 800200e:	2b40      	cmp	r3, #64	; 0x40
 8002010:	f040 80b4 	bne.w	800217c <HAL_UART_IRQHandler+0x3e0>
    {
      /* DMA mode enabled */
      /* Check received length : If all expected data are received, do nothing,
         (DMA cplt callback will be called).
         Otherwise, if at least one data has already been received, IDLE event is to be notified to user */
      uint16_t nb_remaining_rx_data = (uint16_t) __HAL_DMA_GET_COUNTER(huart->hdmarx);
